{
	"contracts/Integer.sol": {
		"Integer": {
			"abi": [
				{
					"inputs": [],
					"name": "demo",
					"outputs": [],
					"stateMutability": "nonpayable",
					"type": "function"
				},
				{
					"inputs": [],
					"name": "increment",
					"outputs": [],
					"stateMutability": "nonpayable",
					"type": "function"
				},
				{
					"inputs": [],
					"name": "max",
					"outputs": [
						{
							"internalType": "uint256",
							"name": "",
							"type": "uint256"
						}
					],
					"stateMutability": "view",
					"type": "function"
				},
				{
					"inputs": [],
					"name": "min",
					"outputs": [
						{
							"internalType": "uint256",
							"name": "",
							"type": "uint256"
						}
					],
					"stateMutability": "view",
					"type": "function"
				},
				{
					"inputs": [
						{
							"internalType": "uint256",
							"name": "_input",
							"type": "uint256"
						}
					],
					"name": "myFunc",
					"outputs": [],
					"stateMutability": "nonpayable",
					"type": "function"
				},
				{
					"inputs": [],
					"name": "myInt",
					"outputs": [
						{
							"internalType": "int256",
							"name": "",
							"type": "int256"
						}
					],
					"stateMutability": "view",
					"type": "function"
				},
				{
					"inputs": [],
					"name": "myInt8",
					"outputs": [
						{
							"internalType": "int8",
							"name": "",
							"type": "int8"
						}
					],
					"stateMutability": "view",
					"type": "function"
				},
				{
					"inputs": [],
					"name": "myUint",
					"outputs": [
						{
							"internalType": "uint256",
							"name": "",
							"type": "uint256"
						}
					],
					"stateMutability": "view",
					"type": "function"
				},
				{
					"inputs": [],
					"name": "value",
					"outputs": [
						{
							"internalType": "uint8",
							"name": "",
							"type": "uint8"
						}
					],
					"stateMutability": "view",
					"type": "function"
				}
			],
			"devdoc": {
				"kind": "dev",
				"methods": {},
				"version": 1
			},
			"evm": {
				"assembly": "    /* \"contracts/Integer.sol\":58:1722  contract Integer {... */\n  mstore(0x40, 0x80)\n    /* \"contracts/Integer.sol\":102:105  254 */\n  0xfe\n    /* \"contracts/Integer.sol\":81:105  uint8 public value = 254 */\n  0x00\n  dup1\n  0x0100\n  exp\n  dup2\n  sload\n  dup2\n  0xff\n  mul\n  not\n  and\n  swap1\n  dup4\n  0xff\n  and\n  mul\n  or\n  swap1\n  sstore\n  pop\n    /* \"contracts/Integer.sol\":757:758  5 */\n  0x05\n    /* \"contracts/Integer.sol\":736:758  uint public myUint = 5 */\n  0x03\n  sstore\n    /* \"contracts/Integer.sol\":1239:1240  2 */\n  0x02\n    /* \"contracts/Integer.sol\":1223:1240  uint8 myUint8 = 2 */\n  0x04\n  exp(0x0100, 0x00)\n  dup2\n  sload\n  dup2\n  0xff\n  mul\n  not\n  and\n  swap1\n  dup4\n  0xff\n  and\n  mul\n  or\n  swap1\n  sstore\n  pop\n    /* \"contracts/Integer.sol\":1488:1490  -5 */\n  0xfffffffffffffffffffffffffffffffffffffffffffffffffffffffffffffffb\n    /* \"contracts/Integer.sol\":1469:1490  int public myInt = -5 */\n  0x05\n  sstore\n    /* \"contracts/Integer.sol\":1715:1717  -1 */\n  0xffffffffffffffffffffffffffffffffffffffffffffffffffffffffffffffff\n    /* \"contracts/Integer.sol\":1694:1717  int8 public myInt8 = -1 */\n  0x06\n  exp(0x0100, 0x00)\n  dup2\n  sload\n  dup2\n  0xff\n  mul\n  not\n  and\n  swap1\n  dup4\n  0x00\n  signextend\n  0xff\n  and\n  mul\n  or\n  swap1\n  sstore\n  pop\n    /* \"contracts/Integer.sol\":58:1722  contract Integer {... */\n  callvalue\n  dup1\n  iszero\n  tag_1\n  jumpi\n  0x00\n  dup1\n  revert\ntag_1:\n  pop\n  dataSize(sub_0)\n  dup1\n  dataOffset(sub_0)\n  0x00\n  codecopy\n  0x00\n  return\nstop\n\nsub_0: assembly {\n        /* \"contracts/Integer.sol\":58:1722  contract Integer {... */\n      mstore(0x40, 0x80)\n      callvalue\n      dup1\n      iszero\n      tag_1\n      jumpi\n      0x00\n      dup1\n      revert\n    tag_1:\n      pop\n      jumpi(tag_2, lt(calldatasize, 0x04))\n      shr(0xe0, calldataload(0x00))\n      dup1\n      0x6ac5db19\n      gt\n      tag_12\n      jumpi\n      dup1\n      0x6ac5db19\n      eq\n      tag_7\n      jumpi\n      dup1\n      0x6e92c39e\n      eq\n      tag_8\n      jumpi\n      dup1\n      0xa9bf5633\n      eq\n      tag_9\n      jumpi\n      dup1\n      0xd09de08a\n      eq\n      tag_10\n      jumpi\n      dup1\n      0xf8897945\n      eq\n      tag_11\n      jumpi\n      jump(tag_2)\n    tag_12:\n      dup1\n      0x01725a0b\n      eq\n      tag_3\n      jumpi\n      dup1\n      0x06540f7e\n      eq\n      tag_4\n      jumpi\n      dup1\n      0x2cb777a6\n      eq\n      tag_5\n      jumpi\n      dup1\n      0x3fa4f245\n      eq\n      tag_6\n      jumpi\n    tag_2:\n      0x00\n      dup1\n      revert\n        /* \"contracts/Integer.sol\":421:513  function demo() public {... */\n    tag_3:\n      tag_13\n      tag_14\n      jump\t// in\n    tag_13:\n      stop\n        /* \"contracts/Integer.sol\":736:758  uint public myUint = 5 */\n    tag_4:\n      tag_15\n      tag_16\n      jump\t// in\n    tag_15:\n      mload(0x40)\n      tag_17\n      swap2\n      swap1\n      tag_18\n      jump\t// in\n    tag_17:\n      mload(0x40)\n      dup1\n      swap2\n      sub\n      swap1\n      return\n        /* \"contracts/Integer.sol\":1469:1490  int public myInt = -5 */\n    tag_5:\n      tag_19\n      tag_20\n      jump\t// in\n    tag_19:\n      mload(0x40)\n      tag_21\n      swap2\n      swap1\n      tag_22\n      jump\t// in\n    tag_21:\n      mload(0x40)\n      dup1\n      swap2\n      sub\n      swap1\n      return\n        /* \"contracts/Integer.sol\":81:105  uint8 public value = 254 */\n    tag_6:\n      tag_23\n      tag_24\n      jump\t// in\n    tag_23:\n      mload(0x40)\n      tag_25\n      swap2\n      swap1\n      tag_26\n      jump\t// in\n    tag_25:\n      mload(0x40)\n      dup1\n      swap2\n      sub\n      swap1\n      return\n        /* \"contracts/Integer.sol\":400:415  uint public max */\n    tag_7:\n      tag_27\n      tag_28\n      jump\t// in\n    tag_27:\n      mload(0x40)\n      tag_29\n      swap2\n      swap1\n      tag_18\n      jump\t// in\n    tag_29:\n      mload(0x40)\n      dup1\n      swap2\n      sub\n      swap1\n      return\n        /* \"contracts/Integer.sol\":1694:1717  int8 public myInt8 = -1 */\n    tag_8:\n      tag_30\n      tag_31\n      jump\t// in\n    tag_30:\n      mload(0x40)\n      tag_32\n      swap2\n      swap1\n      tag_33\n      jump\t// in\n    tag_32:\n      mload(0x40)\n      dup1\n      swap2\n      sub\n      swap1\n      return\n        /* \"contracts/Integer.sol\":764:1160  function myFunc(uint _input) public {... */\n    tag_9:\n      tag_34\n      0x04\n      dup1\n      calldatasize\n      sub\n      dup2\n      add\n      swap1\n      tag_35\n      swap2\n      swap1\n      tag_36\n      jump\t// in\n    tag_35:\n      tag_37\n      jump\t// in\n    tag_34:\n      stop\n        /* \"contracts/Integer.sol\":111:373  function increment() public {... */\n    tag_10:\n      tag_38\n      tag_39\n      jump\t// in\n    tag_38:\n      stop\n        /* \"contracts/Integer.sol\":379:394  uint public min */\n    tag_11:\n      tag_40\n      tag_41\n      jump\t// in\n    tag_40:\n      mload(0x40)\n      tag_42\n      swap2\n      swap1\n      tag_18\n      jump\t// in\n    tag_42:\n      mload(0x40)\n      dup1\n      swap2\n      sub\n      swap1\n      return\n        /* \"contracts/Integer.sol\":421:513  function demo() public {... */\n    tag_14:\n        /* \"contracts/Integer.sol\":460:475  type(uint8).min */\n      0x00\n        /* \"contracts/Integer.sol\":454:475  min = type(uint8).min */\n      0xff\n      and\n        /* \"contracts/Integer.sol\":454:457  min */\n      0x01\n        /* \"contracts/Integer.sol\":454:475  min = type(uint8).min */\n      dup2\n      swap1\n      sstore\n      pop\n        /* \"contracts/Integer.sol\":491:506  type(uint8).max */\n      0xff\n        /* \"contracts/Integer.sol\":485:506  max = type(uint8).max */\n      dup1\n      and\n        /* \"contracts/Integer.sol\":485:488  max */\n      0x02\n        /* \"contracts/Integer.sol\":485:506  max = type(uint8).max */\n      dup2\n      swap1\n      sstore\n      pop\n        /* \"contracts/Integer.sol\":421:513  function demo() public {... */\n      jump\t// out\n        /* \"contracts/Integer.sol\":736:758  uint public myUint = 5 */\n    tag_16:\n      sload(0x03)\n      dup2\n      jump\t// out\n        /* \"contracts/Integer.sol\":1469:1490  int public myInt = -5 */\n    tag_20:\n      sload(0x05)\n      dup2\n      jump\t// out\n        /* \"contracts/Integer.sol\":81:105  uint8 public value = 254 */\n    tag_24:\n      0x00\n      dup1\n      sload\n      swap1\n      0x0100\n      exp\n      swap1\n      div\n      0xff\n      and\n      dup2\n      jump\t// out\n        /* \"contracts/Integer.sol\":400:415  uint public max */\n    tag_28:\n      sload(0x02)\n      dup2\n      jump\t// out\n        /* \"contracts/Integer.sol\":1694:1717  int8 public myInt8 = -1 */\n    tag_31:\n      0x06\n      0x00\n      swap1\n      sload\n      swap1\n      0x0100\n      exp\n      swap1\n      div\n      0x00\n      signextend\n      dup2\n      jump\t// out\n        /* \"contracts/Integer.sol\":764:1160  function myFunc(uint _input) public {... */\n    tag_37:\n        /* \"contracts/Integer.sol\":810:824  uint localUint */\n      0x00\n        /* \"contracts/Integer.sol\":827:829  42 */\n      0x2a\n        /* \"contracts/Integer.sol\":810:829  uint localUint = 42 */\n      swap1\n      pop\n        /* \"contracts/Integer.sol\":852:853  1 */\n      0x01\n        /* \"contracts/Integer.sol\":840:849  localUint */\n      dup2\n        /* \"contracts/Integer.sol\":840:853  localUint + 1 */\n      tag_45\n      swap2\n      swap1\n      tag_46\n      jump\t// in\n    tag_45:\n      pop\n        /* \"contracts/Integer.sol\":875:876  1 */\n      0x01\n        /* \"contracts/Integer.sol\":863:872  localUint */\n      dup2\n        /* \"contracts/Integer.sol\":863:876  localUint - 1 */\n      tag_47\n      swap2\n      swap1\n      tag_48\n      jump\t// in\n    tag_47:\n      pop\n        /* \"contracts/Integer.sol\":898:899  2 */\n      0x02\n        /* \"contracts/Integer.sol\":886:895  localUint */\n      dup2\n        /* \"contracts/Integer.sol\":886:899  localUint * 2 */\n      tag_49\n      swap2\n      swap1\n      tag_50\n      jump\t// in\n    tag_49:\n      pop\n        /* \"contracts/Integer.sol\":921:922  2 */\n      0x02\n        /* \"contracts/Integer.sol\":909:918  localUint */\n      dup2\n        /* \"contracts/Integer.sol\":909:922  localUint / 2 */\n      tag_51\n      swap2\n      swap1\n      tag_52\n      jump\t// in\n    tag_51:\n      pop\n        /* \"contracts/Integer.sol\":1058:1059  3 */\n      0x03\n        /* \"contracts/Integer.sol\":1045:1054  localUint */\n      dup2\n        /* \"contracts/Integer.sol\":1045:1059  localUint ** 3 */\n      tag_53\n      swap2\n      swap1\n      tag_54\n      jump\t// in\n    tag_53:\n      pop\n        /* \"contracts/Integer.sol\":1123:1124  3 */\n      0x03\n        /* \"contracts/Integer.sol\":1111:1120  localUint */\n      dup2\n        /* \"contracts/Integer.sol\":1111:1124  localUint % 3 */\n      tag_55\n      swap2\n      swap1\n      tag_56\n      jump\t// in\n    tag_55:\n      pop\n        /* \"contracts/Integer.sol\":1135:1140  myInt */\n      sload(0x05)\n        /* \"contracts/Integer.sol\":1134:1140  -myInt */\n      tag_57\n      swap1\n      tag_58\n      jump\t// in\n    tag_57:\n      pop\n        /* \"contracts/Integer.sol\":800:1160  {... */\n      pop\n        /* \"contracts/Integer.sol\":764:1160  function myFunc(uint _input) public {... */\n      pop\n      jump\t// out\n        /* \"contracts/Integer.sol\":111:373  function increment() public {... */\n    tag_39:\n        /* \"contracts/Integer.sol\":349:354  value */\n      0x00\n      dup1\n        /* \"contracts/Integer.sol\":349:356  value++ */\n      dup2\n      dup2\n      swap1\n      sload\n      swap1\n      0x0100\n      exp\n      swap1\n      div\n      0xff\n      and\n      dup1\n      swap3\n      swap2\n      swap1\n      0x01\n      add\n      swap2\n      swap1\n      0x0100\n      exp\n      dup2\n      sload\n      dup2\n      0xff\n      mul\n      not\n      and\n      swap1\n      dup4\n      0xff\n      and\n      mul\n      or\n      swap1\n      sstore\n      pop\n      pop\n        /* \"contracts/Integer.sol\":111:373  function increment() public {... */\n      jump\t// out\n        /* \"contracts/Integer.sol\":379:394  uint public min */\n    tag_41:\n      sload(0x01)\n      dup2\n      jump\t// out\n        /* \"#utility.yul\":7:84   */\n    tag_60:\n        /* \"#utility.yul\":44:51   */\n      0x00\n        /* \"#utility.yul\":73:78   */\n      dup2\n        /* \"#utility.yul\":62:78   */\n      swap1\n      pop\n        /* \"#utility.yul\":7:84   */\n      swap2\n      swap1\n      pop\n      jump\t// out\n        /* \"#utility.yul\":90:208   */\n    tag_61:\n        /* \"#utility.yul\":177:201   */\n      tag_81\n        /* \"#utility.yul\":195:200   */\n      dup2\n        /* \"#utility.yul\":177:201   */\n      tag_60\n      jump\t// in\n    tag_81:\n        /* \"#utility.yul\":172:175   */\n      dup3\n        /* \"#utility.yul\":165:202   */\n      mstore\n        /* \"#utility.yul\":90:208   */\n      pop\n      pop\n      jump\t// out\n        /* \"#utility.yul\":214:436   */\n    tag_18:\n        /* \"#utility.yul\":307:311   */\n      0x00\n        /* \"#utility.yul\":345:347   */\n      0x20\n        /* \"#utility.yul\":334:343   */\n      dup3\n        /* \"#utility.yul\":330:348   */\n      add\n        /* \"#utility.yul\":322:348   */\n      swap1\n      pop\n        /* \"#utility.yul\":358:429   */\n      tag_83\n        /* \"#utility.yul\":426:427   */\n      0x00\n        /* \"#utility.yul\":415:424   */\n      dup4\n        /* \"#utility.yul\":411:428   */\n      add\n        /* \"#utility.yul\":402:408   */\n      dup5\n        /* \"#utility.yul\":358:429   */\n      tag_61\n      jump\t// in\n    tag_83:\n        /* \"#utility.yul\":214:436   */\n      swap3\n      swap2\n      pop\n      pop\n      jump\t// out\n        /* \"#utility.yul\":442:518   */\n    tag_62:\n        /* \"#utility.yul\":478:485   */\n      0x00\n        /* \"#utility.yul\":507:512   */\n      dup2\n        /* \"#utility.yul\":496:512   */\n      swap1\n      pop\n        /* \"#utility.yul\":442:518   */\n      swap2\n      swap1\n      pop\n      jump\t// out\n        /* \"#utility.yul\":524:639   */\n    tag_63:\n        /* \"#utility.yul\":609:632   */\n      tag_86\n        /* \"#utility.yul\":626:631   */\n      dup2\n        /* \"#utility.yul\":609:632   */\n      tag_62\n      jump\t// in\n    tag_86:\n        /* \"#utility.yul\":604:607   */\n      dup3\n        /* \"#utility.yul\":597:633   */\n      mstore\n        /* \"#utility.yul\":524:639   */\n      pop\n      pop\n      jump\t// out\n        /* \"#utility.yul\":645:863   */\n    tag_22:\n        /* \"#utility.yul\":736:740   */\n      0x00\n        /* \"#utility.yul\":774:776   */\n      0x20\n        /* \"#utility.yul\":763:772   */\n      dup3\n        /* \"#utility.yul\":759:777   */\n      add\n        /* \"#utility.yul\":751:777   */\n      swap1\n      pop\n        /* \"#utility.yul\":787:856   */\n      tag_88\n        /* \"#utility.yul\":853:854   */\n      0x00\n        /* \"#utility.yul\":842:851   */\n      dup4\n        /* \"#utility.yul\":838:855   */\n      add\n        /* \"#utility.yul\":829:835   */\n      dup5\n        /* \"#utility.yul\":787:856   */\n      tag_63\n      jump\t// in\n    tag_88:\n        /* \"#utility.yul\":645:863   */\n      swap3\n      swap2\n      pop\n      pop\n      jump\t// out\n        /* \"#utility.yul\":869:955   */\n    tag_64:\n        /* \"#utility.yul\":904:911   */\n      0x00\n        /* \"#utility.yul\":944:948   */\n      0xff\n        /* \"#utility.yul\":937:942   */\n      dup3\n        /* \"#utility.yul\":933:949   */\n      and\n        /* \"#utility.yul\":922:949   */\n      swap1\n      pop\n        /* \"#utility.yul\":869:955   */\n      swap2\n      swap1\n      pop\n      jump\t// out\n        /* \"#utility.yul\":961:1073   */\n    tag_65:\n        /* \"#utility.yul\":1044:1066   */\n      tag_91\n        /* \"#utility.yul\":1060:1065   */\n      dup2\n        /* \"#utility.yul\":1044:1066   */\n      tag_64\n      jump\t// in\n    tag_91:\n        /* \"#utility.yul\":1039:1042   */\n      dup3\n        /* \"#utility.yul\":1032:1067   */\n      mstore\n        /* \"#utility.yul\":961:1073   */\n      pop\n      pop\n      jump\t// out\n        /* \"#utility.yul\":1079:1293   */\n    tag_26:\n        /* \"#utility.yul\":1168:1172   */\n      0x00\n        /* \"#utility.yul\":1206:1208   */\n      0x20\n        /* \"#utility.yul\":1195:1204   */\n      dup3\n        /* \"#utility.yul\":1191:1209   */\n      add\n        /* \"#utility.yul\":1183:1209   */\n      swap1\n      pop\n        /* \"#utility.yul\":1219:1286   */\n      tag_93\n        /* \"#utility.yul\":1283:1284   */\n      0x00\n        /* \"#utility.yul\":1272:1281   */\n      dup4\n        /* \"#utility.yul\":1268:1285   */\n      add\n        /* \"#utility.yul\":1259:1265   */\n      dup5\n        /* \"#utility.yul\":1219:1286   */\n      tag_65\n      jump\t// in\n    tag_93:\n        /* \"#utility.yul\":1079:1293   */\n      swap3\n      swap2\n      pop\n      pop\n      jump\t// out\n        /* \"#utility.yul\":1299:1388   */\n    tag_66:\n        /* \"#utility.yul\":1333:1340   */\n      0x00\n        /* \"#utility.yul\":1376:1381   */\n      dup2\n        /* \"#utility.yul\":1373:1374   */\n      0x00\n        /* \"#utility.yul\":1362:1382   */\n      signextend\n        /* \"#utility.yul\":1351:1382   */\n      swap1\n      pop\n        /* \"#utility.yul\":1299:1388   */\n      swap2\n      swap1\n      pop\n      jump\t// out\n        /* \"#utility.yul\":1394:1503   */\n    tag_67:\n        /* \"#utility.yul\":1475:1496   */\n      tag_96\n        /* \"#utility.yul\":1490:1495   */\n      dup2\n        /* \"#utility.yul\":1475:1496   */\n      tag_66\n      jump\t// in\n    tag_96:\n        /* \"#utility.yul\":1470:1473   */\n      dup3\n        /* \"#utility.yul\":1463:1497   */\n      mstore\n        /* \"#utility.yul\":1394:1503   */\n      pop\n      pop\n      jump\t// out\n        /* \"#utility.yul\":1509:1719   */\n    tag_33:\n        /* \"#utility.yul\":1596:1600   */\n      0x00\n        /* \"#utility.yul\":1634:1636   */\n      0x20\n        /* \"#utility.yul\":1623:1632   */\n      dup3\n        /* \"#utility.yul\":1619:1637   */\n      add\n        /* \"#utility.yul\":1611:1637   */\n      swap1\n      pop\n        /* \"#utility.yul\":1647:1712   */\n      tag_98\n        /* \"#utility.yul\":1709:1710   */\n      0x00\n        /* \"#utility.yul\":1698:1707   */\n      dup4\n        /* \"#utility.yul\":1694:1711   */\n      add\n        /* \"#utility.yul\":1685:1691   */\n      dup5\n        /* \"#utility.yul\":1647:1712   */\n      tag_67\n      jump\t// in\n    tag_98:\n        /* \"#utility.yul\":1509:1719   */\n      swap3\n      swap2\n      pop\n      pop\n      jump\t// out\n        /* \"#utility.yul\":1806:1923   */\n    tag_69:\n        /* \"#utility.yul\":1915:1916   */\n      0x00\n        /* \"#utility.yul\":1912:1913   */\n      dup1\n        /* \"#utility.yul\":1905:1917   */\n      revert\n        /* \"#utility.yul\":2052:2174   */\n    tag_71:\n        /* \"#utility.yul\":2125:2149   */\n      tag_103\n        /* \"#utility.yul\":2143:2148   */\n      dup2\n        /* \"#utility.yul\":2125:2149   */\n      tag_60\n      jump\t// in\n    tag_103:\n        /* \"#utility.yul\":2118:2123   */\n      dup2\n        /* \"#utility.yul\":2115:2150   */\n      eq\n        /* \"#utility.yul\":2105:2168   */\n      tag_104\n      jumpi\n        /* \"#utility.yul\":2164:2165   */\n      0x00\n        /* \"#utility.yul\":2161:2162   */\n      dup1\n        /* \"#utility.yul\":2154:2166   */\n      revert\n        /* \"#utility.yul\":2105:2168   */\n    tag_104:\n        /* \"#utility.yul\":2052:2174   */\n      pop\n      jump\t// out\n        /* \"#utility.yul\":2180:2319   */\n    tag_72:\n        /* \"#utility.yul\":2226:2231   */\n      0x00\n        /* \"#utility.yul\":2264:2270   */\n      dup2\n        /* \"#utility.yul\":2251:2271   */\n      calldataload\n        /* \"#utility.yul\":2242:2271   */\n      swap1\n      pop\n        /* \"#utility.yul\":2280:2313   */\n      tag_106\n        /* \"#utility.yul\":2307:2312   */\n      dup2\n        /* \"#utility.yul\":2280:2313   */\n      tag_71\n      jump\t// in\n    tag_106:\n        /* \"#utility.yul\":2180:2319   */\n      swap3\n      swap2\n      pop\n      pop\n      jump\t// out\n        /* \"#utility.yul\":2325:2654   */\n    tag_36:\n        /* \"#utility.yul\":2384:2390   */\n      0x00\n        /* \"#utility.yul\":2433:2435   */\n      0x20\n        /* \"#utility.yul\":2421:2430   */\n      dup3\n        /* \"#utility.yul\":2412:2419   */\n      dup5\n        /* \"#utility.yul\":2408:2431   */\n      sub\n        /* \"#utility.yul\":2404:2436   */\n      slt\n        /* \"#utility.yul\":2401:2520   */\n      iszero\n      tag_108\n      jumpi\n        /* \"#utility.yul\":2439:2518   */\n      tag_109\n      tag_69\n      jump\t// in\n    tag_109:\n        /* \"#utility.yul\":2401:2520   */\n    tag_108:\n        /* \"#utility.yul\":2559:2560   */\n      0x00\n        /* \"#utility.yul\":2584:2637   */\n      tag_110\n        /* \"#utility.yul\":2629:2636   */\n      dup5\n        /* \"#utility.yul\":2620:2626   */\n      dup3\n        /* \"#utility.yul\":2609:2618   */\n      dup6\n        /* \"#utility.yul\":2605:2627   */\n      add\n        /* \"#utility.yul\":2584:2637   */\n      tag_72\n      jump\t// in\n    tag_110:\n        /* \"#utility.yul\":2574:2637   */\n      swap2\n      pop\n        /* \"#utility.yul\":2530:2647   */\n      pop\n        /* \"#utility.yul\":2325:2654   */\n      swap3\n      swap2\n      pop\n      pop\n      jump\t// out\n        /* \"#utility.yul\":2660:2840   */\n    tag_73:\n        /* \"#utility.yul\":2708:2785   */\n      0x4e487b7100000000000000000000000000000000000000000000000000000000\n        /* \"#utility.yul\":2705:2706   */\n      0x00\n        /* \"#utility.yul\":2698:2786   */\n      mstore\n        /* \"#utility.yul\":2805:2809   */\n      0x11\n        /* \"#utility.yul\":2802:2803   */\n      0x04\n        /* \"#utility.yul\":2795:2810   */\n      mstore\n        /* \"#utility.yul\":2829:2833   */\n      0x24\n        /* \"#utility.yul\":2826:2827   */\n      0x00\n        /* \"#utility.yul\":2819:2834   */\n      revert\n        /* \"#utility.yul\":2846:3151   */\n    tag_46:\n        /* \"#utility.yul\":2886:2889   */\n      0x00\n        /* \"#utility.yul\":2905:2925   */\n      tag_113\n        /* \"#utility.yul\":2923:2924   */\n      dup3\n        /* \"#utility.yul\":2905:2925   */\n      tag_60\n      jump\t// in\n    tag_113:\n        /* \"#utility.yul\":2900:2925   */\n      swap2\n      pop\n        /* \"#utility.yul\":2939:2959   */\n      tag_114\n        /* \"#utility.yul\":2957:2958   */\n      dup4\n        /* \"#utility.yul\":2939:2959   */\n      tag_60\n      jump\t// in\n    tag_114:\n        /* \"#utility.yul\":2934:2959   */\n      swap3\n      pop\n        /* \"#utility.yul\":3093:3094   */\n      dup3\n        /* \"#utility.yul\":3025:3091   */\n      0xffffffffffffffffffffffffffffffffffffffffffffffffffffffffffffffff\n        /* \"#utility.yul\":3021:3095   */\n      sub\n        /* \"#utility.yul\":3018:3019   */\n      dup3\n        /* \"#utility.yul\":3015:3096   */\n      gt\n        /* \"#utility.yul\":3012:3119   */\n      iszero\n      tag_115\n      jumpi\n        /* \"#utility.yul\":3099:3117   */\n      tag_116\n      tag_73\n      jump\t// in\n    tag_116:\n        /* \"#utility.yul\":3012:3119   */\n    tag_115:\n        /* \"#utility.yul\":3143:3144   */\n      dup3\n        /* \"#utility.yul\":3140:3141   */\n      dup3\n        /* \"#utility.yul\":3136:3145   */\n      add\n        /* \"#utility.yul\":3129:3145   */\n      swap1\n      pop\n        /* \"#utility.yul\":2846:3151   */\n      swap3\n      swap2\n      pop\n      pop\n      jump\t// out\n        /* \"#utility.yul\":3157:3348   */\n    tag_48:\n        /* \"#utility.yul\":3197:3201   */\n      0x00\n        /* \"#utility.yul\":3217:3237   */\n      tag_118\n        /* \"#utility.yul\":3235:3236   */\n      dup3\n        /* \"#utility.yul\":3217:3237   */\n      tag_60\n      jump\t// in\n    tag_118:\n        /* \"#utility.yul\":3212:3237   */\n      swap2\n      pop\n        /* \"#utility.yul\":3251:3271   */\n      tag_119\n        /* \"#utility.yul\":3269:3270   */\n      dup4\n        /* \"#utility.yul\":3251:3271   */\n      tag_60\n      jump\t// in\n    tag_119:\n        /* \"#utility.yul\":3246:3271   */\n      swap3\n      pop\n        /* \"#utility.yul\":3290:3291   */\n      dup3\n        /* \"#utility.yul\":3287:3288   */\n      dup3\n        /* \"#utility.yul\":3284:3292   */\n      lt\n        /* \"#utility.yul\":3281:3315   */\n      iszero\n      tag_120\n      jumpi\n        /* \"#utility.yul\":3295:3313   */\n      tag_121\n      tag_73\n      jump\t// in\n    tag_121:\n        /* \"#utility.yul\":3281:3315   */\n    tag_120:\n        /* \"#utility.yul\":3340:3341   */\n      dup3\n        /* \"#utility.yul\":3337:3338   */\n      dup3\n        /* \"#utility.yul\":3333:3342   */\n      sub\n        /* \"#utility.yul\":3325:3342   */\n      swap1\n      pop\n        /* \"#utility.yul\":3157:3348   */\n      swap3\n      swap2\n      pop\n      pop\n      jump\t// out\n        /* \"#utility.yul\":3354:3702   */\n    tag_50:\n        /* \"#utility.yul\":3394:3401   */\n      0x00\n        /* \"#utility.yul\":3417:3437   */\n      tag_123\n        /* \"#utility.yul\":3435:3436   */\n      dup3\n        /* \"#utility.yul\":3417:3437   */\n      tag_60\n      jump\t// in\n    tag_123:\n        /* \"#utility.yul\":3412:3437   */\n      swap2\n      pop\n        /* \"#utility.yul\":3451:3471   */\n      tag_124\n        /* \"#utility.yul\":3469:3470   */\n      dup4\n        /* \"#utility.yul\":3451:3471   */\n      tag_60\n      jump\t// in\n    tag_124:\n        /* \"#utility.yul\":3446:3471   */\n      swap3\n      pop\n        /* \"#utility.yul\":3639:3640   */\n      dup2\n        /* \"#utility.yul\":3571:3637   */\n      0xffffffffffffffffffffffffffffffffffffffffffffffffffffffffffffffff\n        /* \"#utility.yul\":3567:3641   */\n      div\n        /* \"#utility.yul\":3564:3565   */\n      dup4\n        /* \"#utility.yul\":3561:3642   */\n      gt\n        /* \"#utility.yul\":3556:3557   */\n      dup3\n        /* \"#utility.yul\":3549:3558   */\n      iszero\n        /* \"#utility.yul\":3542:3559   */\n      iszero\n        /* \"#utility.yul\":3538:3643   */\n      and\n        /* \"#utility.yul\":3535:3666   */\n      iszero\n      tag_125\n      jumpi\n        /* \"#utility.yul\":3646:3664   */\n      tag_126\n      tag_73\n      jump\t// in\n    tag_126:\n        /* \"#utility.yul\":3535:3666   */\n    tag_125:\n        /* \"#utility.yul\":3694:3695   */\n      dup3\n        /* \"#utility.yul\":3691:3692   */\n      dup3\n        /* \"#utility.yul\":3687:3696   */\n      mul\n        /* \"#utility.yul\":3676:3696   */\n      swap1\n      pop\n        /* \"#utility.yul\":3354:3702   */\n      swap3\n      swap2\n      pop\n      pop\n      jump\t// out\n        /* \"#utility.yul\":3708:3888   */\n    tag_74:\n        /* \"#utility.yul\":3756:3833   */\n      0x4e487b7100000000000000000000000000000000000000000000000000000000\n        /* \"#utility.yul\":3753:3754   */\n      0x00\n        /* \"#utility.yul\":3746:3834   */\n      mstore\n        /* \"#utility.yul\":3853:3857   */\n      0x12\n        /* \"#utility.yul\":3850:3851   */\n      0x04\n        /* \"#utility.yul\":3843:3858   */\n      mstore\n        /* \"#utility.yul\":3877:3881   */\n      0x24\n        /* \"#utility.yul\":3874:3875   */\n      0x00\n        /* \"#utility.yul\":3867:3882   */\n      revert\n        /* \"#utility.yul\":3894:4079   */\n    tag_52:\n        /* \"#utility.yul\":3934:3935   */\n      0x00\n        /* \"#utility.yul\":3951:3971   */\n      tag_129\n        /* \"#utility.yul\":3969:3970   */\n      dup3\n        /* \"#utility.yul\":3951:3971   */\n      tag_60\n      jump\t// in\n    tag_129:\n        /* \"#utility.yul\":3946:3971   */\n      swap2\n      pop\n        /* \"#utility.yul\":3985:4005   */\n      tag_130\n        /* \"#utility.yul\":4003:4004   */\n      dup4\n        /* \"#utility.yul\":3985:4005   */\n      tag_60\n      jump\t// in\n    tag_130:\n        /* \"#utility.yul\":3980:4005   */\n      swap3\n      pop\n        /* \"#utility.yul\":4024:4025   */\n      dup3\n        /* \"#utility.yul\":4014:4049   */\n      tag_131\n      jumpi\n        /* \"#utility.yul\":4029:4047   */\n      tag_132\n      tag_74\n      jump\t// in\n    tag_132:\n        /* \"#utility.yul\":4014:4049   */\n    tag_131:\n        /* \"#utility.yul\":4071:4072   */\n      dup3\n        /* \"#utility.yul\":4068:4069   */\n      dup3\n        /* \"#utility.yul\":4064:4073   */\n      div\n        /* \"#utility.yul\":4059:4073   */\n      swap1\n      pop\n        /* \"#utility.yul\":3894:4079   */\n      swap3\n      swap2\n      pop\n      pop\n      jump\t// out\n        /* \"#utility.yul\":4085:4187   */\n    tag_75:\n        /* \"#utility.yul\":4127:4135   */\n      0x00\n        /* \"#utility.yul\":4174:4179   */\n      dup2\n        /* \"#utility.yul\":4171:4172   */\n      0x01\n        /* \"#utility.yul\":4167:4180   */\n      shr\n        /* \"#utility.yul\":4146:4180   */\n      swap1\n      pop\n        /* \"#utility.yul\":4085:4187   */\n      swap2\n      swap1\n      pop\n      jump\t// out\n        /* \"#utility.yul\":4193:5041   */\n    tag_76:\n        /* \"#utility.yul\":4254:4259   */\n      0x00\n        /* \"#utility.yul\":4261:4265   */\n      dup1\n        /* \"#utility.yul\":4285:4291   */\n      dup3\n        /* \"#utility.yul\":4276:4291   */\n      swap2\n      pop\n        /* \"#utility.yul\":4309:4314   */\n      dup4\n        /* \"#utility.yul\":4300:4314   */\n      swap1\n      pop\n        /* \"#utility.yul\":4323:5035   */\n    tag_135:\n        /* \"#utility.yul\":4344:4345   */\n      0x01\n        /* \"#utility.yul\":4334:4342   */\n      dup6\n        /* \"#utility.yul\":4331:4346   */\n      gt\n        /* \"#utility.yul\":4323:5035   */\n      iszero\n      tag_137\n      jumpi\n        /* \"#utility.yul\":4439:4443   */\n      dup1\n        /* \"#utility.yul\":4434:4437   */\n      dup7\n        /* \"#utility.yul\":4430:4444   */\n      div\n        /* \"#utility.yul\":4424:4428   */\n      dup2\n        /* \"#utility.yul\":4421:4445   */\n      gt\n        /* \"#utility.yul\":4418:4468   */\n      iszero\n      tag_138\n      jumpi\n        /* \"#utility.yul\":4448:4466   */\n      tag_139\n      tag_73\n      jump\t// in\n    tag_139:\n        /* \"#utility.yul\":4418:4468   */\n    tag_138:\n        /* \"#utility.yul\":4498:4499   */\n      0x01\n        /* \"#utility.yul\":4488:4496   */\n      dup6\n        /* \"#utility.yul\":4484:4500   */\n      and\n        /* \"#utility.yul\":4481:4932   */\n      iszero\n      tag_140\n      jumpi\n        /* \"#utility.yul\":4913:4917   */\n      dup1\n        /* \"#utility.yul\":4906:4911   */\n      dup3\n        /* \"#utility.yul\":4902:4918   */\n      mul\n        /* \"#utility.yul\":4893:4918   */\n      swap2\n      pop\n        /* \"#utility.yul\":4481:4932   */\n    tag_140:\n        /* \"#utility.yul\":4963:4967   */\n      dup1\n        /* \"#utility.yul\":4957:4961   */\n      dup2\n        /* \"#utility.yul\":4953:4968   */\n      mul\n        /* \"#utility.yul\":4945:4968   */\n      swap1\n      pop\n        /* \"#utility.yul\":4993:5025   */\n      tag_141\n        /* \"#utility.yul\":5016:5024   */\n      dup6\n        /* \"#utility.yul\":4993:5025   */\n      tag_75\n      jump\t// in\n    tag_141:\n        /* \"#utility.yul\":4981:5025   */\n      swap5\n      pop\n        /* \"#utility.yul\":4323:5035   */\n      jump(tag_135)\n    tag_137:\n        /* \"#utility.yul\":4193:5041   */\n      swap5\n      pop\n      swap5\n      swap3\n      pop\n      pop\n      pop\n      jump\t// out\n        /* \"#utility.yul\":5047:6120   */\n    tag_77:\n        /* \"#utility.yul\":5101:5106   */\n      0x00\n        /* \"#utility.yul\":5292:5300   */\n      dup3\n        /* \"#utility.yul\":5282:5322   */\n      tag_143\n      jumpi\n        /* \"#utility.yul\":5313:5314   */\n      0x01\n        /* \"#utility.yul\":5304:5314   */\n      swap1\n      pop\n        /* \"#utility.yul\":5315:5320   */\n      jump(tag_142)\n        /* \"#utility.yul\":5282:5322   */\n    tag_143:\n        /* \"#utility.yul\":5341:5345   */\n      dup2\n        /* \"#utility.yul\":5331:5367   */\n      tag_144\n      jumpi\n        /* \"#utility.yul\":5358:5359   */\n      0x00\n        /* \"#utility.yul\":5349:5359   */\n      swap1\n      pop\n        /* \"#utility.yul\":5360:5365   */\n      jump(tag_142)\n        /* \"#utility.yul\":5331:5367   */\n    tag_144:\n        /* \"#utility.yul\":5427:5431   */\n      dup2\n        /* \"#utility.yul\":5475:5476   */\n      0x01\n        /* \"#utility.yul\":5470:5497   */\n      dup2\n      eq\n      tag_146\n      jumpi\n        /* \"#utility.yul\":5511:5512   */\n      0x02\n        /* \"#utility.yul\":5506:5697   */\n      dup2\n      eq\n      tag_147\n      jumpi\n        /* \"#utility.yul\":5420:5697   */\n      jump(tag_145)\n        /* \"#utility.yul\":5470:5497   */\n    tag_146:\n        /* \"#utility.yul\":5488:5489   */\n      0x01\n        /* \"#utility.yul\":5479:5489   */\n      swap2\n      pop\n        /* \"#utility.yul\":5490:5495   */\n      pop\n      jump(tag_142)\n        /* \"#utility.yul\":5506:5697   */\n    tag_147:\n        /* \"#utility.yul\":5551:5554   */\n      0xff\n        /* \"#utility.yul\":5541:5549   */\n      dup5\n        /* \"#utility.yul\":5538:5555   */\n      gt\n        /* \"#utility.yul\":5535:5578   */\n      iszero\n      tag_148\n      jumpi\n        /* \"#utility.yul\":5558:5576   */\n      tag_149\n      tag_73\n      jump\t// in\n    tag_149:\n        /* \"#utility.yul\":5535:5578   */\n    tag_148:\n        /* \"#utility.yul\":5607:5615   */\n      dup4\n        /* \"#utility.yul\":5604:5605   */\n      0x02\n        /* \"#utility.yul\":5600:5616   */\n      exp\n        /* \"#utility.yul\":5591:5616   */\n      swap2\n      pop\n        /* \"#utility.yul\":5642:5645   */\n      dup5\n        /* \"#utility.yul\":5635:5640   */\n      dup3\n        /* \"#utility.yul\":5632:5646   */\n      gt\n        /* \"#utility.yul\":5629:5669   */\n      iszero\n      tag_150\n      jumpi\n        /* \"#utility.yul\":5649:5667   */\n      tag_151\n      tag_73\n      jump\t// in\n    tag_151:\n        /* \"#utility.yul\":5629:5669   */\n    tag_150:\n        /* \"#utility.yul\":5682:5687   */\n      pop\n      jump(tag_142)\n        /* \"#utility.yul\":5420:5697   */\n    tag_145:\n      pop\n        /* \"#utility.yul\":5806:5808   */\n      0x20\n        /* \"#utility.yul\":5796:5804   */\n      dup4\n        /* \"#utility.yul\":5793:5809   */\n      lt\n        /* \"#utility.yul\":5787:5790   */\n      0x0133\n        /* \"#utility.yul\":5781:5785   */\n      dup4\n        /* \"#utility.yul\":5778:5791   */\n      lt\n        /* \"#utility.yul\":5774:5810   */\n      and\n        /* \"#utility.yul\":5756:5758   */\n      0x4e\n        /* \"#utility.yul\":5746:5754   */\n      dup5\n        /* \"#utility.yul\":5743:5759   */\n      lt\n        /* \"#utility.yul\":5738:5740   */\n      0x0b\n        /* \"#utility.yul\":5732:5736   */\n      dup5\n        /* \"#utility.yul\":5729:5741   */\n      lt\n        /* \"#utility.yul\":5725:5760   */\n      and\n        /* \"#utility.yul\":5709:5820   */\n      or\n        /* \"#utility.yul\":5706:5952   */\n      iszero\n      tag_152\n      jumpi\n        /* \"#utility.yul\":5862:5870   */\n      dup3\n        /* \"#utility.yul\":5856:5860   */\n      dup3\n        /* \"#utility.yul\":5852:5871   */\n      exp\n        /* \"#utility.yul\":5843:5871   */\n      swap1\n      pop\n        /* \"#utility.yul\":5897:5900   */\n      dup4\n        /* \"#utility.yul\":5890:5895   */\n      dup2\n        /* \"#utility.yul\":5887:5901   */\n      gt\n        /* \"#utility.yul\":5884:5924   */\n      iszero\n      tag_153\n      jumpi\n        /* \"#utility.yul\":5904:5922   */\n      tag_154\n      tag_73\n      jump\t// in\n    tag_154:\n        /* \"#utility.yul\":5884:5924   */\n    tag_153:\n        /* \"#utility.yul\":5937:5942   */\n      jump(tag_142)\n        /* \"#utility.yul\":5706:5952   */\n    tag_152:\n        /* \"#utility.yul\":5977:6019   */\n      tag_155\n        /* \"#utility.yul\":6015:6018   */\n      dup5\n        /* \"#utility.yul\":6005:6013   */\n      dup5\n        /* \"#utility.yul\":5999:6003   */\n      dup5\n        /* \"#utility.yul\":5996:5997   */\n      0x01\n        /* \"#utility.yul\":5977:6019   */\n      tag_76\n      jump\t// in\n    tag_155:\n        /* \"#utility.yul\":5962:6019   */\n      swap3\n      pop\n      swap1\n      pop\n        /* \"#utility.yul\":6051:6055   */\n      dup2\n        /* \"#utility.yul\":6046:6049   */\n      dup5\n        /* \"#utility.yul\":6042:6056   */\n      div\n        /* \"#utility.yul\":6035:6040   */\n      dup2\n        /* \"#utility.yul\":6032:6057   */\n      gt\n        /* \"#utility.yul\":6029:6080   */\n      iszero\n      tag_156\n      jumpi\n        /* \"#utility.yul\":6060:6078   */\n      tag_157\n      tag_73\n      jump\t// in\n    tag_157:\n        /* \"#utility.yul\":6029:6080   */\n    tag_156:\n        /* \"#utility.yul\":6109:6113   */\n      dup2\n        /* \"#utility.yul\":6102:6107   */\n      dup2\n        /* \"#utility.yul\":6098:6114   */\n      mul\n        /* \"#utility.yul\":6089:6114   */\n      swap1\n      pop\n        /* \"#utility.yul\":5047:6120   */\n    tag_142:\n      swap4\n      swap3\n      pop\n      pop\n      pop\n      jump\t// out\n        /* \"#utility.yul\":6126:6407   */\n    tag_54:\n        /* \"#utility.yul\":6184:6189   */\n      0x00\n        /* \"#utility.yul\":6208:6231   */\n      tag_159\n        /* \"#utility.yul\":6226:6230   */\n      dup3\n        /* \"#utility.yul\":6208:6231   */\n      tag_60\n      jump\t// in\n    tag_159:\n        /* \"#utility.yul\":6200:6231   */\n      swap2\n      pop\n        /* \"#utility.yul\":6252:6277   */\n      tag_160\n        /* \"#utility.yul\":6268:6276   */\n      dup4\n        /* \"#utility.yul\":6252:6277   */\n      tag_64\n      jump\t// in\n    tag_160:\n        /* \"#utility.yul\":6240:6277   */\n      swap3\n      pop\n        /* \"#utility.yul\":6296:6400   */\n      tag_161\n        /* \"#utility.yul\":6333:6399   */\n      0xffffffffffffffffffffffffffffffffffffffffffffffffffffffffffffffff\n        /* \"#utility.yul\":6323:6331   */\n      dup5\n        /* \"#utility.yul\":6317:6321   */\n      dup5\n        /* \"#utility.yul\":6296:6400   */\n      tag_77\n      jump\t// in\n    tag_161:\n        /* \"#utility.yul\":6287:6400   */\n      swap1\n      pop\n        /* \"#utility.yul\":6126:6407   */\n      swap3\n      swap2\n      pop\n      pop\n      jump\t// out\n        /* \"#utility.yul\":6413:6589   */\n    tag_56:\n        /* \"#utility.yul\":6445:6446   */\n      0x00\n        /* \"#utility.yul\":6462:6482   */\n      tag_163\n        /* \"#utility.yul\":6480:6481   */\n      dup3\n        /* \"#utility.yul\":6462:6482   */\n      tag_60\n      jump\t// in\n    tag_163:\n        /* \"#utility.yul\":6457:6482   */\n      swap2\n      pop\n        /* \"#utility.yul\":6496:6516   */\n      tag_164\n        /* \"#utility.yul\":6514:6515   */\n      dup4\n        /* \"#utility.yul\":6496:6516   */\n      tag_60\n      jump\t// in\n    tag_164:\n        /* \"#utility.yul\":6491:6516   */\n      swap3\n      pop\n        /* \"#utility.yul\":6535:6536   */\n      dup3\n        /* \"#utility.yul\":6525:6560   */\n      tag_165\n      jumpi\n        /* \"#utility.yul\":6540:6558   */\n      tag_166\n      tag_74\n      jump\t// in\n    tag_166:\n        /* \"#utility.yul\":6525:6560   */\n    tag_165:\n        /* \"#utility.yul\":6581:6582   */\n      dup3\n        /* \"#utility.yul\":6578:6579   */\n      dup3\n        /* \"#utility.yul\":6574:6583   */\n      mod\n        /* \"#utility.yul\":6569:6583   */\n      swap1\n      pop\n        /* \"#utility.yul\":6413:6589   */\n      swap3\n      swap2\n      pop\n      pop\n      jump\t// out\n        /* \"#utility.yul\":6595:6823   */\n    tag_58:\n        /* \"#utility.yul\":6630:6633   */\n      0x00\n        /* \"#utility.yul\":6653:6676   */\n      tag_168\n        /* \"#utility.yul\":6670:6675   */\n      dup3\n        /* \"#utility.yul\":6653:6676   */\n      tag_62\n      jump\t// in\n    tag_168:\n        /* \"#utility.yul\":6644:6676   */\n      swap2\n      pop\n        /* \"#utility.yul\":6698:6764   */\n      0x8000000000000000000000000000000000000000000000000000000000000000\n        /* \"#utility.yul\":6691:6696   */\n      dup3\n        /* \"#utility.yul\":6688:6765   */\n      sub\n        /* \"#utility.yul\":6685:6788   */\n      tag_169\n      jumpi\n        /* \"#utility.yul\":6768:6786   */\n      tag_170\n      tag_73\n      jump\t// in\n    tag_170:\n        /* \"#utility.yul\":6685:6788   */\n    tag_169:\n        /* \"#utility.yul\":6811:6816   */\n      dup2\n        /* \"#utility.yul\":6808:6809   */\n      0x00\n        /* \"#utility.yul\":6804:6817   */\n      sub\n        /* \"#utility.yul\":6797:6817   */\n      swap1\n      pop\n        /* \"#utility.yul\":6595:6823   */\n      swap2\n      swap1\n      pop\n      jump\t// out\n\n    auxdata: 0xa2646970667358221220f30a2c70c0aa3f2db76508365015cb78063d4520ac8b440106141e746b222cfd64736f6c634300080f0033\n}\n",
				"bytecode": {
					"linkReferences": {},
					"object": "608060405260fe6000806101000a81548160ff021916908360ff16021790555060056003556002600460006101000a81548160ff021916908360ff1602179055507ffffffffffffffffffffffffffffffffffffffffffffffffffffffffffffffffb6005557fffffffffffffffffffffffffffffffffffffffffffffffffffffffffffffffff600660006101000a81548160ff021916908360000b60ff1602179055503480156100ae57600080fd5b50610741806100be6000396000f3fe608060405234801561001057600080fd5b50600436106100935760003560e01c80636ac5db19116100665780636ac5db19146100fc5780636e92c39e1461011a578063a9bf563314610138578063d09de08a14610154578063f88979451461015e57610093565b806301725a0b1461009857806306540f7e146100a25780632cb777a6146100c05780633fa4f245146100de575b600080fd5b6100a061017c565b005b6100aa610193565b6040516100b79190610286565b60405180910390f35b6100c8610199565b6040516100d591906102ba565b60405180910390f35b6100e661019f565b6040516100f391906102f1565b60405180910390f35b6101046101b0565b6040516101119190610286565b60405180910390f35b6101226101b6565b60405161012f9190610328565b60405180910390f35b610152600480360381019061014d9190610374565b6101c9565b005b61015c610234565b005b610166610267565b6040516101739190610286565b60405180910390f35b600060ff1660018190555060ff8016600281905550565b60035481565b60055481565b60008054906101000a900460ff1681565b60025481565b600660009054906101000a900460000b81565b6000602a90506001816101dc91906103d0565b506001816101ea9190610426565b506002816101f8919061045a565b5060028161020691906104e3565b506003816102149190610647565b506003816102229190610692565b5060055461022f906106c3565b505050565b60008081819054906101000a900460ff168092919060010191906101000a81548160ff021916908360ff16021790555050565b60015481565b6000819050919050565b6102808161026d565b82525050565b600060208201905061029b6000830184610277565b92915050565b6000819050919050565b6102b4816102a1565b82525050565b60006020820190506102cf60008301846102ab565b92915050565b600060ff82169050919050565b6102eb816102d5565b82525050565b600060208201905061030660008301846102e2565b92915050565b60008160000b9050919050565b6103228161030c565b82525050565b600060208201905061033d6000830184610319565b92915050565b600080fd5b6103518161026d565b811461035c57600080fd5b50565b60008135905061036e81610348565b92915050565b60006020828403121561038a57610389610343565b5b60006103988482850161035f565b91505092915050565b7f4e487b7100000000000000000000000000000000000000000000000000000000600052601160045260246000fd5b60006103db8261026d565b91506103e68361026d565b9250827fffffffffffffffffffffffffffffffffffffffffffffffffffffffffffffffff0382111561041b5761041a6103a1565b5b828201905092915050565b60006104318261026d565b915061043c8361026d565b92508282101561044f5761044e6103a1565b5b828203905092915050565b60006104658261026d565b91506104708361026d565b9250817fffffffffffffffffffffffffffffffffffffffffffffffffffffffffffffffff04831182151516156104a9576104a86103a1565b5b828202905092915050565b7f4e487b7100000000000000000000000000000000000000000000000000000000600052601260045260246000fd5b60006104ee8261026d565b91506104f98361026d565b925082610509576105086104b4565b5b828204905092915050565b60008160011c9050919050565b6000808291508390505b600185111561056b57808604811115610547576105466103a1565b5b60018516156105565780820291505b808102905061056485610514565b945061052b565b94509492505050565b6000826105845760019050610640565b816105925760009050610640565b81600181146105a857600281146105b2576105e1565b6001915050610640565b60ff8411156105c4576105c36103a1565b5b8360020a9150848211156105db576105da6103a1565b5b50610640565b5060208310610133831016604e8410600b84101617156106165782820a905083811115610611576106106103a1565b5b610640565b6106238484846001610521565b9250905081840481111561063a576106396103a1565b5b81810290505b9392505050565b60006106528261026d565b915061065d836102d5565b925061068a7fffffffffffffffffffffffffffffffffffffffffffffffffffffffffffffffff8484610574565b905092915050565b600061069d8261026d565b91506106a88361026d565b9250826106b8576106b76104b4565b5b828206905092915050565b60006106ce826102a1565b91507f80000000000000000000000000000000000000000000000000000000000000008203610700576106ff6103a1565b5b81600003905091905056fea2646970667358221220f30a2c70c0aa3f2db76508365015cb78063d4520ac8b440106141e746b222cfd64736f6c634300080f0033",
					"opcodes": "PUSH1 0x80 PUSH1 0x40 MSTORE PUSH1 0xFE PUSH1 0x0 DUP1 PUSH2 0x100 EXP DUP2 SLOAD DUP2 PUSH1 0xFF MUL NOT AND SWAP1 DUP4 PUSH1 0xFF AND MUL OR SWAP1 SSTORE POP PUSH1 0x5 PUSH1 0x3 SSTORE PUSH1 0x2 PUSH1 0x4 PUSH1 0x0 PUSH2 0x100 EXP DUP2 SLOAD DUP2 PUSH1 0xFF MUL NOT AND SWAP1 DUP4 PUSH1 0xFF AND MUL OR SWAP1 SSTORE POP PUSH32 0xFFFFFFFFFFFFFFFFFFFFFFFFFFFFFFFFFFFFFFFFFFFFFFFFFFFFFFFFFFFFFFFB PUSH1 0x5 SSTORE PUSH32 0xFFFFFFFFFFFFFFFFFFFFFFFFFFFFFFFFFFFFFFFFFFFFFFFFFFFFFFFFFFFFFFFF PUSH1 0x6 PUSH1 0x0 PUSH2 0x100 EXP DUP2 SLOAD DUP2 PUSH1 0xFF MUL NOT AND SWAP1 DUP4 PUSH1 0x0 SIGNEXTEND PUSH1 0xFF AND MUL OR SWAP1 SSTORE POP CALLVALUE DUP1 ISZERO PUSH2 0xAE JUMPI PUSH1 0x0 DUP1 REVERT JUMPDEST POP PUSH2 0x741 DUP1 PUSH2 0xBE PUSH1 0x0 CODECOPY PUSH1 0x0 RETURN INVALID PUSH1 0x80 PUSH1 0x40 MSTORE CALLVALUE DUP1 ISZERO PUSH2 0x10 JUMPI PUSH1 0x0 DUP1 REVERT JUMPDEST POP PUSH1 0x4 CALLDATASIZE LT PUSH2 0x93 JUMPI PUSH1 0x0 CALLDATALOAD PUSH1 0xE0 SHR DUP1 PUSH4 0x6AC5DB19 GT PUSH2 0x66 JUMPI DUP1 PUSH4 0x6AC5DB19 EQ PUSH2 0xFC JUMPI DUP1 PUSH4 0x6E92C39E EQ PUSH2 0x11A JUMPI DUP1 PUSH4 0xA9BF5633 EQ PUSH2 0x138 JUMPI DUP1 PUSH4 0xD09DE08A EQ PUSH2 0x154 JUMPI DUP1 PUSH4 0xF8897945 EQ PUSH2 0x15E JUMPI PUSH2 0x93 JUMP JUMPDEST DUP1 PUSH4 0x1725A0B EQ PUSH2 0x98 JUMPI DUP1 PUSH4 0x6540F7E EQ PUSH2 0xA2 JUMPI DUP1 PUSH4 0x2CB777A6 EQ PUSH2 0xC0 JUMPI DUP1 PUSH4 0x3FA4F245 EQ PUSH2 0xDE JUMPI JUMPDEST PUSH1 0x0 DUP1 REVERT JUMPDEST PUSH2 0xA0 PUSH2 0x17C JUMP JUMPDEST STOP JUMPDEST PUSH2 0xAA PUSH2 0x193 JUMP JUMPDEST PUSH1 0x40 MLOAD PUSH2 0xB7 SWAP2 SWAP1 PUSH2 0x286 JUMP JUMPDEST PUSH1 0x40 MLOAD DUP1 SWAP2 SUB SWAP1 RETURN JUMPDEST PUSH2 0xC8 PUSH2 0x199 JUMP JUMPDEST PUSH1 0x40 MLOAD PUSH2 0xD5 SWAP2 SWAP1 PUSH2 0x2BA JUMP JUMPDEST PUSH1 0x40 MLOAD DUP1 SWAP2 SUB SWAP1 RETURN JUMPDEST PUSH2 0xE6 PUSH2 0x19F JUMP JUMPDEST PUSH1 0x40 MLOAD PUSH2 0xF3 SWAP2 SWAP1 PUSH2 0x2F1 JUMP JUMPDEST PUSH1 0x40 MLOAD DUP1 SWAP2 SUB SWAP1 RETURN JUMPDEST PUSH2 0x104 PUSH2 0x1B0 JUMP JUMPDEST PUSH1 0x40 MLOAD PUSH2 0x111 SWAP2 SWAP1 PUSH2 0x286 JUMP JUMPDEST PUSH1 0x40 MLOAD DUP1 SWAP2 SUB SWAP1 RETURN JUMPDEST PUSH2 0x122 PUSH2 0x1B6 JUMP JUMPDEST PUSH1 0x40 MLOAD PUSH2 0x12F SWAP2 SWAP1 PUSH2 0x328 JUMP JUMPDEST PUSH1 0x40 MLOAD DUP1 SWAP2 SUB SWAP1 RETURN JUMPDEST PUSH2 0x152 PUSH1 0x4 DUP1 CALLDATASIZE SUB DUP2 ADD SWAP1 PUSH2 0x14D SWAP2 SWAP1 PUSH2 0x374 JUMP JUMPDEST PUSH2 0x1C9 JUMP JUMPDEST STOP JUMPDEST PUSH2 0x15C PUSH2 0x234 JUMP JUMPDEST STOP JUMPDEST PUSH2 0x166 PUSH2 0x267 JUMP JUMPDEST PUSH1 0x40 MLOAD PUSH2 0x173 SWAP2 SWAP1 PUSH2 0x286 JUMP JUMPDEST PUSH1 0x40 MLOAD DUP1 SWAP2 SUB SWAP1 RETURN JUMPDEST PUSH1 0x0 PUSH1 0xFF AND PUSH1 0x1 DUP2 SWAP1 SSTORE POP PUSH1 0xFF DUP1 AND PUSH1 0x2 DUP2 SWAP1 SSTORE POP JUMP JUMPDEST PUSH1 0x3 SLOAD DUP2 JUMP JUMPDEST PUSH1 0x5 SLOAD DUP2 JUMP JUMPDEST PUSH1 0x0 DUP1 SLOAD SWAP1 PUSH2 0x100 EXP SWAP1 DIV PUSH1 0xFF AND DUP2 JUMP JUMPDEST PUSH1 0x2 SLOAD DUP2 JUMP JUMPDEST PUSH1 0x6 PUSH1 0x0 SWAP1 SLOAD SWAP1 PUSH2 0x100 EXP SWAP1 DIV PUSH1 0x0 SIGNEXTEND DUP2 JUMP JUMPDEST PUSH1 0x0 PUSH1 0x2A SWAP1 POP PUSH1 0x1 DUP2 PUSH2 0x1DC SWAP2 SWAP1 PUSH2 0x3D0 JUMP JUMPDEST POP PUSH1 0x1 DUP2 PUSH2 0x1EA SWAP2 SWAP1 PUSH2 0x426 JUMP JUMPDEST POP PUSH1 0x2 DUP2 PUSH2 0x1F8 SWAP2 SWAP1 PUSH2 0x45A JUMP JUMPDEST POP PUSH1 0x2 DUP2 PUSH2 0x206 SWAP2 SWAP1 PUSH2 0x4E3 JUMP JUMPDEST POP PUSH1 0x3 DUP2 PUSH2 0x214 SWAP2 SWAP1 PUSH2 0x647 JUMP JUMPDEST POP PUSH1 0x3 DUP2 PUSH2 0x222 SWAP2 SWAP1 PUSH2 0x692 JUMP JUMPDEST POP PUSH1 0x5 SLOAD PUSH2 0x22F SWAP1 PUSH2 0x6C3 JUMP JUMPDEST POP POP POP JUMP JUMPDEST PUSH1 0x0 DUP1 DUP2 DUP2 SWAP1 SLOAD SWAP1 PUSH2 0x100 EXP SWAP1 DIV PUSH1 0xFF AND DUP1 SWAP3 SWAP2 SWAP1 PUSH1 0x1 ADD SWAP2 SWAP1 PUSH2 0x100 EXP DUP2 SLOAD DUP2 PUSH1 0xFF MUL NOT AND SWAP1 DUP4 PUSH1 0xFF AND MUL OR SWAP1 SSTORE POP POP JUMP JUMPDEST PUSH1 0x1 SLOAD DUP2 JUMP JUMPDEST PUSH1 0x0 DUP2 SWAP1 POP SWAP2 SWAP1 POP JUMP JUMPDEST PUSH2 0x280 DUP2 PUSH2 0x26D JUMP JUMPDEST DUP3 MSTORE POP POP JUMP JUMPDEST PUSH1 0x0 PUSH1 0x20 DUP3 ADD SWAP1 POP PUSH2 0x29B PUSH1 0x0 DUP4 ADD DUP5 PUSH2 0x277 JUMP JUMPDEST SWAP3 SWAP2 POP POP JUMP JUMPDEST PUSH1 0x0 DUP2 SWAP1 POP SWAP2 SWAP1 POP JUMP JUMPDEST PUSH2 0x2B4 DUP2 PUSH2 0x2A1 JUMP JUMPDEST DUP3 MSTORE POP POP JUMP JUMPDEST PUSH1 0x0 PUSH1 0x20 DUP3 ADD SWAP1 POP PUSH2 0x2CF PUSH1 0x0 DUP4 ADD DUP5 PUSH2 0x2AB JUMP JUMPDEST SWAP3 SWAP2 POP POP JUMP JUMPDEST PUSH1 0x0 PUSH1 0xFF DUP3 AND SWAP1 POP SWAP2 SWAP1 POP JUMP JUMPDEST PUSH2 0x2EB DUP2 PUSH2 0x2D5 JUMP JUMPDEST DUP3 MSTORE POP POP JUMP JUMPDEST PUSH1 0x0 PUSH1 0x20 DUP3 ADD SWAP1 POP PUSH2 0x306 PUSH1 0x0 DUP4 ADD DUP5 PUSH2 0x2E2 JUMP JUMPDEST SWAP3 SWAP2 POP POP JUMP JUMPDEST PUSH1 0x0 DUP2 PUSH1 0x0 SIGNEXTEND SWAP1 POP SWAP2 SWAP1 POP JUMP JUMPDEST PUSH2 0x322 DUP2 PUSH2 0x30C JUMP JUMPDEST DUP3 MSTORE POP POP JUMP JUMPDEST PUSH1 0x0 PUSH1 0x20 DUP3 ADD SWAP1 POP PUSH2 0x33D PUSH1 0x0 DUP4 ADD DUP5 PUSH2 0x319 JUMP JUMPDEST SWAP3 SWAP2 POP POP JUMP JUMPDEST PUSH1 0x0 DUP1 REVERT JUMPDEST PUSH2 0x351 DUP2 PUSH2 0x26D JUMP JUMPDEST DUP2 EQ PUSH2 0x35C JUMPI PUSH1 0x0 DUP1 REVERT JUMPDEST POP JUMP JUMPDEST PUSH1 0x0 DUP2 CALLDATALOAD SWAP1 POP PUSH2 0x36E DUP2 PUSH2 0x348 JUMP JUMPDEST SWAP3 SWAP2 POP POP JUMP JUMPDEST PUSH1 0x0 PUSH1 0x20 DUP3 DUP5 SUB SLT ISZERO PUSH2 0x38A JUMPI PUSH2 0x389 PUSH2 0x343 JUMP JUMPDEST JUMPDEST PUSH1 0x0 PUSH2 0x398 DUP5 DUP3 DUP6 ADD PUSH2 0x35F JUMP JUMPDEST SWAP2 POP POP SWAP3 SWAP2 POP POP JUMP JUMPDEST PUSH32 0x4E487B7100000000000000000000000000000000000000000000000000000000 PUSH1 0x0 MSTORE PUSH1 0x11 PUSH1 0x4 MSTORE PUSH1 0x24 PUSH1 0x0 REVERT JUMPDEST PUSH1 0x0 PUSH2 0x3DB DUP3 PUSH2 0x26D JUMP JUMPDEST SWAP2 POP PUSH2 0x3E6 DUP4 PUSH2 0x26D JUMP JUMPDEST SWAP3 POP DUP3 PUSH32 0xFFFFFFFFFFFFFFFFFFFFFFFFFFFFFFFFFFFFFFFFFFFFFFFFFFFFFFFFFFFFFFFF SUB DUP3 GT ISZERO PUSH2 0x41B JUMPI PUSH2 0x41A PUSH2 0x3A1 JUMP JUMPDEST JUMPDEST DUP3 DUP3 ADD SWAP1 POP SWAP3 SWAP2 POP POP JUMP JUMPDEST PUSH1 0x0 PUSH2 0x431 DUP3 PUSH2 0x26D JUMP JUMPDEST SWAP2 POP PUSH2 0x43C DUP4 PUSH2 0x26D JUMP JUMPDEST SWAP3 POP DUP3 DUP3 LT ISZERO PUSH2 0x44F JUMPI PUSH2 0x44E PUSH2 0x3A1 JUMP JUMPDEST JUMPDEST DUP3 DUP3 SUB SWAP1 POP SWAP3 SWAP2 POP POP JUMP JUMPDEST PUSH1 0x0 PUSH2 0x465 DUP3 PUSH2 0x26D JUMP JUMPDEST SWAP2 POP PUSH2 0x470 DUP4 PUSH2 0x26D JUMP JUMPDEST SWAP3 POP DUP2 PUSH32 0xFFFFFFFFFFFFFFFFFFFFFFFFFFFFFFFFFFFFFFFFFFFFFFFFFFFFFFFFFFFFFFFF DIV DUP4 GT DUP3 ISZERO ISZERO AND ISZERO PUSH2 0x4A9 JUMPI PUSH2 0x4A8 PUSH2 0x3A1 JUMP JUMPDEST JUMPDEST DUP3 DUP3 MUL SWAP1 POP SWAP3 SWAP2 POP POP JUMP JUMPDEST PUSH32 0x4E487B7100000000000000000000000000000000000000000000000000000000 PUSH1 0x0 MSTORE PUSH1 0x12 PUSH1 0x4 MSTORE PUSH1 0x24 PUSH1 0x0 REVERT JUMPDEST PUSH1 0x0 PUSH2 0x4EE DUP3 PUSH2 0x26D JUMP JUMPDEST SWAP2 POP PUSH2 0x4F9 DUP4 PUSH2 0x26D JUMP JUMPDEST SWAP3 POP DUP3 PUSH2 0x509 JUMPI PUSH2 0x508 PUSH2 0x4B4 JUMP JUMPDEST JUMPDEST DUP3 DUP3 DIV SWAP1 POP SWAP3 SWAP2 POP POP JUMP JUMPDEST PUSH1 0x0 DUP2 PUSH1 0x1 SHR SWAP1 POP SWAP2 SWAP1 POP JUMP JUMPDEST PUSH1 0x0 DUP1 DUP3 SWAP2 POP DUP4 SWAP1 POP JUMPDEST PUSH1 0x1 DUP6 GT ISZERO PUSH2 0x56B JUMPI DUP1 DUP7 DIV DUP2 GT ISZERO PUSH2 0x547 JUMPI PUSH2 0x546 PUSH2 0x3A1 JUMP JUMPDEST JUMPDEST PUSH1 0x1 DUP6 AND ISZERO PUSH2 0x556 JUMPI DUP1 DUP3 MUL SWAP2 POP JUMPDEST DUP1 DUP2 MUL SWAP1 POP PUSH2 0x564 DUP6 PUSH2 0x514 JUMP JUMPDEST SWAP5 POP PUSH2 0x52B JUMP JUMPDEST SWAP5 POP SWAP5 SWAP3 POP POP POP JUMP JUMPDEST PUSH1 0x0 DUP3 PUSH2 0x584 JUMPI PUSH1 0x1 SWAP1 POP PUSH2 0x640 JUMP JUMPDEST DUP2 PUSH2 0x592 JUMPI PUSH1 0x0 SWAP1 POP PUSH2 0x640 JUMP JUMPDEST DUP2 PUSH1 0x1 DUP2 EQ PUSH2 0x5A8 JUMPI PUSH1 0x2 DUP2 EQ PUSH2 0x5B2 JUMPI PUSH2 0x5E1 JUMP JUMPDEST PUSH1 0x1 SWAP2 POP POP PUSH2 0x640 JUMP JUMPDEST PUSH1 0xFF DUP5 GT ISZERO PUSH2 0x5C4 JUMPI PUSH2 0x5C3 PUSH2 0x3A1 JUMP JUMPDEST JUMPDEST DUP4 PUSH1 0x2 EXP SWAP2 POP DUP5 DUP3 GT ISZERO PUSH2 0x5DB JUMPI PUSH2 0x5DA PUSH2 0x3A1 JUMP JUMPDEST JUMPDEST POP PUSH2 0x640 JUMP JUMPDEST POP PUSH1 0x20 DUP4 LT PUSH2 0x133 DUP4 LT AND PUSH1 0x4E DUP5 LT PUSH1 0xB DUP5 LT AND OR ISZERO PUSH2 0x616 JUMPI DUP3 DUP3 EXP SWAP1 POP DUP4 DUP2 GT ISZERO PUSH2 0x611 JUMPI PUSH2 0x610 PUSH2 0x3A1 JUMP JUMPDEST JUMPDEST PUSH2 0x640 JUMP JUMPDEST PUSH2 0x623 DUP5 DUP5 DUP5 PUSH1 0x1 PUSH2 0x521 JUMP JUMPDEST SWAP3 POP SWAP1 POP DUP2 DUP5 DIV DUP2 GT ISZERO PUSH2 0x63A JUMPI PUSH2 0x639 PUSH2 0x3A1 JUMP JUMPDEST JUMPDEST DUP2 DUP2 MUL SWAP1 POP JUMPDEST SWAP4 SWAP3 POP POP POP JUMP JUMPDEST PUSH1 0x0 PUSH2 0x652 DUP3 PUSH2 0x26D JUMP JUMPDEST SWAP2 POP PUSH2 0x65D DUP4 PUSH2 0x2D5 JUMP JUMPDEST SWAP3 POP PUSH2 0x68A PUSH32 0xFFFFFFFFFFFFFFFFFFFFFFFFFFFFFFFFFFFFFFFFFFFFFFFFFFFFFFFFFFFFFFFF DUP5 DUP5 PUSH2 0x574 JUMP JUMPDEST SWAP1 POP SWAP3 SWAP2 POP POP JUMP JUMPDEST PUSH1 0x0 PUSH2 0x69D DUP3 PUSH2 0x26D JUMP JUMPDEST SWAP2 POP PUSH2 0x6A8 DUP4 PUSH2 0x26D JUMP JUMPDEST SWAP3 POP DUP3 PUSH2 0x6B8 JUMPI PUSH2 0x6B7 PUSH2 0x4B4 JUMP JUMPDEST JUMPDEST DUP3 DUP3 MOD SWAP1 POP SWAP3 SWAP2 POP POP JUMP JUMPDEST PUSH1 0x0 PUSH2 0x6CE DUP3 PUSH2 0x2A1 JUMP JUMPDEST SWAP2 POP PUSH32 0x8000000000000000000000000000000000000000000000000000000000000000 DUP3 SUB PUSH2 0x700 JUMPI PUSH2 0x6FF PUSH2 0x3A1 JUMP JUMPDEST JUMPDEST DUP2 PUSH1 0x0 SUB SWAP1 POP SWAP2 SWAP1 POP JUMP INVALID LOG2 PUSH5 0x6970667358 0x22 SLT KECCAK256 RETURN EXP 0x2C PUSH17 0xC0AA3F2DB76508365015CB78063D4520AC DUP12 DIFFICULTY ADD MOD EQ 0x1E PUSH21 0x6B222CFD64736F6C634300080F0033000000000000 "
				},
				"gasEstimates": {
					"creation": {
						"codeDepositCost": "371400",
						"executionCost": "117432",
						"totalCost": "488832"
					},
					"external": {
						"demo()": "27285",
						"increment()": "26639",
						"max()": "2429",
						"min()": "2517",
						"myFunc(uint256)": "infinite",
						"myInt()": "2474",
						"myInt8()": "2497",
						"myUint()": "2452",
						"value()": "2535"
					}
				},
				"methodIdentifiers": {
					"demo()": "01725a0b",
					"increment()": "d09de08a",
					"max()": "6ac5db19",
					"min()": "f8897945",
					"myFunc(uint256)": "a9bf5633",
					"myInt()": "2cb777a6",
					"myInt8()": "6e92c39e",
					"myUint()": "06540f7e",
					"value()": "3fa4f245"
				}
			},
			"storageLayout": {
				"storage": [
					{
						"astId": 4,
						"contract": "contracts/Integer.sol:Integer",
						"label": "value",
						"offset": 0,
						"slot": "0",
						"type": "t_uint8"
					},
					{
						"astId": 14,
						"contract": "contracts/Integer.sol:Integer",
						"label": "min",
						"offset": 0,
						"slot": "1",
						"type": "t_uint256"
					},
					{
						"astId": 16,
						"contract": "contracts/Integer.sol:Integer",
						"label": "max",
						"offset": 0,
						"slot": "2",
						"type": "t_uint256"
					},
					{
						"astId": 39,
						"contract": "contracts/Integer.sol:Integer",
						"label": "myUint",
						"offset": 0,
						"slot": "3",
						"type": "t_uint256"
					},
					{
						"astId": 79,
						"contract": "contracts/Integer.sol:Integer",
						"label": "myUint8",
						"offset": 0,
						"slot": "4",
						"type": "t_uint8"
					},
					{
						"astId": 83,
						"contract": "contracts/Integer.sol:Integer",
						"label": "myInt",
						"offset": 0,
						"slot": "5",
						"type": "t_int256"
					},
					{
						"astId": 87,
						"contract": "contracts/Integer.sol:Integer",
						"label": "myInt8",
						"offset": 0,
						"slot": "6",
						"type": "t_int8"
					}
				],
				"types": {
					"t_int256": {
						"encoding": "inplace",
						"label": "int256",
						"numberOfBytes": "32"
					},
					"t_int8": {
						"encoding": "inplace",
						"label": "int8",
						"numberOfBytes": "1"
					},
					"t_uint256": {
						"encoding": "inplace",
						"label": "uint256",
						"numberOfBytes": "32"
					},
					"t_uint8": {
						"encoding": "inplace",
						"label": "uint8",
						"numberOfBytes": "1"
					}
				}
			},
			"userdoc": {
				"kind": "user",
				"methods": {},
				"version": 1
			}
		}
	}
}