{
	"contracts/Arr.sol": {
		"Arr": {
			"abi": [
				{
					"inputs": [
						{
							"internalType": "uint256",
							"name": "",
							"type": "uint256"
						},
						{
							"internalType": "uint256",
							"name": "",
							"type": "uint256"
						}
					],
					"name": "arr",
					"outputs": [
						{
							"internalType": "uint256",
							"name": "",
							"type": "uint256"
						}
					],
					"stateMutability": "view",
					"type": "function"
				},
				{
					"inputs": [
						{
							"internalType": "address",
							"name": "",
							"type": "address"
						}
					],
					"name": "balances",
					"outputs": [
						{
							"internalType": "uint256",
							"name": "total",
							"type": "uint256"
						}
					],
					"stateMutability": "view",
					"type": "function"
				},
				{
					"inputs": [],
					"name": "currentStatus",
					"outputs": [
						{
							"internalType": "enum Arr.Status",
							"name": "",
							"type": "uint8"
						}
					],
					"stateMutability": "view",
					"type": "function"
				},
				{
					"inputs": [],
					"name": "delivered",
					"outputs": [],
					"stateMutability": "nonpayable",
					"type": "function"
				},
				{
					"inputs": [
						{
							"internalType": "uint256",
							"name": "",
							"type": "uint256"
						}
					],
					"name": "dynamic",
					"outputs": [
						{
							"internalType": "uint256",
							"name": "",
							"type": "uint256"
						}
					],
					"stateMutability": "view",
					"type": "function"
				},
				{
					"inputs": [],
					"name": "dynamicVar",
					"outputs": [
						{
							"internalType": "bytes",
							"name": "",
							"type": "bytes"
						}
					],
					"stateMutability": "view",
					"type": "function"
				},
				{
					"inputs": [],
					"name": "getByte",
					"outputs": [
						{
							"internalType": "bytes1",
							"name": "",
							"type": "bytes1"
						}
					],
					"stateMutability": "view",
					"type": "function"
				},
				{
					"inputs": [],
					"name": "getBytesLength",
					"outputs": [
						{
							"internalType": "uint256",
							"name": "",
							"type": "uint256"
						}
					],
					"stateMutability": "view",
					"type": "function"
				},
				{
					"inputs": [
						{
							"internalType": "address",
							"name": "_address",
							"type": "address"
						},
						{
							"internalType": "uint256",
							"name": "_index",
							"type": "uint256"
						}
					],
					"name": "getPayment",
					"outputs": [
						{
							"components": [
								{
									"internalType": "uint256",
									"name": "amount",
									"type": "uint256"
								},
								{
									"internalType": "uint256",
									"name": "timestamp",
									"type": "uint256"
								},
								{
									"internalType": "address",
									"name": "from",
									"type": "address"
								},
								{
									"internalType": "string",
									"name": "message",
									"type": "string"
								}
							],
							"internalType": "struct Arr.Payment",
							"name": "",
							"type": "tuple"
						}
					],
					"stateMutability": "view",
					"type": "function"
				},
				{
					"inputs": [
						{
							"internalType": "uint256",
							"name": "",
							"type": "uint256"
						}
					],
					"name": "items",
					"outputs": [
						{
							"internalType": "uint256",
							"name": "",
							"type": "uint256"
						}
					],
					"stateMutability": "view",
					"type": "function"
				},
				{
					"inputs": [],
					"name": "length",
					"outputs": [
						{
							"internalType": "uint256",
							"name": "",
							"type": "uint256"
						}
					],
					"stateMutability": "view",
					"type": "function"
				},
				{
					"inputs": [],
					"name": "myVar",
					"outputs": [
						{
							"internalType": "bytes32",
							"name": "",
							"type": "bytes32"
						}
					],
					"stateMutability": "view",
					"type": "function"
				},
				{
					"inputs": [],
					"name": "pay",
					"outputs": [],
					"stateMutability": "nonpayable",
					"type": "function"
				},
				{
					"inputs": [
						{
							"internalType": "string",
							"name": "message",
							"type": "string"
						}
					],
					"name": "pay",
					"outputs": [],
					"stateMutability": "payable",
					"type": "function"
				},
				{
					"inputs": [],
					"name": "pushArr",
					"outputs": [],
					"stateMutability": "nonpayable",
					"type": "function"
				},
				{
					"inputs": [],
					"name": "received",
					"outputs": [],
					"stateMutability": "nonpayable",
					"type": "function"
				},
				{
					"inputs": [],
					"name": "sampleMemory",
					"outputs": [
						{
							"internalType": "uint256[]",
							"name": "",
							"type": "uint256[]"
						}
					],
					"stateMutability": "view",
					"type": "function"
				}
			],
			"devdoc": {
				"kind": "dev",
				"methods": {},
				"version": 1
			},
			"evm": {
				"assembly": "    /* \"contracts/Arr.sol\":88:3261  contract Arr {... */\n  mstore(0x40, 0x80)\n    /* \"contracts/Arr.sol\":536:569  uint[10] public items = [1, 2, 3] */\n  mload(0x40)\n  dup1\n  0x60\n  add\n  0x40\n  mstore\n  dup1\n    /* \"contracts/Arr.sol\":561:562  1 */\n  0x01\n    /* \"contracts/Arr.sol\":536:569  uint[10] public items = [1, 2, 3] */\n  0xff\n  and\n  dup2\n  mstore\n  0x20\n  add\n    /* \"contracts/Arr.sol\":564:565  2 */\n  0x02\n    /* \"contracts/Arr.sol\":536:569  uint[10] public items = [1, 2, 3] */\n  0xff\n  and\n  dup2\n  mstore\n  0x20\n  add\n    /* \"contracts/Arr.sol\":567:568  3 */\n  0x03\n    /* \"contracts/Arr.sol\":536:569  uint[10] public items = [1, 2, 3] */\n  0xff\n  and\n  dup2\n  mstore\n  pop\n  0x01\n  swap1\n  0x03\n  tag_1\n  swap3\n  swap2\n  swap1\n  tag_2\n  jump\t// in\ntag_1:\n  pop\n    /* \"contracts/Arr.sol\":1713:1756  bytes public dynamicVar = unicode\"тест\" */\n  mload(0x40)\n  dup1\n  0x40\n  add\n  0x40\n  mstore\n  dup1\n  0x08\n  dup2\n  mstore\n  0x20\n  add\n  0xd182d0b5d181d182000000000000000000000000000000000000000000000000\n  dup2\n  mstore\n  pop\n  0x13\n  swap1\n  dup1\n  mload\n  swap1\n  0x20\n  add\n  swap1\n  tag_3\n  swap3\n  swap2\n  swap1\n  tag_4\n  jump\t// in\ntag_3:\n  pop\n    /* \"contracts/Arr.sol\":1896:1925  bytes32 public myVar = \"test\" */\n  sstore(0x14, 0x7465737400000000000000000000000000000000000000000000000000000000)\n    /* \"contracts/Arr.sol\":88:3261  contract Arr {... */\n  callvalue\n  dup1\n  iszero\n  tag_5\n  jumpi\n  0x00\n  dup1\n  revert\ntag_5:\n  pop\n  jump(tag_6)\ntag_2:\n  dup3\n  0x0a\n  dup2\n  add\n  swap3\n  dup3\n  iszero\n  tag_7\n  jumpi\n  swap2\n  0x20\n  mul\n  dup3\n  add\ntag_8:\n  dup3\n  dup2\n  gt\n  iszero\n  tag_9\n  jumpi\n  dup3\n  mload\n  dup3\n  swap1\n  0xff\n  and\n  swap1\n  sstore\n  swap2\n  0x20\n  add\n  swap2\n  swap1\n  0x01\n  add\n  swap1\n  jump(tag_8)\ntag_9:\ntag_7:\n  pop\n  swap1\n  pop\n  tag_10\n  swap2\n  swap1\n  tag_11\n  jump\t// in\ntag_10:\n  pop\n  swap1\n  jump\t// out\ntag_4:\n  dup3\n  dup1\n  sload\n  tag_12\n  swap1\n  tag_13\n  jump\t// in\ntag_12:\n  swap1\n  0x00\n  mstore\n  keccak256(0x00, 0x20)\n  swap1\n  0x1f\n  add\n  0x20\n  swap1\n  div\n  dup2\n  add\n  swap3\n  dup3\n  tag_15\n  jumpi\n  0x00\n  dup6\n  sstore\n  jump(tag_14)\ntag_15:\n  dup3\n  0x1f\n  lt\n  tag_16\n  jumpi\n  dup1\n  mload\n  not(0xff)\n  and\n  dup4\n  dup1\n  add\n  or\n  dup6\n  sstore\n  jump(tag_14)\ntag_16:\n  dup3\n  dup1\n  add\n  0x01\n  add\n  dup6\n  sstore\n  dup3\n  iszero\n  tag_14\n  jumpi\n  swap2\n  dup3\n  add\ntag_17:\n  dup3\n  dup2\n  gt\n  iszero\n  tag_18\n  jumpi\n  dup3\n  mload\n  dup3\n  sstore\n  swap2\n  0x20\n  add\n  swap2\n  swap1\n  0x01\n  add\n  swap1\n  jump(tag_17)\ntag_18:\ntag_14:\n  pop\n  swap1\n  pop\n  tag_19\n  swap2\n  swap1\n  tag_11\n  jump\t// in\ntag_19:\n  pop\n  swap1\n  jump\t// out\ntag_11:\ntag_20:\n  dup1\n  dup3\n  gt\n  iszero\n  tag_21\n  jumpi\n  0x00\n  dup2\n  0x00\n  swap1\n  sstore\n  pop\n  0x01\n  add\n  jump(tag_20)\ntag_21:\n  pop\n  swap1\n  jump\t// out\n    /* \"#utility.yul\":7:327   */\ntag_13:\n    /* \"#utility.yul\":51:57   */\n  0x00\n    /* \"#utility.yul\":88:89   */\n  0x02\n    /* \"#utility.yul\":82:86   */\n  dup3\n    /* \"#utility.yul\":78:90   */\n  div\n    /* \"#utility.yul\":68:90   */\n  swap1\n  pop\n    /* \"#utility.yul\":135:136   */\n  0x01\n    /* \"#utility.yul\":129:133   */\n  dup3\n    /* \"#utility.yul\":125:137   */\n  and\n    /* \"#utility.yul\":156:174   */\n  dup1\n    /* \"#utility.yul\":146:227   */\n  tag_24\n  jumpi\n    /* \"#utility.yul\":212:216   */\n  0x7f\n    /* \"#utility.yul\":204:210   */\n  dup3\n    /* \"#utility.yul\":200:217   */\n  and\n    /* \"#utility.yul\":190:217   */\n  swap2\n  pop\n    /* \"#utility.yul\":146:227   */\ntag_24:\n    /* \"#utility.yul\":274:276   */\n  0x20\n    /* \"#utility.yul\":266:272   */\n  dup3\n    /* \"#utility.yul\":263:277   */\n  lt\n    /* \"#utility.yul\":243:261   */\n  dup2\n    /* \"#utility.yul\":240:278   */\n  eq\n    /* \"#utility.yul\":237:321   */\n  iszero\n  tag_25\n  jumpi\n    /* \"#utility.yul\":293:311   */\n  tag_26\n  tag_27\n  jump\t// in\ntag_26:\n    /* \"#utility.yul\":237:321   */\ntag_25:\n    /* \"#utility.yul\":58:327   */\n  pop\n    /* \"#utility.yul\":7:327   */\n  swap2\n  swap1\n  pop\n  jump\t// out\n    /* \"#utility.yul\":333:513   */\ntag_27:\n    /* \"#utility.yul\":381:458   */\n  0x4e487b7100000000000000000000000000000000000000000000000000000000\n    /* \"#utility.yul\":378:379   */\n  0x00\n    /* \"#utility.yul\":371:459   */\n  mstore\n    /* \"#utility.yul\":478:482   */\n  0x22\n    /* \"#utility.yul\":475:476   */\n  0x04\n    /* \"#utility.yul\":468:483   */\n  mstore\n    /* \"#utility.yul\":502:506   */\n  0x24\n    /* \"#utility.yul\":499:500   */\n  0x00\n    /* \"#utility.yul\":492:507   */\n  revert\n    /* \"contracts/Arr.sol\":88:3261  contract Arr {... */\ntag_6:\n  dataSize(sub_0)\n  dup1\n  dataOffset(sub_0)\n  0x00\n  codecopy\n  0x00\n  return\nstop\n\nsub_0: assembly {\n        /* \"contracts/Arr.sol\":88:3261  contract Arr {... */\n      mstore(0x40, 0x80)\n      jumpi(tag_1, lt(calldatasize, 0x04))\n      shr(0xe0, calldataload(0x00))\n      dup1\n      0x691a82eb\n      gt\n      tag_19\n      jumpi\n      dup1\n      0xbbdfbfba\n      gt\n      tag_20\n      jumpi\n      dup1\n      0xbbdfbfba\n      eq\n      tag_14\n      jumpi\n      dup1\n      0xbfb231d2\n      eq\n      tag_15\n      jumpi\n      dup1\n      0xc6b91540\n      eq\n      tag_16\n      jumpi\n      dup1\n      0xef8a9235\n      eq\n      tag_17\n      jumpi\n      dup1\n      0xf3fd5c4c\n      eq\n      tag_18\n      jumpi\n      jump(tag_1)\n    tag_20:\n      dup1\n      0x691a82eb\n      eq\n      tag_10\n      jumpi\n      dup1\n      0x83a6deb5\n      eq\n      tag_11\n      jumpi\n      dup1\n      0x977a767c\n      eq\n      tag_12\n      jumpi\n      dup1\n      0xa34343c9\n      eq\n      tag_13\n      jumpi\n      jump(tag_1)\n    tag_19:\n      dup1\n      0x2b66d72e\n      gt\n      tag_21\n      jumpi\n      dup1\n      0x2b66d72e\n      eq\n      tag_6\n      jumpi\n      dup1\n      0x41af56ee\n      eq\n      tag_7\n      jumpi\n      dup1\n      0x45d0695f\n      eq\n      tag_8\n      jumpi\n      dup1\n      0x60585358\n      eq\n      tag_9\n      jumpi\n      jump(tag_1)\n    tag_21:\n      dup1\n      0x07da3eae\n      eq\n      tag_2\n      jumpi\n      dup1\n      0x1b9265b8\n      eq\n      tag_3\n      jumpi\n      dup1\n      0x1f7b6d32\n      eq\n      tag_4\n      jumpi\n      dup1\n      0x27e235e3\n      eq\n      tag_5\n      jumpi\n    tag_1:\n      0x00\n      dup1\n      revert\n        /* \"contracts/Arr.sol\":2143:2236  function getBytesLength() public view returns(uint) {... */\n    tag_2:\n      callvalue\n      dup1\n      iszero\n      tag_22\n      jumpi\n      0x00\n      dup1\n      revert\n    tag_22:\n      pop\n      tag_23\n      tag_24\n      jump\t// in\n    tag_23:\n      mload(0x40)\n      tag_25\n      swap2\n      swap1\n      tag_26\n      jump\t// in\n    tag_25:\n      mload(0x40)\n      dup1\n      swap2\n      sub\n      swap1\n      return\n        /* \"contracts/Arr.sol\":288:354  function pay() public {... */\n    tag_3:\n      callvalue\n      dup1\n      iszero\n      tag_27\n      jumpi\n      0x00\n      dup1\n      revert\n    tag_27:\n      pop\n      tag_28\n      tag_29\n      jump\t// in\n    tag_28:\n      stop\n        /* \"contracts/Arr.sol\":874:892  uint public length */\n    tag_4:\n      callvalue\n      dup1\n      iszero\n      tag_30\n      jumpi\n      0x00\n      dup1\n      revert\n    tag_30:\n      pop\n      tag_31\n      tag_32\n      jump\t// in\n    tag_31:\n      mload(0x40)\n      tag_33\n      swap2\n      swap1\n      tag_26\n      jump\t// in\n    tag_33:\n      mload(0x40)\n      dup1\n      swap2\n      sub\n      swap1\n      return\n        /* \"contracts/Arr.sol\":2689:2732  mapping(address => Balance) public balances */\n    tag_5:\n      callvalue\n      dup1\n      iszero\n      tag_34\n      jumpi\n      0x00\n      dup1\n      revert\n    tag_34:\n      pop\n      tag_35\n      0x04\n      dup1\n      calldatasize\n      sub\n      dup2\n      add\n      swap1\n      tag_36\n      swap2\n      swap1\n      tag_37\n      jump\t// in\n    tag_36:\n      tag_38\n      jump\t// in\n    tag_35:\n      mload(0x40)\n      tag_39\n      swap2\n      swap1\n      tag_26\n      jump\t// in\n    tag_39:\n      mload(0x40)\n      dup1\n      swap2\n      sub\n      swap1\n      return\n        /* \"contracts/Arr.sol\":2738:3108  function pay(string memory message) public payable {... */\n    tag_6:\n      tag_40\n      0x04\n      dup1\n      calldatasize\n      sub\n      dup2\n      add\n      swap1\n      tag_41\n      swap2\n      swap1\n      tag_42\n      jump\t// in\n    tag_41:\n      tag_43\n      jump\t// in\n    tag_40:\n      stop\n        /* \"contracts/Arr.sol\":899:1355  function pushArr() public {... */\n    tag_7:\n      callvalue\n      dup1\n      iszero\n      tag_44\n      jumpi\n      0x00\n      dup1\n      revert\n    tag_44:\n      pop\n      tag_45\n      tag_46\n      jump\t// in\n    tag_45:\n      stop\n        /* \"contracts/Arr.sol\":643:664  uint[3][2] public arr */\n    tag_8:\n      callvalue\n      dup1\n      iszero\n      tag_47\n      jumpi\n      0x00\n      dup1\n      revert\n    tag_47:\n      pop\n      tag_48\n      0x04\n      dup1\n      calldatasize\n      sub\n      dup2\n      add\n      swap1\n      tag_49\n      swap2\n      swap1\n      tag_50\n      jump\t// in\n    tag_49:\n      tag_51\n      jump\t// in\n    tag_48:\n      mload(0x40)\n      tag_52\n      swap2\n      swap1\n      tag_26\n      jump\t// in\n    tag_52:\n      mload(0x40)\n      dup1\n      swap2\n      sub\n      swap1\n      return\n        /* \"contracts/Arr.sol\":2241:2414  function getByte() public view returns(bytes1) {... */\n    tag_9:\n      callvalue\n      dup1\n      iszero\n      tag_53\n      jumpi\n      0x00\n      dup1\n      revert\n    tag_53:\n      pop\n      tag_54\n      tag_55\n      jump\t// in\n    tag_54:\n      mload(0x40)\n      tag_56\n      swap2\n      swap1\n      tag_57\n      jump\t// in\n    tag_56:\n      mload(0x40)\n      dup1\n      swap2\n      sub\n      swap1\n      return\n        /* \"contracts/Arr.sol\":788:809  uint[] public dynamic */\n    tag_10:\n      callvalue\n      dup1\n      iszero\n      tag_58\n      jumpi\n      0x00\n      dup1\n      revert\n    tag_58:\n      pop\n      tag_59\n      0x04\n      dup1\n      calldatasize\n      sub\n      dup2\n      add\n      swap1\n      tag_60\n      swap2\n      swap1\n      tag_61\n      jump\t// in\n    tag_60:\n      tag_62\n      jump\t// in\n    tag_59:\n      mload(0x40)\n      tag_63\n      swap2\n      swap1\n      tag_26\n      jump\t// in\n    tag_63:\n      mload(0x40)\n      dup1\n      swap2\n      sub\n      swap1\n      return\n        /* \"contracts/Arr.sol\":441:516  function received() public {... */\n    tag_11:\n      callvalue\n      dup1\n      iszero\n      tag_64\n      jumpi\n      0x00\n      dup1\n      revert\n    tag_64:\n      pop\n      tag_65\n      tag_66\n      jump\t// in\n    tag_65:\n      stop\n        /* \"contracts/Arr.sol\":3113:3259  function getPayment(address _address, uint _index) public view returns(Payment memory) {... */\n    tag_12:\n      callvalue\n      dup1\n      iszero\n      tag_67\n      jumpi\n      0x00\n      dup1\n      revert\n    tag_67:\n      pop\n      tag_68\n      0x04\n      dup1\n      calldatasize\n      sub\n      dup2\n      add\n      swap1\n      tag_69\n      swap2\n      swap1\n      tag_70\n      jump\t// in\n    tag_69:\n      tag_71\n      jump\t// in\n    tag_68:\n      mload(0x40)\n      tag_72\n      swap2\n      swap1\n      tag_73\n      jump\t// in\n    tag_72:\n      mload(0x40)\n      dup1\n      swap2\n      sub\n      swap1\n      return\n        /* \"contracts/Arr.sol\":1365:1694  function sampleMemory() public view returns (uint[] memory) {... */\n    tag_13:\n      callvalue\n      dup1\n      iszero\n      tag_74\n      jumpi\n      0x00\n      dup1\n      revert\n    tag_74:\n      pop\n      tag_75\n      tag_76\n      jump\t// in\n    tag_75:\n      mload(0x40)\n      tag_77\n      swap2\n      swap1\n      tag_78\n      jump\t// in\n    tag_77:\n      mload(0x40)\n      dup1\n      swap2\n      sub\n      swap1\n      return\n        /* \"contracts/Arr.sol\":359:436  function delivered() public {... */\n    tag_14:\n      callvalue\n      dup1\n      iszero\n      tag_79\n      jumpi\n      0x00\n      dup1\n      revert\n    tag_79:\n      pop\n      tag_80\n      tag_81\n      jump\t// in\n    tag_80:\n      stop\n        /* \"contracts/Arr.sol\":536:569  uint[10] public items = [1, 2, 3] */\n    tag_15:\n      callvalue\n      dup1\n      iszero\n      tag_82\n      jumpi\n      0x00\n      dup1\n      revert\n    tag_82:\n      pop\n      tag_83\n      0x04\n      dup1\n      calldatasize\n      sub\n      dup2\n      add\n      swap1\n      tag_84\n      swap2\n      swap1\n      tag_61\n      jump\t// in\n    tag_84:\n      tag_85\n      jump\t// in\n    tag_83:\n      mload(0x40)\n      tag_86\n      swap2\n      swap1\n      tag_26\n      jump\t// in\n    tag_86:\n      mload(0x40)\n      dup1\n      swap2\n      sub\n      swap1\n      return\n        /* \"contracts/Arr.sol\":1896:1925  bytes32 public myVar = \"test\" */\n    tag_16:\n      callvalue\n      dup1\n      iszero\n      tag_87\n      jumpi\n      0x00\n      dup1\n      revert\n    tag_87:\n      pop\n      tag_88\n      tag_89\n      jump\t// in\n    tag_88:\n      mload(0x40)\n      tag_90\n      swap2\n      swap1\n      tag_91\n      jump\t// in\n    tag_90:\n      mload(0x40)\n      dup1\n      swap2\n      sub\n      swap1\n      return\n        /* \"contracts/Arr.sol\":255:282  Status public currentStatus */\n    tag_17:\n      callvalue\n      dup1\n      iszero\n      tag_92\n      jumpi\n      0x00\n      dup1\n      revert\n    tag_92:\n      pop\n      tag_93\n      tag_94\n      jump\t// in\n    tag_93:\n      mload(0x40)\n      tag_95\n      swap2\n      swap1\n      tag_96\n      jump\t// in\n    tag_95:\n      mload(0x40)\n      dup1\n      swap2\n      sub\n      swap1\n      return\n        /* \"contracts/Arr.sol\":1713:1756  bytes public dynamicVar = unicode\"тест\" */\n    tag_18:\n      callvalue\n      dup1\n      iszero\n      tag_97\n      jumpi\n      0x00\n      dup1\n      revert\n    tag_97:\n      pop\n      tag_98\n      tag_99\n      jump\t// in\n    tag_98:\n      mload(0x40)\n      tag_100\n      swap2\n      swap1\n      tag_101\n      jump\t// in\n    tag_100:\n      mload(0x40)\n      dup1\n      swap2\n      sub\n      swap1\n      return\n        /* \"contracts/Arr.sol\":2143:2236  function getBytesLength() public view returns(uint) {... */\n    tag_24:\n        /* \"contracts/Arr.sol\":2189:2193  uint */\n      0x00\n        /* \"contracts/Arr.sol\":2212:2222  dynamicVar */\n      0x13\n        /* \"contracts/Arr.sol\":2212:2229  dynamicVar.length */\n      dup1\n      sload\n      tag_103\n      swap1\n      tag_104\n      jump\t// in\n    tag_103:\n      swap1\n      pop\n        /* \"contracts/Arr.sol\":2205:2229  return dynamicVar.length */\n      swap1\n      pop\n        /* \"contracts/Arr.sol\":2143:2236  function getBytesLength() public view returns(uint) {... */\n      swap1\n      jump\t// out\n        /* \"contracts/Arr.sol\":288:354  function pay() public {... */\n    tag_29:\n        /* \"contracts/Arr.sol\":336:347  Status.Paid */\n      0x00\n        /* \"contracts/Arr.sol\":320:333  currentStatus */\n      dup1\n      0x00\n        /* \"contracts/Arr.sol\":320:347  currentStatus = Status.Paid */\n      0x0100\n      exp\n      dup2\n      sload\n      dup2\n      0xff\n      mul\n      not\n      and\n      swap1\n      dup4\n      0x02\n      dup2\n      gt\n      iszero\n      tag_106\n      jumpi\n      tag_107\n      tag_108\n      jump\t// in\n    tag_107:\n    tag_106:\n      mul\n      or\n      swap1\n      sstore\n      pop\n        /* \"contracts/Arr.sol\":288:354  function pay() public {... */\n      jump\t// out\n        /* \"contracts/Arr.sol\":874:892  uint public length */\n    tag_32:\n      sload(0x12)\n      dup2\n      jump\t// out\n        /* \"contracts/Arr.sol\":2689:2732  mapping(address => Balance) public balances */\n    tag_38:\n      mstore(0x20, 0x15)\n      dup1\n      0x00\n      mstore\n      keccak256(0x00, 0x40)\n      0x00\n      swap2\n      pop\n      swap1\n      pop\n      dup1\n      0x00\n      add\n      sload\n      swap1\n      pop\n      dup2\n      jump\t// out\n        /* \"contracts/Arr.sol\":2738:3108  function pay(string memory message) public payable {... */\n    tag_43:\n        /* \"contracts/Arr.sol\":2799:2814  uint paymentNum */\n      0x00\n        /* \"contracts/Arr.sol\":2817:2825  balances */\n      0x15\n        /* \"contracts/Arr.sol\":2817:2837  balances[msg.sender] */\n      0x00\n        /* \"contracts/Arr.sol\":2826:2836  msg.sender */\n      caller\n        /* \"contracts/Arr.sol\":2817:2837  balances[msg.sender] */\n      0xffffffffffffffffffffffffffffffffffffffff\n      and\n      0xffffffffffffffffffffffffffffffffffffffff\n      and\n      dup2\n      mstore\n      0x20\n      add\n      swap1\n      dup2\n      mstore\n      0x20\n      add\n      0x00\n      keccak256\n        /* \"contracts/Arr.sol\":2817:2843  balances[msg.sender].total */\n      0x00\n      add\n      sload\n        /* \"contracts/Arr.sol\":2799:2843  uint paymentNum = balances[msg.sender].total */\n      swap1\n      pop\n        /* \"contracts/Arr.sol\":2883:2884  1 */\n      0x01\n        /* \"contracts/Arr.sol\":2853:2861  balances */\n      0x15\n        /* \"contracts/Arr.sol\":2853:2873  balances[msg.sender] */\n      0x00\n        /* \"contracts/Arr.sol\":2862:2872  msg.sender */\n      caller\n        /* \"contracts/Arr.sol\":2853:2873  balances[msg.sender] */\n      0xffffffffffffffffffffffffffffffffffffffff\n      and\n      0xffffffffffffffffffffffffffffffffffffffff\n      and\n      dup2\n      mstore\n      0x20\n      add\n      swap1\n      dup2\n      mstore\n      0x20\n      add\n      0x00\n      keccak256\n        /* \"contracts/Arr.sol\":2853:2879  balances[msg.sender].total */\n      0x00\n      add\n      0x00\n        /* \"contracts/Arr.sol\":2853:2884  balances[msg.sender].total += 1 */\n      dup3\n      dup3\n      sload\n      tag_110\n      swap2\n      swap1\n      tag_111\n      jump\t// in\n    tag_110:\n      swap3\n      pop\n      pop\n      dup2\n      swap1\n      sstore\n      pop\n        /* \"contracts/Arr.sol\":2895:2920  Payment memory newPayment */\n      0x00\n        /* \"contracts/Arr.sol\":2923:3037  Payment(... */\n      mload(0x40)\n      dup1\n      0x80\n      add\n      0x40\n      mstore\n      dup1\n        /* \"contracts/Arr.sol\":2944:2953  msg.value */\n      callvalue\n        /* \"contracts/Arr.sol\":2923:3037  Payment(... */\n      dup2\n      mstore\n      0x20\n      add\n        /* \"contracts/Arr.sol\":2967:2982  block.timestamp */\n      timestamp\n        /* \"contracts/Arr.sol\":2923:3037  Payment(... */\n      dup2\n      mstore\n      0x20\n      add\n        /* \"contracts/Arr.sol\":2996:3006  msg.sender */\n      caller\n        /* \"contracts/Arr.sol\":2923:3037  Payment(... */\n      0xffffffffffffffffffffffffffffffffffffffff\n      and\n      dup2\n      mstore\n      0x20\n      add\n        /* \"contracts/Arr.sol\":3020:3027  message */\n      dup5\n        /* \"contracts/Arr.sol\":2923:3037  Payment(... */\n      dup2\n      mstore\n      pop\n        /* \"contracts/Arr.sol\":2895:3037  Payment memory newPayment = Payment(... */\n      swap1\n      pop\n        /* \"contracts/Arr.sol\":3091:3101  newPayment */\n      dup1\n        /* \"contracts/Arr.sol\":3047:3055  balances */\n      0x15\n        /* \"contracts/Arr.sol\":3047:3067  balances[msg.sender] */\n      0x00\n        /* \"contracts/Arr.sol\":3056:3066  msg.sender */\n      caller\n        /* \"contracts/Arr.sol\":3047:3067  balances[msg.sender] */\n      0xffffffffffffffffffffffffffffffffffffffff\n      and\n      0xffffffffffffffffffffffffffffffffffffffff\n      and\n      dup2\n      mstore\n      0x20\n      add\n      swap1\n      dup2\n      mstore\n      0x20\n      add\n      0x00\n      keccak256\n        /* \"contracts/Arr.sol\":3047:3076  balances[msg.sender].payments */\n      0x01\n      add\n        /* \"contracts/Arr.sol\":3047:3088  balances[msg.sender].payments[paymentNum] */\n      0x00\n        /* \"contracts/Arr.sol\":3077:3087  paymentNum */\n      dup5\n        /* \"contracts/Arr.sol\":3047:3088  balances[msg.sender].payments[paymentNum] */\n      dup2\n      mstore\n      0x20\n      add\n      swap1\n      dup2\n      mstore\n      0x20\n      add\n      0x00\n      keccak256\n        /* \"contracts/Arr.sol\":3047:3101  balances[msg.sender].payments[paymentNum] = newPayment */\n      0x00\n      dup3\n      add\n      mload\n      dup2\n      0x00\n      add\n      sstore\n      0x20\n      dup3\n      add\n      mload\n      dup2\n      0x01\n      add\n      sstore\n      0x40\n      dup3\n      add\n      mload\n      dup2\n      0x02\n      add\n      exp(0x0100, 0x00)\n      dup2\n      sload\n      dup2\n      0xffffffffffffffffffffffffffffffffffffffff\n      mul\n      not\n      and\n      swap1\n      dup4\n      0xffffffffffffffffffffffffffffffffffffffff\n      and\n      mul\n      or\n      swap1\n      sstore\n      pop\n      0x60\n      dup3\n      add\n      mload\n      dup2\n      0x03\n      add\n      swap1\n      dup1\n      mload\n      swap1\n      0x20\n      add\n      swap1\n      tag_112\n      swap3\n      swap2\n      swap1\n      tag_113\n      jump\t// in\n    tag_112:\n      pop\n      swap1\n      pop\n      pop\n        /* \"contracts/Arr.sol\":2789:3108  {... */\n      pop\n      pop\n        /* \"contracts/Arr.sol\":2738:3108  function pay(string memory message) public payable {... */\n      pop\n      jump\t// out\n        /* \"contracts/Arr.sol\":899:1355  function pushArr() public {... */\n    tag_46:\n        /* \"contracts/Arr.sol\":946:949  100 */\n      0x64\n        /* \"contracts/Arr.sol\":935:940  items */\n      0x01\n        /* \"contracts/Arr.sol\":941:942  0 */\n      0x00\n        /* \"contracts/Arr.sol\":935:943  items[0] */\n      0x0a\n      dup2\n      lt\n      tag_115\n      jumpi\n      tag_116\n      tag_117\n      jump\t// in\n    tag_116:\n    tag_115:\n      add\n        /* \"contracts/Arr.sol\":935:949  items[0] = 100 */\n      dup2\n      swap1\n      sstore\n      pop\n        /* \"contracts/Arr.sol\":970:973  200 */\n      0xc8\n        /* \"contracts/Arr.sol\":959:964  items */\n      0x01\n        /* \"contracts/Arr.sol\":965:966  5 */\n      0x05\n        /* \"contracts/Arr.sol\":959:967  items[5] */\n      0x0a\n      dup2\n      lt\n      tag_119\n      jumpi\n      tag_120\n      tag_117\n      jump\t// in\n    tag_120:\n    tag_119:\n      add\n        /* \"contracts/Arr.sol\":959:973  items[5] = 200 */\n      dup2\n      swap1\n      sstore\n      pop\n        /* \"contracts/Arr.sol\":1103:1166  arr = [... */\n      mload(0x40)\n      dup1\n      0x40\n      add\n      0x40\n      mstore\n      dup1\n      mload(0x40)\n      dup1\n      0x60\n      add\n      0x40\n      mstore\n      dup1\n        /* \"contracts/Arr.sol\":1124:1125  1 */\n      0x01\n        /* \"contracts/Arr.sol\":1103:1166  arr = [... */\n      0xff\n      and\n      dup2\n      mstore\n      0x20\n      add\n        /* \"contracts/Arr.sol\":1127:1128  2 */\n      0x02\n        /* \"contracts/Arr.sol\":1103:1166  arr = [... */\n      0xff\n      and\n      dup2\n      mstore\n      0x20\n      add\n        /* \"contracts/Arr.sol\":1130:1131  3 */\n      0x03\n        /* \"contracts/Arr.sol\":1103:1166  arr = [... */\n      0xff\n      and\n      dup2\n      mstore\n      pop\n      dup2\n      mstore\n      0x20\n      add\n      mload(0x40)\n      dup1\n      0x60\n      add\n      0x40\n      mstore\n      dup1\n        /* \"contracts/Arr.sol\":1148:1149  4 */\n      0x04\n        /* \"contracts/Arr.sol\":1103:1166  arr = [... */\n      0xff\n      and\n      dup2\n      mstore\n      0x20\n      add\n        /* \"contracts/Arr.sol\":1151:1152  5 */\n      0x05\n        /* \"contracts/Arr.sol\":1103:1166  arr = [... */\n      0xff\n      and\n      dup2\n      mstore\n      0x20\n      add\n        /* \"contracts/Arr.sol\":1154:1155  6 */\n      0x06\n        /* \"contracts/Arr.sol\":1103:1166  arr = [... */\n      0xff\n      and\n      dup2\n      mstore\n      pop\n      dup2\n      mstore\n      pop\n        /* \"contracts/Arr.sol\":1103:1106  arr */\n      0x0b\n        /* \"contracts/Arr.sol\":1103:1166  arr = [... */\n      swap1\n      0x02\n      tag_122\n      swap3\n      swap2\n      swap1\n      tag_123\n      jump\t// in\n    tag_122:\n      pop\n        /* \"contracts/Arr.sol\":1273:1280  dynamic */\n      0x11\n        /* \"contracts/Arr.sol\":1286:1288  10 */\n      0x0a\n        /* \"contracts/Arr.sol\":1273:1289  dynamic.push(10) */\n      swap1\n      dup1\n      0x01\n      dup2\n      sload\n      add\n      dup1\n      dup3\n      sstore\n      dup1\n      swap2\n      pop\n      pop\n      0x01\n      swap1\n      sub\n      swap1\n      0x00\n      mstore\n      keccak256(0x00, 0x20)\n      add\n      0x00\n      swap1\n      swap2\n      swap1\n      swap2\n      swap1\n      swap2\n      pop\n      sstore\n        /* \"contracts/Arr.sol\":1299:1306  dynamic */\n      0x11\n        /* \"contracts/Arr.sol\":1312:1314  30 */\n      0x1e\n        /* \"contracts/Arr.sol\":1299:1315  dynamic.push(30) */\n      swap1\n      dup1\n      0x01\n      dup2\n      sload\n      add\n      dup1\n      dup3\n      sstore\n      dup1\n      swap2\n      pop\n      pop\n      0x01\n      swap1\n      sub\n      swap1\n      0x00\n      mstore\n      keccak256(0x00, 0x20)\n      add\n      0x00\n      swap1\n      swap2\n      swap1\n      swap2\n      swap1\n      swap2\n      pop\n      sstore\n        /* \"contracts/Arr.sol\":1334:1341  dynamic */\n      0x11\n        /* \"contracts/Arr.sol\":1334:1348  dynamic.length */\n      dup1\n      sload\n      swap1\n      pop\n        /* \"contracts/Arr.sol\":1325:1331  length */\n      0x12\n        /* \"contracts/Arr.sol\":1325:1348  length = dynamic.length */\n      dup2\n      swap1\n      sstore\n      pop\n        /* \"contracts/Arr.sol\":899:1355  function pushArr() public {... */\n      jump\t// out\n        /* \"contracts/Arr.sol\":643:664  uint[3][2] public arr */\n    tag_51:\n      0x0b\n      dup3\n      0x02\n      dup2\n      lt\n      tag_126\n      jumpi\n      0x00\n      dup1\n      revert\n    tag_126:\n      0x03\n      mul\n      add\n      dup2\n      0x03\n      dup2\n      lt\n      tag_128\n      jumpi\n      0x00\n      dup1\n      revert\n    tag_128:\n      add\n      0x00\n      swap2\n      pop\n      swap2\n      pop\n      pop\n      sload\n      dup2\n      jump\t// out\n        /* \"contracts/Arr.sol\":2241:2414  function getByte() public view returns(bytes1) {... */\n    tag_55:\n        /* \"contracts/Arr.sol\":2280:2286  bytes1 */\n      0x00\n        /* \"contracts/Arr.sol\":2399:2404  myVar */\n      sload(0x14)\n        /* \"contracts/Arr.sol\":2405:2406  0 */\n      0x00\n        /* \"contracts/Arr.sol\":2399:2407  myVar[0] */\n      0x20\n      dup2\n      lt\n      tag_131\n      jumpi\n      tag_132\n      tag_117\n      jump\t// in\n    tag_132:\n    tag_131:\n      byte\n      0xf8\n      shl\n        /* \"contracts/Arr.sol\":2392:2407  return myVar[0] */\n      swap1\n      pop\n        /* \"contracts/Arr.sol\":2241:2414  function getByte() public view returns(bytes1) {... */\n      swap1\n      jump\t// out\n        /* \"contracts/Arr.sol\":788:809  uint[] public dynamic */\n    tag_62:\n      0x11\n      dup2\n      dup2\n      sload\n      dup2\n      lt\n      tag_133\n      jumpi\n      0x00\n      dup1\n      revert\n    tag_133:\n      swap1\n      0x00\n      mstore\n      keccak256(0x00, 0x20)\n      add\n      0x00\n      swap2\n      pop\n      swap1\n      pop\n      sload\n      dup2\n      jump\t// out\n        /* \"contracts/Arr.sol\":441:516  function received() public {... */\n    tag_66:\n        /* \"contracts/Arr.sol\":494:509  Status.Received */\n      0x02\n        /* \"contracts/Arr.sol\":478:491  currentStatus */\n      0x00\n      dup1\n        /* \"contracts/Arr.sol\":478:509  currentStatus = Status.Received */\n      0x0100\n      exp\n      dup2\n      sload\n      dup2\n      0xff\n      mul\n      not\n      and\n      swap1\n      dup4\n      0x02\n      dup2\n      gt\n      iszero\n      tag_136\n      jumpi\n      tag_137\n      tag_108\n      jump\t// in\n    tag_137:\n    tag_136:\n      mul\n      or\n      swap1\n      sstore\n      pop\n        /* \"contracts/Arr.sol\":441:516  function received() public {... */\n      jump\t// out\n        /* \"contracts/Arr.sol\":3113:3259  function getPayment(address _address, uint _index) public view returns(Payment memory) {... */\n    tag_71:\n        /* \"contracts/Arr.sol\":3184:3198  Payment memory */\n      tag_138\n      tag_139\n      jump\t// in\n    tag_138:\n        /* \"contracts/Arr.sol\":3217:3225  balances */\n      0x15\n        /* \"contracts/Arr.sol\":3217:3235  balances[_address] */\n      0x00\n        /* \"contracts/Arr.sol\":3226:3234  _address */\n      dup5\n        /* \"contracts/Arr.sol\":3217:3235  balances[_address] */\n      0xffffffffffffffffffffffffffffffffffffffff\n      and\n      0xffffffffffffffffffffffffffffffffffffffff\n      and\n      dup2\n      mstore\n      0x20\n      add\n      swap1\n      dup2\n      mstore\n      0x20\n      add\n      0x00\n      keccak256\n        /* \"contracts/Arr.sol\":3217:3244  balances[_address].payments */\n      0x01\n      add\n        /* \"contracts/Arr.sol\":3217:3252  balances[_address].payments[_index] */\n      0x00\n        /* \"contracts/Arr.sol\":3245:3251  _index */\n      dup4\n        /* \"contracts/Arr.sol\":3217:3252  balances[_address].payments[_index] */\n      dup2\n      mstore\n      0x20\n      add\n      swap1\n      dup2\n      mstore\n      0x20\n      add\n      0x00\n      keccak256\n        /* \"contracts/Arr.sol\":3210:3252  return balances[_address].payments[_index] */\n      mload(0x40)\n      dup1\n      0x80\n      add\n      0x40\n      mstore\n      swap1\n      dup2\n      0x00\n      dup3\n      add\n      sload\n      dup2\n      mstore\n      0x20\n      add\n      0x01\n      dup3\n      add\n      sload\n      dup2\n      mstore\n      0x20\n      add\n      0x02\n      dup3\n      add\n      0x00\n      swap1\n      sload\n      swap1\n      0x0100\n      exp\n      swap1\n      div\n      0xffffffffffffffffffffffffffffffffffffffff\n      and\n      0xffffffffffffffffffffffffffffffffffffffff\n      and\n      0xffffffffffffffffffffffffffffffffffffffff\n      and\n      dup2\n      mstore\n      0x20\n      add\n      0x03\n      dup3\n      add\n      dup1\n      sload\n      tag_141\n      swap1\n      tag_104\n      jump\t// in\n    tag_141:\n      dup1\n      0x1f\n      add\n      0x20\n      dup1\n      swap2\n      div\n      mul\n      0x20\n      add\n      mload(0x40)\n      swap1\n      dup2\n      add\n      0x40\n      mstore\n      dup1\n      swap3\n      swap2\n      swap1\n      dup2\n      dup2\n      mstore\n      0x20\n      add\n      dup3\n      dup1\n      sload\n      tag_142\n      swap1\n      tag_104\n      jump\t// in\n    tag_142:\n      dup1\n      iszero\n      tag_143\n      jumpi\n      dup1\n      0x1f\n      lt\n      tag_144\n      jumpi\n      0x0100\n      dup1\n      dup4\n      sload\n      div\n      mul\n      dup4\n      mstore\n      swap2\n      0x20\n      add\n      swap2\n      jump(tag_143)\n    tag_144:\n      dup3\n      add\n      swap2\n      swap1\n      0x00\n      mstore\n      keccak256(0x00, 0x20)\n      swap1\n    tag_145:\n      dup2\n      sload\n      dup2\n      mstore\n      swap1\n      0x01\n      add\n      swap1\n      0x20\n      add\n      dup1\n      dup4\n      gt\n      tag_145\n      jumpi\n      dup3\n      swap1\n      sub\n      0x1f\n      and\n      dup3\n      add\n      swap2\n    tag_143:\n      pop\n      pop\n      pop\n      pop\n      pop\n      dup2\n      mstore\n      pop\n      pop\n      swap1\n      pop\n        /* \"contracts/Arr.sol\":3113:3259  function getPayment(address _address, uint _index) public view returns(Payment memory) {... */\n      swap3\n      swap2\n      pop\n      pop\n      jump\t// out\n        /* \"contracts/Arr.sol\":1365:1694  function sampleMemory() public view returns (uint[] memory) {... */\n    tag_76:\n        /* \"contracts/Arr.sol\":1410:1423  uint[] memory */\n      0x60\n        /* \"contracts/Arr.sol\":1601:1622  uint[] memory tempArr */\n      0x00\n        /* \"contracts/Arr.sol\":1636:1638  10 */\n      0x0a\n        /* \"contracts/Arr.sol\":1625:1639  new uint[](10) */\n      0xffffffffffffffff\n      dup2\n      gt\n      iszero\n      tag_147\n      jumpi\n      tag_148\n      tag_149\n      jump\t// in\n    tag_148:\n    tag_147:\n      mload(0x40)\n      swap1\n      dup1\n      dup3\n      mstore\n      dup1\n      0x20\n      mul\n      0x20\n      add\n      dup3\n      add\n      0x40\n      mstore\n      dup1\n      iszero\n      tag_150\n      jumpi\n      dup2\n      0x20\n      add\n      0x20\n      dup3\n      mul\n      dup1\n      calldatasize\n      dup4\n      calldatacopy\n      dup1\n      dup3\n      add\n      swap2\n      pop\n      pop\n      swap1\n      pop\n    tag_150:\n      pop\n        /* \"contracts/Arr.sol\":1601:1639  uint[] memory tempArr = new uint[](10) */\n      swap1\n      pop\n        /* \"contracts/Arr.sol\":1662:1663  1 */\n      0x01\n        /* \"contracts/Arr.sol\":1649:1656  tempArr */\n      dup2\n        /* \"contracts/Arr.sol\":1657:1658  0 */\n      0x00\n        /* \"contracts/Arr.sol\":1649:1659  tempArr[0] */\n      dup2\n      mload\n      dup2\n      lt\n      tag_151\n      jumpi\n      tag_152\n      tag_117\n      jump\t// in\n    tag_152:\n    tag_151:\n      0x20\n      mul\n      0x20\n      add\n      add\n        /* \"contracts/Arr.sol\":1649:1663  tempArr[0] = 1 */\n      dup2\n      dup2\n      mstore\n      pop\n      pop\n        /* \"contracts/Arr.sol\":1680:1687  tempArr */\n      dup1\n        /* \"contracts/Arr.sol\":1673:1687  return tempArr */\n      swap2\n      pop\n      pop\n        /* \"contracts/Arr.sol\":1365:1694  function sampleMemory() public view returns (uint[] memory) {... */\n      swap1\n      jump\t// out\n        /* \"contracts/Arr.sol\":359:436  function delivered() public {... */\n    tag_81:\n        /* \"contracts/Arr.sol\":413:429  Status.Delivered */\n      0x01\n        /* \"contracts/Arr.sol\":397:410  currentStatus */\n      0x00\n      dup1\n        /* \"contracts/Arr.sol\":397:429  currentStatus = Status.Delivered */\n      0x0100\n      exp\n      dup2\n      sload\n      dup2\n      0xff\n      mul\n      not\n      and\n      swap1\n      dup4\n      0x02\n      dup2\n      gt\n      iszero\n      tag_154\n      jumpi\n      tag_155\n      tag_108\n      jump\t// in\n    tag_155:\n    tag_154:\n      mul\n      or\n      swap1\n      sstore\n      pop\n        /* \"contracts/Arr.sol\":359:436  function delivered() public {... */\n      jump\t// out\n        /* \"contracts/Arr.sol\":536:569  uint[10] public items = [1, 2, 3] */\n    tag_85:\n      0x01\n      dup2\n      0x0a\n      dup2\n      lt\n      tag_156\n      jumpi\n      0x00\n      dup1\n      revert\n    tag_156:\n      add\n      0x00\n      swap2\n      pop\n      swap1\n      pop\n      sload\n      dup2\n      jump\t// out\n        /* \"contracts/Arr.sol\":1896:1925  bytes32 public myVar = \"test\" */\n    tag_89:\n      sload(0x14)\n      dup2\n      jump\t// out\n        /* \"contracts/Arr.sol\":255:282  Status public currentStatus */\n    tag_94:\n      0x00\n      dup1\n      sload\n      swap1\n      0x0100\n      exp\n      swap1\n      div\n      0xff\n      and\n      dup2\n      jump\t// out\n        /* \"contracts/Arr.sol\":1713:1756  bytes public dynamicVar = unicode\"тест\" */\n    tag_99:\n      0x13\n      dup1\n      sload\n      tag_158\n      swap1\n      tag_104\n      jump\t// in\n    tag_158:\n      dup1\n      0x1f\n      add\n      0x20\n      dup1\n      swap2\n      div\n      mul\n      0x20\n      add\n      mload(0x40)\n      swap1\n      dup2\n      add\n      0x40\n      mstore\n      dup1\n      swap3\n      swap2\n      swap1\n      dup2\n      dup2\n      mstore\n      0x20\n      add\n      dup3\n      dup1\n      sload\n      tag_159\n      swap1\n      tag_104\n      jump\t// in\n    tag_159:\n      dup1\n      iszero\n      tag_160\n      jumpi\n      dup1\n      0x1f\n      lt\n      tag_161\n      jumpi\n      0x0100\n      dup1\n      dup4\n      sload\n      div\n      mul\n      dup4\n      mstore\n      swap2\n      0x20\n      add\n      swap2\n      jump(tag_160)\n    tag_161:\n      dup3\n      add\n      swap2\n      swap1\n      0x00\n      mstore\n      keccak256(0x00, 0x20)\n      swap1\n    tag_162:\n      dup2\n      sload\n      dup2\n      mstore\n      swap1\n      0x01\n      add\n      swap1\n      0x20\n      add\n      dup1\n      dup4\n      gt\n      tag_162\n      jumpi\n      dup3\n      swap1\n      sub\n      0x1f\n      and\n      dup3\n      add\n      swap2\n    tag_160:\n      pop\n      pop\n      pop\n      pop\n      pop\n      dup2\n      jump\t// out\n    tag_113:\n      dup3\n      dup1\n      sload\n      tag_163\n      swap1\n      tag_104\n      jump\t// in\n    tag_163:\n      swap1\n      0x00\n      mstore\n      keccak256(0x00, 0x20)\n      swap1\n      0x1f\n      add\n      0x20\n      swap1\n      div\n      dup2\n      add\n      swap3\n      dup3\n      tag_165\n      jumpi\n      0x00\n      dup6\n      sstore\n      jump(tag_164)\n    tag_165:\n      dup3\n      0x1f\n      lt\n      tag_166\n      jumpi\n      dup1\n      mload\n      not(0xff)\n      and\n      dup4\n      dup1\n      add\n      or\n      dup6\n      sstore\n      jump(tag_164)\n    tag_166:\n      dup3\n      dup1\n      add\n      0x01\n      add\n      dup6\n      sstore\n      dup3\n      iszero\n      tag_164\n      jumpi\n      swap2\n      dup3\n      add\n    tag_167:\n      dup3\n      dup2\n      gt\n      iszero\n      tag_168\n      jumpi\n      dup3\n      mload\n      dup3\n      sstore\n      swap2\n      0x20\n      add\n      swap2\n      swap1\n      0x01\n      add\n      swap1\n      jump(tag_167)\n    tag_168:\n    tag_164:\n      pop\n      swap1\n      pop\n      tag_169\n      swap2\n      swap1\n      tag_170\n      jump\t// in\n    tag_169:\n      pop\n      swap1\n      jump\t// out\n    tag_123:\n      dup3\n      mul(0x03, 0x02)\n      dup2\n      add\n      swap3\n      dup3\n      iszero\n      tag_171\n      jumpi\n      swap2\n      0x20\n      mul\n      dup3\n      add\n    tag_172:\n      dup3\n      dup2\n      gt\n      iszero\n      tag_173\n      jumpi\n      dup3\n      mload\n      dup3\n      swap1\n      0x03\n      tag_174\n      swap3\n      swap2\n      swap1\n      tag_175\n      jump\t// in\n    tag_174:\n      pop\n      swap2\n      0x20\n      add\n      swap2\n      swap1\n      0x03\n      add\n      swap1\n      jump(tag_172)\n    tag_173:\n    tag_171:\n      pop\n      swap1\n      pop\n      tag_176\n      swap2\n      swap1\n      tag_177\n      jump\t// in\n    tag_176:\n      pop\n      swap1\n      jump\t// out\n    tag_139:\n      mload(0x40)\n      dup1\n      0x80\n      add\n      0x40\n      mstore\n      dup1\n      0x00\n      dup2\n      mstore\n      0x20\n      add\n      0x00\n      dup2\n      mstore\n      0x20\n      add\n      and(0xffffffffffffffffffffffffffffffffffffffff, 0x00)\n      dup2\n      mstore\n      0x20\n      add\n      0x60\n      dup2\n      mstore\n      pop\n      swap1\n      jump\t// out\n    tag_170:\n    tag_178:\n      dup1\n      dup3\n      gt\n      iszero\n      tag_179\n      jumpi\n      0x00\n      dup2\n      0x00\n      swap1\n      sstore\n      pop\n      0x01\n      add\n      jump(tag_178)\n    tag_179:\n      pop\n      swap1\n      jump\t// out\n    tag_175:\n      dup3\n      0x03\n      dup2\n      add\n      swap3\n      dup3\n      iszero\n      tag_180\n      jumpi\n      swap2\n      0x20\n      mul\n      dup3\n      add\n    tag_181:\n      dup3\n      dup2\n      gt\n      iszero\n      tag_182\n      jumpi\n      dup3\n      mload\n      dup3\n      swap1\n      0xff\n      and\n      swap1\n      sstore\n      swap2\n      0x20\n      add\n      swap2\n      swap1\n      0x01\n      add\n      swap1\n      jump(tag_181)\n    tag_182:\n    tag_180:\n      pop\n      swap1\n      pop\n      tag_183\n      swap2\n      swap1\n      tag_170\n      jump\t// in\n    tag_183:\n      pop\n      swap1\n      jump\t// out\n    tag_177:\n    tag_184:\n      dup1\n      dup3\n      gt\n      iszero\n      tag_185\n      jumpi\n      0x00\n      dup2\n      dup2\n      tag_186\n      swap2\n      swap1\n      tag_187\n      jump\t// in\n    tag_186:\n      pop\n      0x03\n      add\n      jump(tag_184)\n    tag_185:\n      pop\n      swap1\n      jump\t// out\n    tag_187:\n      pop\n      0x00\n      dup2\n      sstore\n      0x01\n      add\n      0x00\n      dup2\n      sstore\n      0x01\n      add\n      0x00\n      swap1\n      sstore\n      jump\t// out\n        /* \"#utility.yul\":7:419   */\n    tag_189:\n        /* \"#utility.yul\":85:90   */\n      0x00\n        /* \"#utility.yul\":110:176   */\n      tag_191\n        /* \"#utility.yul\":126:175   */\n      tag_192\n        /* \"#utility.yul\":168:174   */\n      dup5\n        /* \"#utility.yul\":126:175   */\n      tag_193\n      jump\t// in\n    tag_192:\n        /* \"#utility.yul\":110:176   */\n      tag_194\n      jump\t// in\n    tag_191:\n        /* \"#utility.yul\":101:176   */\n      swap1\n      pop\n        /* \"#utility.yul\":199:205   */\n      dup3\n        /* \"#utility.yul\":192:197   */\n      dup2\n        /* \"#utility.yul\":185:206   */\n      mstore\n        /* \"#utility.yul\":237:241   */\n      0x20\n        /* \"#utility.yul\":230:235   */\n      dup2\n        /* \"#utility.yul\":226:242   */\n      add\n        /* \"#utility.yul\":275:278   */\n      dup5\n        /* \"#utility.yul\":266:272   */\n      dup5\n        /* \"#utility.yul\":261:264   */\n      dup5\n        /* \"#utility.yul\":257:273   */\n      add\n        /* \"#utility.yul\":254:279   */\n      gt\n        /* \"#utility.yul\":251:363   */\n      iszero\n      tag_195\n      jumpi\n        /* \"#utility.yul\":282:361   */\n      tag_196\n      tag_197\n      jump\t// in\n    tag_196:\n        /* \"#utility.yul\":251:363   */\n    tag_195:\n        /* \"#utility.yul\":372:413   */\n      tag_198\n        /* \"#utility.yul\":406:412   */\n      dup5\n        /* \"#utility.yul\":401:404   */\n      dup3\n        /* \"#utility.yul\":396:399   */\n      dup6\n        /* \"#utility.yul\":372:413   */\n      tag_199\n      jump\t// in\n    tag_198:\n        /* \"#utility.yul\":91:419   */\n      pop\n        /* \"#utility.yul\":7:419   */\n      swap4\n      swap3\n      pop\n      pop\n      pop\n      jump\t// out\n        /* \"#utility.yul\":425:564   */\n    tag_200:\n        /* \"#utility.yul\":471:476   */\n      0x00\n        /* \"#utility.yul\":509:515   */\n      dup2\n        /* \"#utility.yul\":496:516   */\n      calldataload\n        /* \"#utility.yul\":487:516   */\n      swap1\n      pop\n        /* \"#utility.yul\":525:558   */\n      tag_202\n        /* \"#utility.yul\":552:557   */\n      dup2\n        /* \"#utility.yul\":525:558   */\n      tag_203\n      jump\t// in\n    tag_202:\n        /* \"#utility.yul\":425:564   */\n      swap3\n      swap2\n      pop\n      pop\n      jump\t// out\n        /* \"#utility.yul\":584:924   */\n    tag_204:\n        /* \"#utility.yul\":640:645   */\n      0x00\n        /* \"#utility.yul\":689:692   */\n      dup3\n        /* \"#utility.yul\":682:686   */\n      0x1f\n        /* \"#utility.yul\":674:680   */\n      dup4\n        /* \"#utility.yul\":670:687   */\n      add\n        /* \"#utility.yul\":666:693   */\n      slt\n        /* \"#utility.yul\":656:778   */\n      tag_206\n      jumpi\n        /* \"#utility.yul\":697:776   */\n      tag_207\n      tag_208\n      jump\t// in\n    tag_207:\n        /* \"#utility.yul\":656:778   */\n    tag_206:\n        /* \"#utility.yul\":814:820   */\n      dup2\n        /* \"#utility.yul\":801:821   */\n      calldataload\n        /* \"#utility.yul\":839:918   */\n      tag_209\n        /* \"#utility.yul\":914:917   */\n      dup5\n        /* \"#utility.yul\":906:912   */\n      dup3\n        /* \"#utility.yul\":899:903   */\n      0x20\n        /* \"#utility.yul\":891:897   */\n      dup7\n        /* \"#utility.yul\":887:904   */\n      add\n        /* \"#utility.yul\":839:918   */\n      tag_189\n      jump\t// in\n    tag_209:\n        /* \"#utility.yul\":830:918   */\n      swap2\n      pop\n        /* \"#utility.yul\":646:924   */\n      pop\n        /* \"#utility.yul\":584:924   */\n      swap3\n      swap2\n      pop\n      pop\n      jump\t// out\n        /* \"#utility.yul\":930:1069   */\n    tag_210:\n        /* \"#utility.yul\":976:981   */\n      0x00\n        /* \"#utility.yul\":1014:1020   */\n      dup2\n        /* \"#utility.yul\":1001:1021   */\n      calldataload\n        /* \"#utility.yul\":992:1021   */\n      swap1\n      pop\n        /* \"#utility.yul\":1030:1063   */\n      tag_212\n        /* \"#utility.yul\":1057:1062   */\n      dup2\n        /* \"#utility.yul\":1030:1063   */\n      tag_213\n      jump\t// in\n    tag_212:\n        /* \"#utility.yul\":930:1069   */\n      swap3\n      swap2\n      pop\n      pop\n      jump\t// out\n        /* \"#utility.yul\":1075:1404   */\n    tag_37:\n        /* \"#utility.yul\":1134:1140   */\n      0x00\n        /* \"#utility.yul\":1183:1185   */\n      0x20\n        /* \"#utility.yul\":1171:1180   */\n      dup3\n        /* \"#utility.yul\":1162:1169   */\n      dup5\n        /* \"#utility.yul\":1158:1181   */\n      sub\n        /* \"#utility.yul\":1154:1186   */\n      slt\n        /* \"#utility.yul\":1151:1270   */\n      iszero\n      tag_215\n      jumpi\n        /* \"#utility.yul\":1189:1268   */\n      tag_216\n      tag_217\n      jump\t// in\n    tag_216:\n        /* \"#utility.yul\":1151:1270   */\n    tag_215:\n        /* \"#utility.yul\":1309:1310   */\n      0x00\n        /* \"#utility.yul\":1334:1387   */\n      tag_218\n        /* \"#utility.yul\":1379:1386   */\n      dup5\n        /* \"#utility.yul\":1370:1376   */\n      dup3\n        /* \"#utility.yul\":1359:1368   */\n      dup6\n        /* \"#utility.yul\":1355:1377   */\n      add\n        /* \"#utility.yul\":1334:1387   */\n      tag_200\n      jump\t// in\n    tag_218:\n        /* \"#utility.yul\":1324:1387   */\n      swap2\n      pop\n        /* \"#utility.yul\":1280:1397   */\n      pop\n        /* \"#utility.yul\":1075:1404   */\n      swap3\n      swap2\n      pop\n      pop\n      jump\t// out\n        /* \"#utility.yul\":1410:1884   */\n    tag_70:\n        /* \"#utility.yul\":1478:1484   */\n      0x00\n        /* \"#utility.yul\":1486:1492   */\n      dup1\n        /* \"#utility.yul\":1535:1537   */\n      0x40\n        /* \"#utility.yul\":1523:1532   */\n      dup4\n        /* \"#utility.yul\":1514:1521   */\n      dup6\n        /* \"#utility.yul\":1510:1533   */\n      sub\n        /* \"#utility.yul\":1506:1538   */\n      slt\n        /* \"#utility.yul\":1503:1622   */\n      iszero\n      tag_220\n      jumpi\n        /* \"#utility.yul\":1541:1620   */\n      tag_221\n      tag_217\n      jump\t// in\n    tag_221:\n        /* \"#utility.yul\":1503:1622   */\n    tag_220:\n        /* \"#utility.yul\":1661:1662   */\n      0x00\n        /* \"#utility.yul\":1686:1739   */\n      tag_222\n        /* \"#utility.yul\":1731:1738   */\n      dup6\n        /* \"#utility.yul\":1722:1728   */\n      dup3\n        /* \"#utility.yul\":1711:1720   */\n      dup7\n        /* \"#utility.yul\":1707:1729   */\n      add\n        /* \"#utility.yul\":1686:1739   */\n      tag_200\n      jump\t// in\n    tag_222:\n        /* \"#utility.yul\":1676:1739   */\n      swap3\n      pop\n        /* \"#utility.yul\":1632:1749   */\n      pop\n        /* \"#utility.yul\":1788:1790   */\n      0x20\n        /* \"#utility.yul\":1814:1867   */\n      tag_223\n        /* \"#utility.yul\":1859:1866   */\n      dup6\n        /* \"#utility.yul\":1850:1856   */\n      dup3\n        /* \"#utility.yul\":1839:1848   */\n      dup7\n        /* \"#utility.yul\":1835:1857   */\n      add\n        /* \"#utility.yul\":1814:1867   */\n      tag_210\n      jump\t// in\n    tag_223:\n        /* \"#utility.yul\":1804:1867   */\n      swap2\n      pop\n        /* \"#utility.yul\":1759:1877   */\n      pop\n        /* \"#utility.yul\":1410:1884   */\n      swap3\n      pop\n      swap3\n      swap1\n      pop\n      jump\t// out\n        /* \"#utility.yul\":1890:2399   */\n    tag_42:\n        /* \"#utility.yul\":1959:1965   */\n      0x00\n        /* \"#utility.yul\":2008:2010   */\n      0x20\n        /* \"#utility.yul\":1996:2005   */\n      dup3\n        /* \"#utility.yul\":1987:1994   */\n      dup5\n        /* \"#utility.yul\":1983:2006   */\n      sub\n        /* \"#utility.yul\":1979:2011   */\n      slt\n        /* \"#utility.yul\":1976:2095   */\n      iszero\n      tag_225\n      jumpi\n        /* \"#utility.yul\":2014:2093   */\n      tag_226\n      tag_217\n      jump\t// in\n    tag_226:\n        /* \"#utility.yul\":1976:2095   */\n    tag_225:\n        /* \"#utility.yul\":2162:2163   */\n      0x00\n        /* \"#utility.yul\":2151:2160   */\n      dup3\n        /* \"#utility.yul\":2147:2164   */\n      add\n        /* \"#utility.yul\":2134:2165   */\n      calldataload\n        /* \"#utility.yul\":2192:2210   */\n      0xffffffffffffffff\n        /* \"#utility.yul\":2184:2190   */\n      dup2\n        /* \"#utility.yul\":2181:2211   */\n      gt\n        /* \"#utility.yul\":2178:2295   */\n      iszero\n      tag_227\n      jumpi\n        /* \"#utility.yul\":2214:2293   */\n      tag_228\n      tag_229\n      jump\t// in\n    tag_228:\n        /* \"#utility.yul\":2178:2295   */\n    tag_227:\n        /* \"#utility.yul\":2319:2382   */\n      tag_230\n        /* \"#utility.yul\":2374:2381   */\n      dup5\n        /* \"#utility.yul\":2365:2371   */\n      dup3\n        /* \"#utility.yul\":2354:2363   */\n      dup6\n        /* \"#utility.yul\":2350:2372   */\n      add\n        /* \"#utility.yul\":2319:2382   */\n      tag_204\n      jump\t// in\n    tag_230:\n        /* \"#utility.yul\":2309:2382   */\n      swap2\n      pop\n        /* \"#utility.yul\":2105:2392   */\n      pop\n        /* \"#utility.yul\":1890:2399   */\n      swap3\n      swap2\n      pop\n      pop\n      jump\t// out\n        /* \"#utility.yul\":2405:2734   */\n    tag_61:\n        /* \"#utility.yul\":2464:2470   */\n      0x00\n        /* \"#utility.yul\":2513:2515   */\n      0x20\n        /* \"#utility.yul\":2501:2510   */\n      dup3\n        /* \"#utility.yul\":2492:2499   */\n      dup5\n        /* \"#utility.yul\":2488:2511   */\n      sub\n        /* \"#utility.yul\":2484:2516   */\n      slt\n        /* \"#utility.yul\":2481:2600   */\n      iszero\n      tag_232\n      jumpi\n        /* \"#utility.yul\":2519:2598   */\n      tag_233\n      tag_217\n      jump\t// in\n    tag_233:\n        /* \"#utility.yul\":2481:2600   */\n    tag_232:\n        /* \"#utility.yul\":2639:2640   */\n      0x00\n        /* \"#utility.yul\":2664:2717   */\n      tag_234\n        /* \"#utility.yul\":2709:2716   */\n      dup5\n        /* \"#utility.yul\":2700:2706   */\n      dup3\n        /* \"#utility.yul\":2689:2698   */\n      dup6\n        /* \"#utility.yul\":2685:2707   */\n      add\n        /* \"#utility.yul\":2664:2717   */\n      tag_210\n      jump\t// in\n    tag_234:\n        /* \"#utility.yul\":2654:2717   */\n      swap2\n      pop\n        /* \"#utility.yul\":2610:2727   */\n      pop\n        /* \"#utility.yul\":2405:2734   */\n      swap3\n      swap2\n      pop\n      pop\n      jump\t// out\n        /* \"#utility.yul\":2740:3214   */\n    tag_50:\n        /* \"#utility.yul\":2808:2814   */\n      0x00\n        /* \"#utility.yul\":2816:2822   */\n      dup1\n        /* \"#utility.yul\":2865:2867   */\n      0x40\n        /* \"#utility.yul\":2853:2862   */\n      dup4\n        /* \"#utility.yul\":2844:2851   */\n      dup6\n        /* \"#utility.yul\":2840:2863   */\n      sub\n        /* \"#utility.yul\":2836:2868   */\n      slt\n        /* \"#utility.yul\":2833:2952   */\n      iszero\n      tag_236\n      jumpi\n        /* \"#utility.yul\":2871:2950   */\n      tag_237\n      tag_217\n      jump\t// in\n    tag_237:\n        /* \"#utility.yul\":2833:2952   */\n    tag_236:\n        /* \"#utility.yul\":2991:2992   */\n      0x00\n        /* \"#utility.yul\":3016:3069   */\n      tag_238\n        /* \"#utility.yul\":3061:3068   */\n      dup6\n        /* \"#utility.yul\":3052:3058   */\n      dup3\n        /* \"#utility.yul\":3041:3050   */\n      dup7\n        /* \"#utility.yul\":3037:3059   */\n      add\n        /* \"#utility.yul\":3016:3069   */\n      tag_210\n      jump\t// in\n    tag_238:\n        /* \"#utility.yul\":3006:3069   */\n      swap3\n      pop\n        /* \"#utility.yul\":2962:3079   */\n      pop\n        /* \"#utility.yul\":3118:3120   */\n      0x20\n        /* \"#utility.yul\":3144:3197   */\n      tag_239\n        /* \"#utility.yul\":3189:3196   */\n      dup6\n        /* \"#utility.yul\":3180:3186   */\n      dup3\n        /* \"#utility.yul\":3169:3178   */\n      dup7\n        /* \"#utility.yul\":3165:3187   */\n      add\n        /* \"#utility.yul\":3144:3197   */\n      tag_210\n      jump\t// in\n    tag_239:\n        /* \"#utility.yul\":3134:3197   */\n      swap2\n      pop\n        /* \"#utility.yul\":3089:3207   */\n      pop\n        /* \"#utility.yul\":2740:3214   */\n      swap3\n      pop\n      swap3\n      swap1\n      pop\n      jump\t// out\n        /* \"#utility.yul\":3220:3399   */\n    tag_240:\n        /* \"#utility.yul\":3289:3299   */\n      0x00\n        /* \"#utility.yul\":3310:3356   */\n      tag_242\n        /* \"#utility.yul\":3352:3355   */\n      dup4\n        /* \"#utility.yul\":3344:3350   */\n      dup4\n        /* \"#utility.yul\":3310:3356   */\n      tag_243\n      jump\t// in\n    tag_242:\n        /* \"#utility.yul\":3388:3392   */\n      0x20\n        /* \"#utility.yul\":3383:3386   */\n      dup4\n        /* \"#utility.yul\":3379:3393   */\n      add\n        /* \"#utility.yul\":3365:3393   */\n      swap1\n      pop\n        /* \"#utility.yul\":3220:3399   */\n      swap3\n      swap2\n      pop\n      pop\n      jump\t// out\n        /* \"#utility.yul\":3405:3513   */\n    tag_244:\n        /* \"#utility.yul\":3482:3506   */\n      tag_246\n        /* \"#utility.yul\":3500:3505   */\n      dup2\n        /* \"#utility.yul\":3482:3506   */\n      tag_247\n      jump\t// in\n    tag_246:\n        /* \"#utility.yul\":3477:3480   */\n      dup3\n        /* \"#utility.yul\":3470:3507   */\n      mstore\n        /* \"#utility.yul\":3405:3513   */\n      pop\n      pop\n      jump\t// out\n        /* \"#utility.yul\":3549:4281   */\n    tag_248:\n        /* \"#utility.yul\":3668:3671   */\n      0x00\n        /* \"#utility.yul\":3697:3751   */\n      tag_250\n        /* \"#utility.yul\":3745:3750   */\n      dup3\n        /* \"#utility.yul\":3697:3751   */\n      tag_251\n      jump\t// in\n    tag_250:\n        /* \"#utility.yul\":3767:3853   */\n      tag_252\n        /* \"#utility.yul\":3846:3852   */\n      dup2\n        /* \"#utility.yul\":3841:3844   */\n      dup6\n        /* \"#utility.yul\":3767:3853   */\n      tag_253\n      jump\t// in\n    tag_252:\n        /* \"#utility.yul\":3760:3853   */\n      swap4\n      pop\n        /* \"#utility.yul\":3877:3933   */\n      tag_254\n        /* \"#utility.yul\":3927:3932   */\n      dup4\n        /* \"#utility.yul\":3877:3933   */\n      tag_255\n      jump\t// in\n    tag_254:\n        /* \"#utility.yul\":3956:3963   */\n      dup1\n        /* \"#utility.yul\":3987:3988   */\n      0x00\n        /* \"#utility.yul\":3972:4256   */\n    tag_256:\n        /* \"#utility.yul\":3997:4003   */\n      dup4\n        /* \"#utility.yul\":3994:3995   */\n      dup2\n        /* \"#utility.yul\":3991:4004   */\n      lt\n        /* \"#utility.yul\":3972:4256   */\n      iszero\n      tag_258\n      jumpi\n        /* \"#utility.yul\":4073:4079   */\n      dup2\n        /* \"#utility.yul\":4067:4080   */\n      mload\n        /* \"#utility.yul\":4100:4163   */\n      tag_259\n        /* \"#utility.yul\":4159:4162   */\n      dup9\n        /* \"#utility.yul\":4144:4157   */\n      dup3\n        /* \"#utility.yul\":4100:4163   */\n      tag_240\n      jump\t// in\n    tag_259:\n        /* \"#utility.yul\":4093:4163   */\n      swap8\n      pop\n        /* \"#utility.yul\":4186:4246   */\n      tag_260\n        /* \"#utility.yul\":4239:4245   */\n      dup4\n        /* \"#utility.yul\":4186:4246   */\n      tag_261\n      jump\t// in\n    tag_260:\n        /* \"#utility.yul\":4176:4246   */\n      swap3\n      pop\n        /* \"#utility.yul\":4032:4256   */\n      pop\n        /* \"#utility.yul\":4019:4020   */\n      0x01\n        /* \"#utility.yul\":4016:4017   */\n      dup2\n        /* \"#utility.yul\":4012:4021   */\n      add\n        /* \"#utility.yul\":4007:4021   */\n      swap1\n      pop\n        /* \"#utility.yul\":3972:4256   */\n      jump(tag_256)\n    tag_258:\n        /* \"#utility.yul\":3976:3990   */\n      pop\n        /* \"#utility.yul\":4272:4275   */\n      dup6\n        /* \"#utility.yul\":4265:4275   */\n      swap4\n      pop\n        /* \"#utility.yul\":3673:4281   */\n      pop\n      pop\n      pop\n        /* \"#utility.yul\":3549:4281   */\n      swap3\n      swap2\n      pop\n      pop\n      jump\t// out\n        /* \"#utility.yul\":4287:4402   */\n    tag_262:\n        /* \"#utility.yul\":4372:4395   */\n      tag_264\n        /* \"#utility.yul\":4389:4394   */\n      dup2\n        /* \"#utility.yul\":4372:4395   */\n      tag_265\n      jump\t// in\n    tag_264:\n        /* \"#utility.yul\":4367:4370   */\n      dup3\n        /* \"#utility.yul\":4360:4396   */\n      mstore\n        /* \"#utility.yul\":4287:4402   */\n      pop\n      pop\n      jump\t// out\n        /* \"#utility.yul\":4408:4526   */\n    tag_266:\n        /* \"#utility.yul\":4495:4519   */\n      tag_268\n        /* \"#utility.yul\":4513:4518   */\n      dup2\n        /* \"#utility.yul\":4495:4519   */\n      tag_269\n      jump\t// in\n    tag_268:\n        /* \"#utility.yul\":4490:4493   */\n      dup3\n        /* \"#utility.yul\":4483:4520   */\n      mstore\n        /* \"#utility.yul\":4408:4526   */\n      pop\n      pop\n      jump\t// out\n        /* \"#utility.yul\":4532:4892   */\n    tag_270:\n        /* \"#utility.yul\":4618:4621   */\n      0x00\n        /* \"#utility.yul\":4646:4684   */\n      tag_272\n        /* \"#utility.yul\":4678:4683   */\n      dup3\n        /* \"#utility.yul\":4646:4684   */\n      tag_273\n      jump\t// in\n    tag_272:\n        /* \"#utility.yul\":4700:4770   */\n      tag_274\n        /* \"#utility.yul\":4763:4769   */\n      dup2\n        /* \"#utility.yul\":4758:4761   */\n      dup6\n        /* \"#utility.yul\":4700:4770   */\n      tag_275\n      jump\t// in\n    tag_274:\n        /* \"#utility.yul\":4693:4770   */\n      swap4\n      pop\n        /* \"#utility.yul\":4779:4831   */\n      tag_276\n        /* \"#utility.yul\":4824:4830   */\n      dup2\n        /* \"#utility.yul\":4819:4822   */\n      dup6\n        /* \"#utility.yul\":4812:4816   */\n      0x20\n        /* \"#utility.yul\":4805:4810   */\n      dup7\n        /* \"#utility.yul\":4801:4817   */\n      add\n        /* \"#utility.yul\":4779:4831   */\n      tag_277\n      jump\t// in\n    tag_276:\n        /* \"#utility.yul\":4856:4885   */\n      tag_278\n        /* \"#utility.yul\":4878:4884   */\n      dup2\n        /* \"#utility.yul\":4856:4885   */\n      tag_279\n      jump\t// in\n    tag_278:\n        /* \"#utility.yul\":4851:4854   */\n      dup5\n        /* \"#utility.yul\":4847:4886   */\n      add\n        /* \"#utility.yul\":4840:4886   */\n      swap2\n      pop\n        /* \"#utility.yul\":4622:4892   */\n      pop\n        /* \"#utility.yul\":4532:4892   */\n      swap3\n      swap2\n      pop\n      pop\n      jump\t// out\n        /* \"#utility.yul\":4898:5041   */\n    tag_280:\n        /* \"#utility.yul\":4991:5034   */\n      tag_282\n        /* \"#utility.yul\":5028:5033   */\n      dup2\n        /* \"#utility.yul\":4991:5034   */\n      tag_283\n      jump\t// in\n    tag_282:\n        /* \"#utility.yul\":4986:4989   */\n      dup3\n        /* \"#utility.yul\":4979:5035   */\n      mstore\n        /* \"#utility.yul\":4898:5041   */\n      pop\n      pop\n      jump\t// out\n        /* \"#utility.yul\":5047:5391   */\n    tag_284:\n        /* \"#utility.yul\":5125:5128   */\n      0x00\n        /* \"#utility.yul\":5153:5192   */\n      tag_286\n        /* \"#utility.yul\":5186:5191   */\n      dup3\n        /* \"#utility.yul\":5153:5192   */\n      tag_287\n      jump\t// in\n    tag_286:\n        /* \"#utility.yul\":5208:5269   */\n      tag_288\n        /* \"#utility.yul\":5262:5268   */\n      dup2\n        /* \"#utility.yul\":5257:5260   */\n      dup6\n        /* \"#utility.yul\":5208:5269   */\n      tag_289\n      jump\t// in\n    tag_288:\n        /* \"#utility.yul\":5201:5269   */\n      swap4\n      pop\n        /* \"#utility.yul\":5278:5330   */\n      tag_290\n        /* \"#utility.yul\":5323:5329   */\n      dup2\n        /* \"#utility.yul\":5318:5321   */\n      dup6\n        /* \"#utility.yul\":5311:5315   */\n      0x20\n        /* \"#utility.yul\":5304:5309   */\n      dup7\n        /* \"#utility.yul\":5300:5316   */\n      add\n        /* \"#utility.yul\":5278:5330   */\n      tag_277\n      jump\t// in\n    tag_290:\n        /* \"#utility.yul\":5355:5384   */\n      tag_291\n        /* \"#utility.yul\":5377:5383   */\n      dup2\n        /* \"#utility.yul\":5355:5384   */\n      tag_279\n      jump\t// in\n    tag_291:\n        /* \"#utility.yul\":5350:5353   */\n      dup5\n        /* \"#utility.yul\":5346:5385   */\n      add\n        /* \"#utility.yul\":5339:5385   */\n      swap2\n      pop\n        /* \"#utility.yul\":5129:5391   */\n      pop\n        /* \"#utility.yul\":5047:5391   */\n      swap3\n      swap2\n      pop\n      pop\n      jump\t// out\n        /* \"#utility.yul\":5445:6407   */\n    tag_292:\n        /* \"#utility.yul\":5562:5565   */\n      0x00\n        /* \"#utility.yul\":5598:5602   */\n      0x80\n        /* \"#utility.yul\":5593:5596   */\n      dup4\n        /* \"#utility.yul\":5589:5603   */\n      add\n        /* \"#utility.yul\":5687:5691   */\n      0x00\n        /* \"#utility.yul\":5680:5685   */\n      dup4\n        /* \"#utility.yul\":5676:5692   */\n      add\n        /* \"#utility.yul\":5670:5693   */\n      mload\n        /* \"#utility.yul\":5706:5769   */\n      tag_294\n        /* \"#utility.yul\":5763:5767   */\n      0x00\n        /* \"#utility.yul\":5758:5761   */\n      dup7\n        /* \"#utility.yul\":5754:5768   */\n      add\n        /* \"#utility.yul\":5740:5752   */\n      dup3\n        /* \"#utility.yul\":5706:5769   */\n      tag_243\n      jump\t// in\n    tag_294:\n        /* \"#utility.yul\":5613:5779   */\n      pop\n        /* \"#utility.yul\":5866:5870   */\n      0x20\n        /* \"#utility.yul\":5859:5864   */\n      dup4\n        /* \"#utility.yul\":5855:5871   */\n      add\n        /* \"#utility.yul\":5849:5872   */\n      mload\n        /* \"#utility.yul\":5885:5948   */\n      tag_295\n        /* \"#utility.yul\":5942:5946   */\n      0x20\n        /* \"#utility.yul\":5937:5940   */\n      dup7\n        /* \"#utility.yul\":5933:5947   */\n      add\n        /* \"#utility.yul\":5919:5931   */\n      dup3\n        /* \"#utility.yul\":5885:5948   */\n      tag_243\n      jump\t// in\n    tag_295:\n        /* \"#utility.yul\":5789:5958   */\n      pop\n        /* \"#utility.yul\":6040:6044   */\n      0x40\n        /* \"#utility.yul\":6033:6038   */\n      dup4\n        /* \"#utility.yul\":6029:6045   */\n      add\n        /* \"#utility.yul\":6023:6046   */\n      mload\n        /* \"#utility.yul\":6059:6122   */\n      tag_296\n        /* \"#utility.yul\":6116:6120   */\n      0x40\n        /* \"#utility.yul\":6111:6114   */\n      dup7\n        /* \"#utility.yul\":6107:6121   */\n      add\n        /* \"#utility.yul\":6093:6105   */\n      dup3\n        /* \"#utility.yul\":6059:6122   */\n      tag_244\n      jump\t// in\n    tag_296:\n        /* \"#utility.yul\":5968:6132   */\n      pop\n        /* \"#utility.yul\":6217:6221   */\n      0x60\n        /* \"#utility.yul\":6210:6215   */\n      dup4\n        /* \"#utility.yul\":6206:6222   */\n      add\n        /* \"#utility.yul\":6200:6223   */\n      mload\n        /* \"#utility.yul\":6270:6273   */\n      dup5\n        /* \"#utility.yul\":6264:6268   */\n      dup3\n        /* \"#utility.yul\":6260:6274   */\n      sub\n        /* \"#utility.yul\":6253:6257   */\n      0x60\n        /* \"#utility.yul\":6248:6251   */\n      dup7\n        /* \"#utility.yul\":6244:6258   */\n      add\n        /* \"#utility.yul\":6237:6275   */\n      mstore\n        /* \"#utility.yul\":6296:6369   */\n      tag_297\n        /* \"#utility.yul\":6364:6368   */\n      dup3\n        /* \"#utility.yul\":6350:6362   */\n      dup3\n        /* \"#utility.yul\":6296:6369   */\n      tag_284\n      jump\t// in\n    tag_297:\n        /* \"#utility.yul\":6288:6369   */\n      swap2\n      pop\n        /* \"#utility.yul\":6142:6380   */\n      pop\n        /* \"#utility.yul\":6397:6401   */\n      dup1\n        /* \"#utility.yul\":6390:6401   */\n      swap2\n      pop\n        /* \"#utility.yul\":5567:6407   */\n      pop\n        /* \"#utility.yul\":5445:6407   */\n      swap3\n      swap2\n      pop\n      pop\n      jump\t// out\n        /* \"#utility.yul\":6413:6521   */\n    tag_243:\n        /* \"#utility.yul\":6490:6514   */\n      tag_299\n        /* \"#utility.yul\":6508:6513   */\n      dup2\n        /* \"#utility.yul\":6490:6514   */\n      tag_300\n      jump\t// in\n    tag_299:\n        /* \"#utility.yul\":6485:6488   */\n      dup3\n        /* \"#utility.yul\":6478:6515   */\n      mstore\n        /* \"#utility.yul\":6413:6521   */\n      pop\n      pop\n      jump\t// out\n        /* \"#utility.yul\":6527:6645   */\n    tag_301:\n        /* \"#utility.yul\":6614:6638   */\n      tag_303\n        /* \"#utility.yul\":6632:6637   */\n      dup2\n        /* \"#utility.yul\":6614:6638   */\n      tag_300\n      jump\t// in\n    tag_303:\n        /* \"#utility.yul\":6609:6612   */\n      dup3\n        /* \"#utility.yul\":6602:6639   */\n      mstore\n        /* \"#utility.yul\":6527:6645   */\n      pop\n      pop\n      jump\t// out\n        /* \"#utility.yul\":6651:7024   */\n    tag_78:\n        /* \"#utility.yul\":6794:6798   */\n      0x00\n        /* \"#utility.yul\":6832:6834   */\n      0x20\n        /* \"#utility.yul\":6821:6830   */\n      dup3\n        /* \"#utility.yul\":6817:6835   */\n      add\n        /* \"#utility.yul\":6809:6835   */\n      swap1\n      pop\n        /* \"#utility.yul\":6881:6890   */\n      dup2\n        /* \"#utility.yul\":6875:6879   */\n      dup2\n        /* \"#utility.yul\":6871:6891   */\n      sub\n        /* \"#utility.yul\":6867:6868   */\n      0x00\n        /* \"#utility.yul\":6856:6865   */\n      dup4\n        /* \"#utility.yul\":6852:6869   */\n      add\n        /* \"#utility.yul\":6845:6892   */\n      mstore\n        /* \"#utility.yul\":6909:7017   */\n      tag_305\n        /* \"#utility.yul\":7012:7016   */\n      dup2\n        /* \"#utility.yul\":7003:7009   */\n      dup5\n        /* \"#utility.yul\":6909:7017   */\n      tag_248\n      jump\t// in\n    tag_305:\n        /* \"#utility.yul\":6901:7017   */\n      swap1\n      pop\n        /* \"#utility.yul\":6651:7024   */\n      swap3\n      swap2\n      pop\n      pop\n      jump\t// out\n        /* \"#utility.yul\":7030:7248   */\n    tag_57:\n        /* \"#utility.yul\":7121:7125   */\n      0x00\n        /* \"#utility.yul\":7159:7161   */\n      0x20\n        /* \"#utility.yul\":7148:7157   */\n      dup3\n        /* \"#utility.yul\":7144:7162   */\n      add\n        /* \"#utility.yul\":7136:7162   */\n      swap1\n      pop\n        /* \"#utility.yul\":7172:7241   */\n      tag_307\n        /* \"#utility.yul\":7238:7239   */\n      0x00\n        /* \"#utility.yul\":7227:7236   */\n      dup4\n        /* \"#utility.yul\":7223:7240   */\n      add\n        /* \"#utility.yul\":7214:7220   */\n      dup5\n        /* \"#utility.yul\":7172:7241   */\n      tag_262\n      jump\t// in\n    tag_307:\n        /* \"#utility.yul\":7030:7248   */\n      swap3\n      swap2\n      pop\n      pop\n      jump\t// out\n        /* \"#utility.yul\":7254:7476   */\n    tag_91:\n        /* \"#utility.yul\":7347:7351   */\n      0x00\n        /* \"#utility.yul\":7385:7387   */\n      0x20\n        /* \"#utility.yul\":7374:7383   */\n      dup3\n        /* \"#utility.yul\":7370:7388   */\n      add\n        /* \"#utility.yul\":7362:7388   */\n      swap1\n      pop\n        /* \"#utility.yul\":7398:7469   */\n      tag_309\n        /* \"#utility.yul\":7466:7467   */\n      0x00\n        /* \"#utility.yul\":7455:7464   */\n      dup4\n        /* \"#utility.yul\":7451:7468   */\n      add\n        /* \"#utility.yul\":7442:7448   */\n      dup5\n        /* \"#utility.yul\":7398:7469   */\n      tag_266\n      jump\t// in\n    tag_309:\n        /* \"#utility.yul\":7254:7476   */\n      swap3\n      swap2\n      pop\n      pop\n      jump\t// out\n        /* \"#utility.yul\":7482:7791   */\n    tag_101:\n        /* \"#utility.yul\":7593:7597   */\n      0x00\n        /* \"#utility.yul\":7631:7633   */\n      0x20\n        /* \"#utility.yul\":7620:7629   */\n      dup3\n        /* \"#utility.yul\":7616:7634   */\n      add\n        /* \"#utility.yul\":7608:7634   */\n      swap1\n      pop\n        /* \"#utility.yul\":7680:7689   */\n      dup2\n        /* \"#utility.yul\":7674:7678   */\n      dup2\n        /* \"#utility.yul\":7670:7690   */\n      sub\n        /* \"#utility.yul\":7666:7667   */\n      0x00\n        /* \"#utility.yul\":7655:7664   */\n      dup4\n        /* \"#utility.yul\":7651:7668   */\n      add\n        /* \"#utility.yul\":7644:7691   */\n      mstore\n        /* \"#utility.yul\":7708:7784   */\n      tag_311\n        /* \"#utility.yul\":7779:7783   */\n      dup2\n        /* \"#utility.yul\":7770:7776   */\n      dup5\n        /* \"#utility.yul\":7708:7784   */\n      tag_270\n      jump\t// in\n    tag_311:\n        /* \"#utility.yul\":7700:7784   */\n      swap1\n      pop\n        /* \"#utility.yul\":7482:7791   */\n      swap3\n      swap2\n      pop\n      pop\n      jump\t// out\n        /* \"#utility.yul\":7797:8031   */\n    tag_96:\n        /* \"#utility.yul\":7896:7900   */\n      0x00\n        /* \"#utility.yul\":7934:7936   */\n      0x20\n        /* \"#utility.yul\":7923:7932   */\n      dup3\n        /* \"#utility.yul\":7919:7937   */\n      add\n        /* \"#utility.yul\":7911:7937   */\n      swap1\n      pop\n        /* \"#utility.yul\":7947:8024   */\n      tag_313\n        /* \"#utility.yul\":8021:8022   */\n      0x00\n        /* \"#utility.yul\":8010:8019   */\n      dup4\n        /* \"#utility.yul\":8006:8023   */\n      add\n        /* \"#utility.yul\":7997:8003   */\n      dup5\n        /* \"#utility.yul\":7947:8024   */\n      tag_280\n      jump\t// in\n    tag_313:\n        /* \"#utility.yul\":7797:8031   */\n      swap3\n      swap2\n      pop\n      pop\n      jump\t// out\n        /* \"#utility.yul\":8037:8406   */\n    tag_73:\n        /* \"#utility.yul\":8178:8182   */\n      0x00\n        /* \"#utility.yul\":8216:8218   */\n      0x20\n        /* \"#utility.yul\":8205:8214   */\n      dup3\n        /* \"#utility.yul\":8201:8219   */\n      add\n        /* \"#utility.yul\":8193:8219   */\n      swap1\n      pop\n        /* \"#utility.yul\":8265:8274   */\n      dup2\n        /* \"#utility.yul\":8259:8263   */\n      dup2\n        /* \"#utility.yul\":8255:8275   */\n      sub\n        /* \"#utility.yul\":8251:8252   */\n      0x00\n        /* \"#utility.yul\":8240:8249   */\n      dup4\n        /* \"#utility.yul\":8236:8253   */\n      add\n        /* \"#utility.yul\":8229:8276   */\n      mstore\n        /* \"#utility.yul\":8293:8399   */\n      tag_315\n        /* \"#utility.yul\":8394:8398   */\n      dup2\n        /* \"#utility.yul\":8385:8391   */\n      dup5\n        /* \"#utility.yul\":8293:8399   */\n      tag_292\n      jump\t// in\n    tag_315:\n        /* \"#utility.yul\":8285:8399   */\n      swap1\n      pop\n        /* \"#utility.yul\":8037:8406   */\n      swap3\n      swap2\n      pop\n      pop\n      jump\t// out\n        /* \"#utility.yul\":8412:8634   */\n    tag_26:\n        /* \"#utility.yul\":8505:8509   */\n      0x00\n        /* \"#utility.yul\":8543:8545   */\n      0x20\n        /* \"#utility.yul\":8532:8541   */\n      dup3\n        /* \"#utility.yul\":8528:8546   */\n      add\n        /* \"#utility.yul\":8520:8546   */\n      swap1\n      pop\n        /* \"#utility.yul\":8556:8627   */\n      tag_317\n        /* \"#utility.yul\":8624:8625   */\n      0x00\n        /* \"#utility.yul\":8613:8622   */\n      dup4\n        /* \"#utility.yul\":8609:8626   */\n      add\n        /* \"#utility.yul\":8600:8606   */\n      dup5\n        /* \"#utility.yul\":8556:8627   */\n      tag_301\n      jump\t// in\n    tag_317:\n        /* \"#utility.yul\":8412:8634   */\n      swap3\n      swap2\n      pop\n      pop\n      jump\t// out\n        /* \"#utility.yul\":8640:8769   */\n    tag_194:\n        /* \"#utility.yul\":8674:8680   */\n      0x00\n        /* \"#utility.yul\":8701:8721   */\n      tag_319\n      tag_320\n      jump\t// in\n    tag_319:\n        /* \"#utility.yul\":8691:8721   */\n      swap1\n      pop\n        /* \"#utility.yul\":8730:8763   */\n      tag_321\n        /* \"#utility.yul\":8758:8762   */\n      dup3\n        /* \"#utility.yul\":8750:8756   */\n      dup3\n        /* \"#utility.yul\":8730:8763   */\n      tag_322\n      jump\t// in\n    tag_321:\n        /* \"#utility.yul\":8640:8769   */\n      swap2\n      swap1\n      pop\n      jump\t// out\n        /* \"#utility.yul\":8775:8850   */\n    tag_320:\n        /* \"#utility.yul\":8808:8814   */\n      0x00\n        /* \"#utility.yul\":8841:8843   */\n      0x40\n        /* \"#utility.yul\":8835:8844   */\n      mload\n        /* \"#utility.yul\":8825:8844   */\n      swap1\n      pop\n        /* \"#utility.yul\":8775:8850   */\n      swap1\n      jump\t// out\n        /* \"#utility.yul\":8856:9164   */\n    tag_193:\n        /* \"#utility.yul\":8918:8922   */\n      0x00\n        /* \"#utility.yul\":9008:9026   */\n      0xffffffffffffffff\n        /* \"#utility.yul\":9000:9006   */\n      dup3\n        /* \"#utility.yul\":8997:9027   */\n      gt\n        /* \"#utility.yul\":8994:9050   */\n      iszero\n      tag_325\n      jumpi\n        /* \"#utility.yul\":9030:9048   */\n      tag_326\n      tag_149\n      jump\t// in\n    tag_326:\n        /* \"#utility.yul\":8994:9050   */\n    tag_325:\n        /* \"#utility.yul\":9068:9097   */\n      tag_327\n        /* \"#utility.yul\":9090:9096   */\n      dup3\n        /* \"#utility.yul\":9068:9097   */\n      tag_279\n      jump\t// in\n    tag_327:\n        /* \"#utility.yul\":9060:9097   */\n      swap1\n      pop\n        /* \"#utility.yul\":9152:9156   */\n      0x20\n        /* \"#utility.yul\":9146:9150   */\n      dup2\n        /* \"#utility.yul\":9142:9157   */\n      add\n        /* \"#utility.yul\":9134:9157   */\n      swap1\n      pop\n        /* \"#utility.yul\":8856:9164   */\n      swap2\n      swap1\n      pop\n      jump\t// out\n        /* \"#utility.yul\":9170:9302   */\n    tag_255:\n        /* \"#utility.yul\":9237:9241   */\n      0x00\n        /* \"#utility.yul\":9260:9263   */\n      dup2\n        /* \"#utility.yul\":9252:9263   */\n      swap1\n      pop\n        /* \"#utility.yul\":9290:9294   */\n      0x20\n        /* \"#utility.yul\":9285:9288   */\n      dup3\n        /* \"#utility.yul\":9281:9295   */\n      add\n        /* \"#utility.yul\":9273:9295   */\n      swap1\n      pop\n        /* \"#utility.yul\":9170:9302   */\n      swap2\n      swap1\n      pop\n      jump\t// out\n        /* \"#utility.yul\":9308:9422   */\n    tag_251:\n        /* \"#utility.yul\":9375:9381   */\n      0x00\n        /* \"#utility.yul\":9409:9414   */\n      dup2\n        /* \"#utility.yul\":9403:9415   */\n      mload\n        /* \"#utility.yul\":9393:9415   */\n      swap1\n      pop\n        /* \"#utility.yul\":9308:9422   */\n      swap2\n      swap1\n      pop\n      jump\t// out\n        /* \"#utility.yul\":9428:9526   */\n    tag_273:\n        /* \"#utility.yul\":9479:9485   */\n      0x00\n        /* \"#utility.yul\":9513:9518   */\n      dup2\n        /* \"#utility.yul\":9507:9519   */\n      mload\n        /* \"#utility.yul\":9497:9519   */\n      swap1\n      pop\n        /* \"#utility.yul\":9428:9526   */\n      swap2\n      swap1\n      pop\n      jump\t// out\n        /* \"#utility.yul\":9532:9631   */\n    tag_287:\n        /* \"#utility.yul\":9584:9590   */\n      0x00\n        /* \"#utility.yul\":9618:9623   */\n      dup2\n        /* \"#utility.yul\":9612:9624   */\n      mload\n        /* \"#utility.yul\":9602:9624   */\n      swap1\n      pop\n        /* \"#utility.yul\":9532:9631   */\n      swap2\n      swap1\n      pop\n      jump\t// out\n        /* \"#utility.yul\":9637:9750   */\n    tag_261:\n        /* \"#utility.yul\":9707:9711   */\n      0x00\n        /* \"#utility.yul\":9739:9743   */\n      0x20\n        /* \"#utility.yul\":9734:9737   */\n      dup3\n        /* \"#utility.yul\":9730:9744   */\n      add\n        /* \"#utility.yul\":9722:9744   */\n      swap1\n      pop\n        /* \"#utility.yul\":9637:9750   */\n      swap2\n      swap1\n      pop\n      jump\t// out\n        /* \"#utility.yul\":9756:9940   */\n    tag_253:\n        /* \"#utility.yul\":9855:9866   */\n      0x00\n        /* \"#utility.yul\":9889:9895   */\n      dup3\n        /* \"#utility.yul\":9884:9887   */\n      dup3\n        /* \"#utility.yul\":9877:9896   */\n      mstore\n        /* \"#utility.yul\":9929:9933   */\n      0x20\n        /* \"#utility.yul\":9924:9927   */\n      dup3\n        /* \"#utility.yul\":9920:9934   */\n      add\n        /* \"#utility.yul\":9905:9934   */\n      swap1\n      pop\n        /* \"#utility.yul\":9756:9940   */\n      swap3\n      swap2\n      pop\n      pop\n      jump\t// out\n        /* \"#utility.yul\":9946:10114   */\n    tag_275:\n        /* \"#utility.yul\":10029:10040   */\n      0x00\n        /* \"#utility.yul\":10063:10069   */\n      dup3\n        /* \"#utility.yul\":10058:10061   */\n      dup3\n        /* \"#utility.yul\":10051:10070   */\n      mstore\n        /* \"#utility.yul\":10103:10107   */\n      0x20\n        /* \"#utility.yul\":10098:10101   */\n      dup3\n        /* \"#utility.yul\":10094:10108   */\n      add\n        /* \"#utility.yul\":10079:10108   */\n      swap1\n      pop\n        /* \"#utility.yul\":9946:10114   */\n      swap3\n      swap2\n      pop\n      pop\n      jump\t// out\n        /* \"#utility.yul\":10120:10279   */\n    tag_289:\n        /* \"#utility.yul\":10194:10205   */\n      0x00\n        /* \"#utility.yul\":10228:10234   */\n      dup3\n        /* \"#utility.yul\":10223:10226   */\n      dup3\n        /* \"#utility.yul\":10216:10235   */\n      mstore\n        /* \"#utility.yul\":10268:10272   */\n      0x20\n        /* \"#utility.yul\":10263:10266   */\n      dup3\n        /* \"#utility.yul\":10259:10273   */\n      add\n        /* \"#utility.yul\":10244:10273   */\n      swap1\n      pop\n        /* \"#utility.yul\":10120:10279   */\n      swap3\n      swap2\n      pop\n      pop\n      jump\t// out\n        /* \"#utility.yul\":10285:10590   */\n    tag_111:\n        /* \"#utility.yul\":10325:10328   */\n      0x00\n        /* \"#utility.yul\":10344:10364   */\n      tag_337\n        /* \"#utility.yul\":10362:10363   */\n      dup3\n        /* \"#utility.yul\":10344:10364   */\n      tag_300\n      jump\t// in\n    tag_337:\n        /* \"#utility.yul\":10339:10364   */\n      swap2\n      pop\n        /* \"#utility.yul\":10378:10398   */\n      tag_338\n        /* \"#utility.yul\":10396:10397   */\n      dup4\n        /* \"#utility.yul\":10378:10398   */\n      tag_300\n      jump\t// in\n    tag_338:\n        /* \"#utility.yul\":10373:10398   */\n      swap3\n      pop\n        /* \"#utility.yul\":10532:10533   */\n      dup3\n        /* \"#utility.yul\":10464:10530   */\n      0xffffffffffffffffffffffffffffffffffffffffffffffffffffffffffffffff\n        /* \"#utility.yul\":10460:10534   */\n      sub\n        /* \"#utility.yul\":10457:10458   */\n      dup3\n        /* \"#utility.yul\":10454:10535   */\n      gt\n        /* \"#utility.yul\":10451:10558   */\n      iszero\n      tag_339\n      jumpi\n        /* \"#utility.yul\":10538:10556   */\n      tag_340\n      tag_341\n      jump\t// in\n    tag_340:\n        /* \"#utility.yul\":10451:10558   */\n    tag_339:\n        /* \"#utility.yul\":10582:10583   */\n      dup3\n        /* \"#utility.yul\":10579:10580   */\n      dup3\n        /* \"#utility.yul\":10575:10584   */\n      add\n        /* \"#utility.yul\":10568:10584   */\n      swap1\n      pop\n        /* \"#utility.yul\":10285:10590   */\n      swap3\n      swap2\n      pop\n      pop\n      jump\t// out\n        /* \"#utility.yul\":10596:10692   */\n    tag_247:\n        /* \"#utility.yul\":10633:10640   */\n      0x00\n        /* \"#utility.yul\":10662:10686   */\n      tag_343\n        /* \"#utility.yul\":10680:10685   */\n      dup3\n        /* \"#utility.yul\":10662:10686   */\n      tag_344\n      jump\t// in\n    tag_343:\n        /* \"#utility.yul\":10651:10686   */\n      swap1\n      pop\n        /* \"#utility.yul\":10596:10692   */\n      swap2\n      swap1\n      pop\n      jump\t// out\n        /* \"#utility.yul\":10698:10847   */\n    tag_265:\n        /* \"#utility.yul\":10734:10741   */\n      0x00\n        /* \"#utility.yul\":10774:10840   */\n      0xff00000000000000000000000000000000000000000000000000000000000000\n        /* \"#utility.yul\":10767:10772   */\n      dup3\n        /* \"#utility.yul\":10763:10841   */\n      and\n        /* \"#utility.yul\":10752:10841   */\n      swap1\n      pop\n        /* \"#utility.yul\":10698:10847   */\n      swap2\n      swap1\n      pop\n      jump\t// out\n        /* \"#utility.yul\":10853:10930   */\n    tag_269:\n        /* \"#utility.yul\":10890:10897   */\n      0x00\n        /* \"#utility.yul\":10919:10924   */\n      dup2\n        /* \"#utility.yul\":10908:10924   */\n      swap1\n      pop\n        /* \"#utility.yul\":10853:10930   */\n      swap2\n      swap1\n      pop\n      jump\t// out\n        /* \"#utility.yul\":10936:11063   */\n    tag_347:\n        /* \"#utility.yul\":10981:10988   */\n      0x00\n        /* \"#utility.yul\":11010:11015   */\n      dup2\n        /* \"#utility.yul\":10999:11015   */\n      swap1\n      pop\n        /* \"#utility.yul\":11016:11057   */\n      tag_349\n        /* \"#utility.yul\":11051:11056   */\n      dup3\n        /* \"#utility.yul\":11016:11057   */\n      tag_350\n      jump\t// in\n    tag_349:\n        /* \"#utility.yul\":10936:11063   */\n      swap2\n      swap1\n      pop\n      jump\t// out\n        /* \"#utility.yul\":11069:11195   */\n    tag_344:\n        /* \"#utility.yul\":11106:11113   */\n      0x00\n        /* \"#utility.yul\":11146:11188   */\n      0xffffffffffffffffffffffffffffffffffffffff\n        /* \"#utility.yul\":11139:11144   */\n      dup3\n        /* \"#utility.yul\":11135:11189   */\n      and\n        /* \"#utility.yul\":11124:11189   */\n      swap1\n      pop\n        /* \"#utility.yul\":11069:11195   */\n      swap2\n      swap1\n      pop\n      jump\t// out\n        /* \"#utility.yul\":11201:11278   */\n    tag_300:\n        /* \"#utility.yul\":11238:11245   */\n      0x00\n        /* \"#utility.yul\":11267:11272   */\n      dup2\n        /* \"#utility.yul\":11256:11272   */\n      swap1\n      pop\n        /* \"#utility.yul\":11201:11278   */\n      swap2\n      swap1\n      pop\n      jump\t// out\n        /* \"#utility.yul\":11284:11411   */\n    tag_283:\n        /* \"#utility.yul\":11340:11349   */\n      0x00\n        /* \"#utility.yul\":11373:11405   */\n      tag_354\n        /* \"#utility.yul\":11399:11404   */\n      dup3\n        /* \"#utility.yul\":11373:11405   */\n      tag_347\n      jump\t// in\n    tag_354:\n        /* \"#utility.yul\":11360:11405   */\n      swap1\n      pop\n        /* \"#utility.yul\":11284:11411   */\n      swap2\n      swap1\n      pop\n      jump\t// out\n        /* \"#utility.yul\":11417:11571   */\n    tag_199:\n        /* \"#utility.yul\":11501:11507   */\n      dup3\n        /* \"#utility.yul\":11496:11499   */\n      dup2\n        /* \"#utility.yul\":11491:11494   */\n      dup4\n        /* \"#utility.yul\":11478:11508   */\n      calldatacopy\n        /* \"#utility.yul\":11563:11564   */\n      0x00\n        /* \"#utility.yul\":11554:11560   */\n      dup4\n        /* \"#utility.yul\":11549:11552   */\n      dup4\n        /* \"#utility.yul\":11545:11561   */\n      add\n        /* \"#utility.yul\":11538:11565   */\n      mstore\n        /* \"#utility.yul\":11417:11571   */\n      pop\n      pop\n      pop\n      jump\t// out\n        /* \"#utility.yul\":11577:11884   */\n    tag_277:\n        /* \"#utility.yul\":11645:11646   */\n      0x00\n        /* \"#utility.yul\":11655:11768   */\n    tag_357:\n        /* \"#utility.yul\":11669:11675   */\n      dup4\n        /* \"#utility.yul\":11666:11667   */\n      dup2\n        /* \"#utility.yul\":11663:11676   */\n      lt\n        /* \"#utility.yul\":11655:11768   */\n      iszero\n      tag_359\n      jumpi\n        /* \"#utility.yul\":11754:11755   */\n      dup1\n        /* \"#utility.yul\":11749:11752   */\n      dup3\n        /* \"#utility.yul\":11745:11756   */\n      add\n        /* \"#utility.yul\":11739:11757   */\n      mload\n        /* \"#utility.yul\":11735:11736   */\n      dup2\n        /* \"#utility.yul\":11730:11733   */\n      dup5\n        /* \"#utility.yul\":11726:11737   */\n      add\n        /* \"#utility.yul\":11719:11758   */\n      mstore\n        /* \"#utility.yul\":11691:11693   */\n      0x20\n        /* \"#utility.yul\":11688:11689   */\n      dup2\n        /* \"#utility.yul\":11684:11694   */\n      add\n        /* \"#utility.yul\":11679:11694   */\n      swap1\n      pop\n        /* \"#utility.yul\":11655:11768   */\n      jump(tag_357)\n    tag_359:\n        /* \"#utility.yul\":11786:11792   */\n      dup4\n        /* \"#utility.yul\":11783:11784   */\n      dup2\n        /* \"#utility.yul\":11780:11793   */\n      gt\n        /* \"#utility.yul\":11777:11878   */\n      iszero\n      tag_360\n      jumpi\n        /* \"#utility.yul\":11866:11867   */\n      0x00\n        /* \"#utility.yul\":11857:11863   */\n      dup5\n        /* \"#utility.yul\":11852:11855   */\n      dup5\n        /* \"#utility.yul\":11848:11864   */\n      add\n        /* \"#utility.yul\":11841:11868   */\n      mstore\n        /* \"#utility.yul\":11777:11878   */\n    tag_360:\n        /* \"#utility.yul\":11626:11884   */\n      pop\n        /* \"#utility.yul\":11577:11884   */\n      pop\n      pop\n      pop\n      jump\t// out\n        /* \"#utility.yul\":11890:12210   */\n    tag_104:\n        /* \"#utility.yul\":11934:11940   */\n      0x00\n        /* \"#utility.yul\":11971:11972   */\n      0x02\n        /* \"#utility.yul\":11965:11969   */\n      dup3\n        /* \"#utility.yul\":11961:11973   */\n      div\n        /* \"#utility.yul\":11951:11973   */\n      swap1\n      pop\n        /* \"#utility.yul\":12018:12019   */\n      0x01\n        /* \"#utility.yul\":12012:12016   */\n      dup3\n        /* \"#utility.yul\":12008:12020   */\n      and\n        /* \"#utility.yul\":12039:12057   */\n      dup1\n        /* \"#utility.yul\":12029:12110   */\n      tag_362\n      jumpi\n        /* \"#utility.yul\":12095:12099   */\n      0x7f\n        /* \"#utility.yul\":12087:12093   */\n      dup3\n        /* \"#utility.yul\":12083:12100   */\n      and\n        /* \"#utility.yul\":12073:12100   */\n      swap2\n      pop\n        /* \"#utility.yul\":12029:12110   */\n    tag_362:\n        /* \"#utility.yul\":12157:12159   */\n      0x20\n        /* \"#utility.yul\":12149:12155   */\n      dup3\n        /* \"#utility.yul\":12146:12160   */\n      lt\n        /* \"#utility.yul\":12126:12144   */\n      dup2\n        /* \"#utility.yul\":12123:12161   */\n      eq\n        /* \"#utility.yul\":12120:12204   */\n      iszero\n      tag_363\n      jumpi\n        /* \"#utility.yul\":12176:12194   */\n      tag_364\n      tag_365\n      jump\t// in\n    tag_364:\n        /* \"#utility.yul\":12120:12204   */\n    tag_363:\n        /* \"#utility.yul\":11941:12210   */\n      pop\n        /* \"#utility.yul\":11890:12210   */\n      swap2\n      swap1\n      pop\n      jump\t// out\n        /* \"#utility.yul\":12216:12497   */\n    tag_322:\n        /* \"#utility.yul\":12299:12326   */\n      tag_367\n        /* \"#utility.yul\":12321:12325   */\n      dup3\n        /* \"#utility.yul\":12299:12326   */\n      tag_279\n      jump\t// in\n    tag_367:\n        /* \"#utility.yul\":12291:12297   */\n      dup2\n        /* \"#utility.yul\":12287:12327   */\n      add\n        /* \"#utility.yul\":12429:12435   */\n      dup2\n        /* \"#utility.yul\":12417:12427   */\n      dup2\n        /* \"#utility.yul\":12414:12436   */\n      lt\n        /* \"#utility.yul\":12393:12411   */\n      0xffffffffffffffff\n        /* \"#utility.yul\":12381:12391   */\n      dup3\n        /* \"#utility.yul\":12378:12412   */\n      gt\n        /* \"#utility.yul\":12375:12437   */\n      or\n        /* \"#utility.yul\":12372:12460   */\n      iszero\n      tag_368\n      jumpi\n        /* \"#utility.yul\":12440:12458   */\n      tag_369\n      tag_149\n      jump\t// in\n    tag_369:\n        /* \"#utility.yul\":12372:12460   */\n    tag_368:\n        /* \"#utility.yul\":12480:12490   */\n      dup1\n        /* \"#utility.yul\":12476:12478   */\n      0x40\n        /* \"#utility.yul\":12469:12491   */\n      mstore\n        /* \"#utility.yul\":12259:12497   */\n      pop\n        /* \"#utility.yul\":12216:12497   */\n      pop\n      pop\n      jump\t// out\n        /* \"#utility.yul\":12503:12683   */\n    tag_341:\n        /* \"#utility.yul\":12551:12628   */\n      0x4e487b7100000000000000000000000000000000000000000000000000000000\n        /* \"#utility.yul\":12548:12549   */\n      0x00\n        /* \"#utility.yul\":12541:12629   */\n      mstore\n        /* \"#utility.yul\":12648:12652   */\n      0x11\n        /* \"#utility.yul\":12645:12646   */\n      0x04\n        /* \"#utility.yul\":12638:12653   */\n      mstore\n        /* \"#utility.yul\":12672:12676   */\n      0x24\n        /* \"#utility.yul\":12669:12670   */\n      0x00\n        /* \"#utility.yul\":12662:12677   */\n      revert\n        /* \"#utility.yul\":12689:12869   */\n    tag_108:\n        /* \"#utility.yul\":12737:12814   */\n      0x4e487b7100000000000000000000000000000000000000000000000000000000\n        /* \"#utility.yul\":12734:12735   */\n      0x00\n        /* \"#utility.yul\":12727:12815   */\n      mstore\n        /* \"#utility.yul\":12834:12838   */\n      0x21\n        /* \"#utility.yul\":12831:12832   */\n      0x04\n        /* \"#utility.yul\":12824:12839   */\n      mstore\n        /* \"#utility.yul\":12858:12862   */\n      0x24\n        /* \"#utility.yul\":12855:12856   */\n      0x00\n        /* \"#utility.yul\":12848:12863   */\n      revert\n        /* \"#utility.yul\":12875:13055   */\n    tag_365:\n        /* \"#utility.yul\":12923:13000   */\n      0x4e487b7100000000000000000000000000000000000000000000000000000000\n        /* \"#utility.yul\":12920:12921   */\n      0x00\n        /* \"#utility.yul\":12913:13001   */\n      mstore\n        /* \"#utility.yul\":13020:13024   */\n      0x22\n        /* \"#utility.yul\":13017:13018   */\n      0x04\n        /* \"#utility.yul\":13010:13025   */\n      mstore\n        /* \"#utility.yul\":13044:13048   */\n      0x24\n        /* \"#utility.yul\":13041:13042   */\n      0x00\n        /* \"#utility.yul\":13034:13049   */\n      revert\n        /* \"#utility.yul\":13061:13241   */\n    tag_117:\n        /* \"#utility.yul\":13109:13186   */\n      0x4e487b7100000000000000000000000000000000000000000000000000000000\n        /* \"#utility.yul\":13106:13107   */\n      0x00\n        /* \"#utility.yul\":13099:13187   */\n      mstore\n        /* \"#utility.yul\":13206:13210   */\n      0x32\n        /* \"#utility.yul\":13203:13204   */\n      0x04\n        /* \"#utility.yul\":13196:13211   */\n      mstore\n        /* \"#utility.yul\":13230:13234   */\n      0x24\n        /* \"#utility.yul\":13227:13228   */\n      0x00\n        /* \"#utility.yul\":13220:13235   */\n      revert\n        /* \"#utility.yul\":13247:13427   */\n    tag_149:\n        /* \"#utility.yul\":13295:13372   */\n      0x4e487b7100000000000000000000000000000000000000000000000000000000\n        /* \"#utility.yul\":13292:13293   */\n      0x00\n        /* \"#utility.yul\":13285:13373   */\n      mstore\n        /* \"#utility.yul\":13392:13396   */\n      0x41\n        /* \"#utility.yul\":13389:13390   */\n      0x04\n        /* \"#utility.yul\":13382:13397   */\n      mstore\n        /* \"#utility.yul\":13416:13420   */\n      0x24\n        /* \"#utility.yul\":13413:13414   */\n      0x00\n        /* \"#utility.yul\":13406:13421   */\n      revert\n        /* \"#utility.yul\":13433:13550   */\n    tag_208:\n        /* \"#utility.yul\":13542:13543   */\n      0x00\n        /* \"#utility.yul\":13539:13540   */\n      dup1\n        /* \"#utility.yul\":13532:13544   */\n      revert\n        /* \"#utility.yul\":13556:13673   */\n    tag_197:\n        /* \"#utility.yul\":13665:13666   */\n      0x00\n        /* \"#utility.yul\":13662:13663   */\n      dup1\n        /* \"#utility.yul\":13655:13667   */\n      revert\n        /* \"#utility.yul\":13679:13796   */\n    tag_229:\n        /* \"#utility.yul\":13788:13789   */\n      0x00\n        /* \"#utility.yul\":13785:13786   */\n      dup1\n        /* \"#utility.yul\":13778:13790   */\n      revert\n        /* \"#utility.yul\":13802:13919   */\n    tag_217:\n        /* \"#utility.yul\":13911:13912   */\n      0x00\n        /* \"#utility.yul\":13908:13909   */\n      dup1\n        /* \"#utility.yul\":13901:13913   */\n      revert\n        /* \"#utility.yul\":13925:14027   */\n    tag_279:\n        /* \"#utility.yul\":13966:13972   */\n      0x00\n        /* \"#utility.yul\":14017:14019   */\n      0x1f\n        /* \"#utility.yul\":14013:14020   */\n      not\n        /* \"#utility.yul\":14008:14010   */\n      0x1f\n        /* \"#utility.yul\":14001:14006   */\n      dup4\n        /* \"#utility.yul\":13997:14011   */\n      add\n        /* \"#utility.yul\":13993:14021   */\n      and\n        /* \"#utility.yul\":13983:14021   */\n      swap1\n      pop\n        /* \"#utility.yul\":13925:14027   */\n      swap2\n      swap1\n      pop\n      jump\t// out\n        /* \"#utility.yul\":14033:14146   */\n    tag_350:\n        /* \"#utility.yul\":14114:14115   */\n      0x03\n        /* \"#utility.yul\":14107:14112   */\n      dup2\n        /* \"#utility.yul\":14104:14116   */\n      lt\n        /* \"#utility.yul\":14094:14140   */\n      tag_381\n      jumpi\n        /* \"#utility.yul\":14120:14138   */\n      tag_382\n      tag_108\n      jump\t// in\n    tag_382:\n        /* \"#utility.yul\":14094:14140   */\n    tag_381:\n        /* \"#utility.yul\":14033:14146   */\n      pop\n      jump\t// out\n        /* \"#utility.yul\":14152:14274   */\n    tag_203:\n        /* \"#utility.yul\":14225:14249   */\n      tag_384\n        /* \"#utility.yul\":14243:14248   */\n      dup2\n        /* \"#utility.yul\":14225:14249   */\n      tag_247\n      jump\t// in\n    tag_384:\n        /* \"#utility.yul\":14218:14223   */\n      dup2\n        /* \"#utility.yul\":14215:14250   */\n      eq\n        /* \"#utility.yul\":14205:14268   */\n      tag_385\n      jumpi\n        /* \"#utility.yul\":14264:14265   */\n      0x00\n        /* \"#utility.yul\":14261:14262   */\n      dup1\n        /* \"#utility.yul\":14254:14266   */\n      revert\n        /* \"#utility.yul\":14205:14268   */\n    tag_385:\n        /* \"#utility.yul\":14152:14274   */\n      pop\n      jump\t// out\n        /* \"#utility.yul\":14280:14402   */\n    tag_213:\n        /* \"#utility.yul\":14353:14377   */\n      tag_387\n        /* \"#utility.yul\":14371:14376   */\n      dup2\n        /* \"#utility.yul\":14353:14377   */\n      tag_300\n      jump\t// in\n    tag_387:\n        /* \"#utility.yul\":14346:14351   */\n      dup2\n        /* \"#utility.yul\":14343:14378   */\n      eq\n        /* \"#utility.yul\":14333:14396   */\n      tag_388\n      jumpi\n        /* \"#utility.yul\":14392:14393   */\n      0x00\n        /* \"#utility.yul\":14389:14390   */\n      dup1\n        /* \"#utility.yul\":14382:14394   */\n      revert\n        /* \"#utility.yul\":14333:14396   */\n    tag_388:\n        /* \"#utility.yul\":14280:14402   */\n      pop\n      jump\t// out\n\n    auxdata: 0xa26469706673582212201b29b814d6264204c21ac54702afa1e23c527568c16f43b4f55ef2bf969feeb564736f6c63430008070033\n}\n",
				"bytecode": {
					"linkReferences": {},
					"object": "60806040526040518060600160405280600160ff168152602001600260ff168152602001600360ff1681525060019060036200003d929190620000c4565b506040518060400160405280600881526020017fd182d0b5d181d182000000000000000000000000000000000000000000000000815250601390805190602001906200008b9291906200010e565b507f7465737400000000000000000000000000000000000000000000000000000000601455348015620000bd57600080fd5b5062000223565b82600a8101928215620000fb579160200282015b82811115620000fa578251829060ff16905591602001919060010190620000d8565b5b5090506200010a91906200019f565b5090565b8280546200011c90620001be565b90600052602060002090601f0160209004810192826200014057600085556200018c565b82601f106200015b57805160ff19168380011785556200018c565b828001600101855582156200018c579182015b828111156200018b5782518255916020019190600101906200016e565b5b5090506200019b91906200019f565b5090565b5b80821115620001ba576000816000905550600101620001a0565b5090565b60006002820490506001821680620001d757607f821691505b60208210811415620001ee57620001ed620001f4565b5b50919050565b7f4e487b7100000000000000000000000000000000000000000000000000000000600052602260045260246000fd5b61142e80620002336000396000f3fe6080604052600436106100fe5760003560e01c8063691a82eb11610095578063bbdfbfba11610064578063bbdfbfba14610304578063bfb231d21461031b578063c6b9154014610358578063ef8a923514610383578063f3fd5c4c146103ae576100fe565b8063691a82eb1461024857806383a6deb514610285578063977a767c1461029c578063a34343c9146102d9576100fe565b80632b66d72e116100d15780632b66d72e146101ad57806341af56ee146101c957806345d0695f146101e0578063605853581461021d576100fe565b806307da3eae146101035780631b9265b81461012e5780631f7b6d321461014557806327e235e314610170575b600080fd5b34801561010f57600080fd5b506101186103d9565b6040516101259190611032565b60405180910390f35b34801561013a57600080fd5b506101436103ef565b005b34801561015157600080fd5b5061015a61041b565b6040516101679190611032565b60405180910390f35b34801561017c57600080fd5b5061019760048036038101906101929190610cb3565b610421565b6040516101a49190611032565b60405180910390f35b6101c760048036038101906101c29190610d20565b61043f565b005b3480156101d557600080fd5b506101de6105ef565b005b3480156101ec57600080fd5b5061020760048036038101906102029190610d96565b6106fb565b6040516102149190611032565b60405180910390f35b34801561022957600080fd5b50610232610729565b60405161023f9190610f9d565b60405180910390f35b34801561025457600080fd5b5061026f600480360381019061026a9190610d69565b61074a565b60405161027c9190611032565b60405180910390f35b34801561029157600080fd5b5061029a61076e565b005b3480156102a857600080fd5b506102c360048036038101906102be9190610ce0565b61079a565b6040516102d09190611010565b60405180910390f35b3480156102e557600080fd5b506102ee610904565b6040516102fb9190610f7b565b60405180910390f35b34801561031057600080fd5b5061031961097d565b005b34801561032757600080fd5b50610342600480360381019061033d9190610d69565b6109a9565b60405161034f9190611032565b60405180910390f35b34801561036457600080fd5b5061036d6109c4565b60405161037a9190610fb8565b60405180910390f35b34801561038f57600080fd5b506103986109ca565b6040516103a59190610ff5565b60405180910390f35b3480156103ba57600080fd5b506103c36109db565b6040516103d09190610fd3565b60405180910390f35b6000601380546103e890611243565b9050905090565b60008060006101000a81548160ff02191690836002811115610414576104136112d5565b5b0217905550565b60125481565b60156020528060005260406000206000915090508060000154905081565b6000601560003373ffffffffffffffffffffffffffffffffffffffff1673ffffffffffffffffffffffffffffffffffffffff1681526020019081526020016000206000015490506001601560003373ffffffffffffffffffffffffffffffffffffffff1673ffffffffffffffffffffffffffffffffffffffff16815260200190815260200160002060000160008282546104d99190611114565b92505081905550600060405180608001604052803481526020014281526020013373ffffffffffffffffffffffffffffffffffffffff16815260200184815250905080601560003373ffffffffffffffffffffffffffffffffffffffff1673ffffffffffffffffffffffffffffffffffffffff1681526020019081526020016000206001016000848152602001908152602001600020600082015181600001556020820151816001015560408201518160020160006101000a81548173ffffffffffffffffffffffffffffffffffffffff021916908373ffffffffffffffffffffffffffffffffffffffff16021790555060608201518160030190805190602001906105e6929190610a69565b50905050505050565b606460016000600a811061060657610605611333565b5b018190555060c860016005600a811061062257610621611333565b5b018190555060405180604001604052806040518060600160405280600160ff168152602001600260ff168152602001600360ff1681525081526020016040518060600160405280600460ff168152602001600560ff168152602001600660ff16815250815250600b906002610698929190610aef565b506011600a90806001815401808255809150506001900390600052602060002001600090919091909150556011601e9080600181540180825580915050600190039060005260206000200160009091909190915055601180549050601281905550565b600b826002811061070b57600080fd5b60030201816003811061071d57600080fd5b01600091509150505481565b600060145460006020811061074157610740611333565b5b1a60f81b905090565b6011818154811061075a57600080fd5b906000526020600020016000915090505481565b60026000806101000a81548160ff02191690836002811115610793576107926112d5565b5b0217905550565b6107a2610b40565b601560008473ffffffffffffffffffffffffffffffffffffffff1673ffffffffffffffffffffffffffffffffffffffff168152602001908152602001600020600101600083815260200190815260200160002060405180608001604052908160008201548152602001600182015481526020016002820160009054906101000a900473ffffffffffffffffffffffffffffffffffffffff1673ffffffffffffffffffffffffffffffffffffffff1673ffffffffffffffffffffffffffffffffffffffff16815260200160038201805461087a90611243565b80601f01602080910402602001604051908101604052809291908181526020018280546108a690611243565b80156108f35780601f106108c8576101008083540402835291602001916108f3565b820191906000526020600020905b8154815290600101906020018083116108d657829003601f168201915b505050505081525050905092915050565b60606000600a67ffffffffffffffff81111561092357610922611362565b5b6040519080825280602002602001820160405280156109515781602001602082028036833780820191505090505b50905060018160008151811061096a57610969611333565b5b6020026020010181815250508091505090565b60016000806101000a81548160ff021916908360028111156109a2576109a16112d5565b5b0217905550565b600181600a81106109b957600080fd5b016000915090505481565b60145481565b60008054906101000a900460ff1681565b601380546109e890611243565b80601f0160208091040260200160405190810160405280929190818152602001828054610a1490611243565b8015610a615780601f10610a3657610100808354040283529160200191610a61565b820191906000526020600020905b815481529060010190602001808311610a4457829003601f168201915b505050505081565b828054610a7590611243565b90600052602060002090601f016020900481019282610a975760008555610ade565b82601f10610ab057805160ff1916838001178555610ade565b82800160010185558215610ade579182015b82811115610add578251825591602001919060010190610ac2565b5b509050610aeb9190610b7e565b5090565b8260026003028101928215610b2f579160200282015b82811115610b2e57825182906003610b1e929190610b9b565b5091602001919060030190610b05565b5b509050610b3c9190610be0565b5090565b60405180608001604052806000815260200160008152602001600073ffffffffffffffffffffffffffffffffffffffff168152602001606081525090565b5b80821115610b97576000816000905550600101610b7f565b5090565b8260038101928215610bcf579160200282015b82811115610bce578251829060ff16905591602001919060010190610bae565b5b509050610bdc9190610b7e565b5090565b5b80821115610c005760008181610bf79190610c04565b50600301610be1565b5090565b50600081556001016000815560010160009055565b6000610c2c610c2784611072565b61104d565b905082815260208101848484011115610c4857610c47611396565b5b610c53848285611201565b509392505050565b600081359050610c6a816113ca565b92915050565b600082601f830112610c8557610c84611391565b5b8135610c95848260208601610c19565b91505092915050565b600081359050610cad816113e1565b92915050565b600060208284031215610cc957610cc86113a0565b5b6000610cd784828501610c5b565b91505092915050565b60008060408385031215610cf757610cf66113a0565b5b6000610d0585828601610c5b565b9250506020610d1685828601610c9e565b9150509250929050565b600060208284031215610d3657610d356113a0565b5b600082013567ffffffffffffffff811115610d5457610d5361139b565b5b610d6084828501610c70565b91505092915050565b600060208284031215610d7f57610d7e6113a0565b5b6000610d8d84828501610c9e565b91505092915050565b60008060408385031215610dad57610dac6113a0565b5b6000610dbb85828601610c9e565b9250506020610dcc85828601610c9e565b9150509250929050565b6000610de28383610f5d565b60208301905092915050565b610df78161116a565b82525050565b6000610e08826110b3565b610e1281856110e1565b9350610e1d836110a3565b8060005b83811015610e4e578151610e358882610dd6565b9750610e40836110d4565b925050600181019050610e21565b5085935050505092915050565b610e648161117c565b82525050565b610e73816111a8565b82525050565b6000610e84826110be565b610e8e81856110f2565b9350610e9e818560208601611210565b610ea7816113a5565b840191505092915050565b610ebb816111ef565b82525050565b6000610ecc826110c9565b610ed68185611103565b9350610ee6818560208601611210565b610eef816113a5565b840191505092915050565b6000608083016000830151610f126000860182610f5d565b506020830151610f256020860182610f5d565b506040830151610f386040860182610dee565b5060608301518482036060860152610f508282610ec1565b9150508091505092915050565b610f66816111e5565b82525050565b610f75816111e5565b82525050565b60006020820190508181036000830152610f958184610dfd565b905092915050565b6000602082019050610fb26000830184610e5b565b92915050565b6000602082019050610fcd6000830184610e6a565b92915050565b60006020820190508181036000830152610fed8184610e79565b905092915050565b600060208201905061100a6000830184610eb2565b92915050565b6000602082019050818103600083015261102a8184610efa565b905092915050565b60006020820190506110476000830184610f6c565b92915050565b6000611057611068565b90506110638282611275565b919050565b6000604051905090565b600067ffffffffffffffff82111561108d5761108c611362565b5b611096826113a5565b9050602081019050919050565b6000819050602082019050919050565b600081519050919050565b600081519050919050565b600081519050919050565b6000602082019050919050565b600082825260208201905092915050565b600082825260208201905092915050565b600082825260208201905092915050565b600061111f826111e5565b915061112a836111e5565b9250827fffffffffffffffffffffffffffffffffffffffffffffffffffffffffffffffff0382111561115f5761115e6112a6565b5b828201905092915050565b6000611175826111c5565b9050919050565b60007fff0000000000000000000000000000000000000000000000000000000000000082169050919050565b6000819050919050565b60008190506111c0826113b6565b919050565b600073ffffffffffffffffffffffffffffffffffffffff82169050919050565b6000819050919050565b60006111fa826111b2565b9050919050565b82818337600083830152505050565b60005b8381101561122e578082015181840152602081019050611213565b8381111561123d576000848401525b50505050565b6000600282049050600182168061125b57607f821691505b6020821081141561126f5761126e611304565b5b50919050565b61127e826113a5565b810181811067ffffffffffffffff8211171561129d5761129c611362565b5b80604052505050565b7f4e487b7100000000000000000000000000000000000000000000000000000000600052601160045260246000fd5b7f4e487b7100000000000000000000000000000000000000000000000000000000600052602160045260246000fd5b7f4e487b7100000000000000000000000000000000000000000000000000000000600052602260045260246000fd5b7f4e487b7100000000000000000000000000000000000000000000000000000000600052603260045260246000fd5b7f4e487b7100000000000000000000000000000000000000000000000000000000600052604160045260246000fd5b600080fd5b600080fd5b600080fd5b600080fd5b6000601f19601f8301169050919050565b600381106113c7576113c66112d5565b5b50565b6113d38161116a565b81146113de57600080fd5b50565b6113ea816111e5565b81146113f557600080fd5b5056fea26469706673582212201b29b814d6264204c21ac54702afa1e23c527568c16f43b4f55ef2bf969feeb564736f6c63430008070033",
					"opcodes": "PUSH1 0x80 PUSH1 0x40 MSTORE PUSH1 0x40 MLOAD DUP1 PUSH1 0x60 ADD PUSH1 0x40 MSTORE DUP1 PUSH1 0x1 PUSH1 0xFF AND DUP2 MSTORE PUSH1 0x20 ADD PUSH1 0x2 PUSH1 0xFF AND DUP2 MSTORE PUSH1 0x20 ADD PUSH1 0x3 PUSH1 0xFF AND DUP2 MSTORE POP PUSH1 0x1 SWAP1 PUSH1 0x3 PUSH3 0x3D SWAP3 SWAP2 SWAP1 PUSH3 0xC4 JUMP JUMPDEST POP PUSH1 0x40 MLOAD DUP1 PUSH1 0x40 ADD PUSH1 0x40 MSTORE DUP1 PUSH1 0x8 DUP2 MSTORE PUSH1 0x20 ADD PUSH32 0xD182D0B5D181D182000000000000000000000000000000000000000000000000 DUP2 MSTORE POP PUSH1 0x13 SWAP1 DUP1 MLOAD SWAP1 PUSH1 0x20 ADD SWAP1 PUSH3 0x8B SWAP3 SWAP2 SWAP1 PUSH3 0x10E JUMP JUMPDEST POP PUSH32 0x7465737400000000000000000000000000000000000000000000000000000000 PUSH1 0x14 SSTORE CALLVALUE DUP1 ISZERO PUSH3 0xBD JUMPI PUSH1 0x0 DUP1 REVERT JUMPDEST POP PUSH3 0x223 JUMP JUMPDEST DUP3 PUSH1 0xA DUP2 ADD SWAP3 DUP3 ISZERO PUSH3 0xFB JUMPI SWAP2 PUSH1 0x20 MUL DUP3 ADD JUMPDEST DUP3 DUP2 GT ISZERO PUSH3 0xFA JUMPI DUP3 MLOAD DUP3 SWAP1 PUSH1 0xFF AND SWAP1 SSTORE SWAP2 PUSH1 0x20 ADD SWAP2 SWAP1 PUSH1 0x1 ADD SWAP1 PUSH3 0xD8 JUMP JUMPDEST JUMPDEST POP SWAP1 POP PUSH3 0x10A SWAP2 SWAP1 PUSH3 0x19F JUMP JUMPDEST POP SWAP1 JUMP JUMPDEST DUP3 DUP1 SLOAD PUSH3 0x11C SWAP1 PUSH3 0x1BE JUMP JUMPDEST SWAP1 PUSH1 0x0 MSTORE PUSH1 0x20 PUSH1 0x0 KECCAK256 SWAP1 PUSH1 0x1F ADD PUSH1 0x20 SWAP1 DIV DUP2 ADD SWAP3 DUP3 PUSH3 0x140 JUMPI PUSH1 0x0 DUP6 SSTORE PUSH3 0x18C JUMP JUMPDEST DUP3 PUSH1 0x1F LT PUSH3 0x15B JUMPI DUP1 MLOAD PUSH1 0xFF NOT AND DUP4 DUP1 ADD OR DUP6 SSTORE PUSH3 0x18C JUMP JUMPDEST DUP3 DUP1 ADD PUSH1 0x1 ADD DUP6 SSTORE DUP3 ISZERO PUSH3 0x18C JUMPI SWAP2 DUP3 ADD JUMPDEST DUP3 DUP2 GT ISZERO PUSH3 0x18B JUMPI DUP3 MLOAD DUP3 SSTORE SWAP2 PUSH1 0x20 ADD SWAP2 SWAP1 PUSH1 0x1 ADD SWAP1 PUSH3 0x16E JUMP JUMPDEST JUMPDEST POP SWAP1 POP PUSH3 0x19B SWAP2 SWAP1 PUSH3 0x19F JUMP JUMPDEST POP SWAP1 JUMP JUMPDEST JUMPDEST DUP1 DUP3 GT ISZERO PUSH3 0x1BA JUMPI PUSH1 0x0 DUP2 PUSH1 0x0 SWAP1 SSTORE POP PUSH1 0x1 ADD PUSH3 0x1A0 JUMP JUMPDEST POP SWAP1 JUMP JUMPDEST PUSH1 0x0 PUSH1 0x2 DUP3 DIV SWAP1 POP PUSH1 0x1 DUP3 AND DUP1 PUSH3 0x1D7 JUMPI PUSH1 0x7F DUP3 AND SWAP2 POP JUMPDEST PUSH1 0x20 DUP3 LT DUP2 EQ ISZERO PUSH3 0x1EE JUMPI PUSH3 0x1ED PUSH3 0x1F4 JUMP JUMPDEST JUMPDEST POP SWAP2 SWAP1 POP JUMP JUMPDEST PUSH32 0x4E487B7100000000000000000000000000000000000000000000000000000000 PUSH1 0x0 MSTORE PUSH1 0x22 PUSH1 0x4 MSTORE PUSH1 0x24 PUSH1 0x0 REVERT JUMPDEST PUSH2 0x142E DUP1 PUSH3 0x233 PUSH1 0x0 CODECOPY PUSH1 0x0 RETURN INVALID PUSH1 0x80 PUSH1 0x40 MSTORE PUSH1 0x4 CALLDATASIZE LT PUSH2 0xFE JUMPI PUSH1 0x0 CALLDATALOAD PUSH1 0xE0 SHR DUP1 PUSH4 0x691A82EB GT PUSH2 0x95 JUMPI DUP1 PUSH4 0xBBDFBFBA GT PUSH2 0x64 JUMPI DUP1 PUSH4 0xBBDFBFBA EQ PUSH2 0x304 JUMPI DUP1 PUSH4 0xBFB231D2 EQ PUSH2 0x31B JUMPI DUP1 PUSH4 0xC6B91540 EQ PUSH2 0x358 JUMPI DUP1 PUSH4 0xEF8A9235 EQ PUSH2 0x383 JUMPI DUP1 PUSH4 0xF3FD5C4C EQ PUSH2 0x3AE JUMPI PUSH2 0xFE JUMP JUMPDEST DUP1 PUSH4 0x691A82EB EQ PUSH2 0x248 JUMPI DUP1 PUSH4 0x83A6DEB5 EQ PUSH2 0x285 JUMPI DUP1 PUSH4 0x977A767C EQ PUSH2 0x29C JUMPI DUP1 PUSH4 0xA34343C9 EQ PUSH2 0x2D9 JUMPI PUSH2 0xFE JUMP JUMPDEST DUP1 PUSH4 0x2B66D72E GT PUSH2 0xD1 JUMPI DUP1 PUSH4 0x2B66D72E EQ PUSH2 0x1AD JUMPI DUP1 PUSH4 0x41AF56EE EQ PUSH2 0x1C9 JUMPI DUP1 PUSH4 0x45D0695F EQ PUSH2 0x1E0 JUMPI DUP1 PUSH4 0x60585358 EQ PUSH2 0x21D JUMPI PUSH2 0xFE JUMP JUMPDEST DUP1 PUSH4 0x7DA3EAE EQ PUSH2 0x103 JUMPI DUP1 PUSH4 0x1B9265B8 EQ PUSH2 0x12E JUMPI DUP1 PUSH4 0x1F7B6D32 EQ PUSH2 0x145 JUMPI DUP1 PUSH4 0x27E235E3 EQ PUSH2 0x170 JUMPI JUMPDEST PUSH1 0x0 DUP1 REVERT JUMPDEST CALLVALUE DUP1 ISZERO PUSH2 0x10F JUMPI PUSH1 0x0 DUP1 REVERT JUMPDEST POP PUSH2 0x118 PUSH2 0x3D9 JUMP JUMPDEST PUSH1 0x40 MLOAD PUSH2 0x125 SWAP2 SWAP1 PUSH2 0x1032 JUMP JUMPDEST PUSH1 0x40 MLOAD DUP1 SWAP2 SUB SWAP1 RETURN JUMPDEST CALLVALUE DUP1 ISZERO PUSH2 0x13A JUMPI PUSH1 0x0 DUP1 REVERT JUMPDEST POP PUSH2 0x143 PUSH2 0x3EF JUMP JUMPDEST STOP JUMPDEST CALLVALUE DUP1 ISZERO PUSH2 0x151 JUMPI PUSH1 0x0 DUP1 REVERT JUMPDEST POP PUSH2 0x15A PUSH2 0x41B JUMP JUMPDEST PUSH1 0x40 MLOAD PUSH2 0x167 SWAP2 SWAP1 PUSH2 0x1032 JUMP JUMPDEST PUSH1 0x40 MLOAD DUP1 SWAP2 SUB SWAP1 RETURN JUMPDEST CALLVALUE DUP1 ISZERO PUSH2 0x17C JUMPI PUSH1 0x0 DUP1 REVERT JUMPDEST POP PUSH2 0x197 PUSH1 0x4 DUP1 CALLDATASIZE SUB DUP2 ADD SWAP1 PUSH2 0x192 SWAP2 SWAP1 PUSH2 0xCB3 JUMP JUMPDEST PUSH2 0x421 JUMP JUMPDEST PUSH1 0x40 MLOAD PUSH2 0x1A4 SWAP2 SWAP1 PUSH2 0x1032 JUMP JUMPDEST PUSH1 0x40 MLOAD DUP1 SWAP2 SUB SWAP1 RETURN JUMPDEST PUSH2 0x1C7 PUSH1 0x4 DUP1 CALLDATASIZE SUB DUP2 ADD SWAP1 PUSH2 0x1C2 SWAP2 SWAP1 PUSH2 0xD20 JUMP JUMPDEST PUSH2 0x43F JUMP JUMPDEST STOP JUMPDEST CALLVALUE DUP1 ISZERO PUSH2 0x1D5 JUMPI PUSH1 0x0 DUP1 REVERT JUMPDEST POP PUSH2 0x1DE PUSH2 0x5EF JUMP JUMPDEST STOP JUMPDEST CALLVALUE DUP1 ISZERO PUSH2 0x1EC JUMPI PUSH1 0x0 DUP1 REVERT JUMPDEST POP PUSH2 0x207 PUSH1 0x4 DUP1 CALLDATASIZE SUB DUP2 ADD SWAP1 PUSH2 0x202 SWAP2 SWAP1 PUSH2 0xD96 JUMP JUMPDEST PUSH2 0x6FB JUMP JUMPDEST PUSH1 0x40 MLOAD PUSH2 0x214 SWAP2 SWAP1 PUSH2 0x1032 JUMP JUMPDEST PUSH1 0x40 MLOAD DUP1 SWAP2 SUB SWAP1 RETURN JUMPDEST CALLVALUE DUP1 ISZERO PUSH2 0x229 JUMPI PUSH1 0x0 DUP1 REVERT JUMPDEST POP PUSH2 0x232 PUSH2 0x729 JUMP JUMPDEST PUSH1 0x40 MLOAD PUSH2 0x23F SWAP2 SWAP1 PUSH2 0xF9D JUMP JUMPDEST PUSH1 0x40 MLOAD DUP1 SWAP2 SUB SWAP1 RETURN JUMPDEST CALLVALUE DUP1 ISZERO PUSH2 0x254 JUMPI PUSH1 0x0 DUP1 REVERT JUMPDEST POP PUSH2 0x26F PUSH1 0x4 DUP1 CALLDATASIZE SUB DUP2 ADD SWAP1 PUSH2 0x26A SWAP2 SWAP1 PUSH2 0xD69 JUMP JUMPDEST PUSH2 0x74A JUMP JUMPDEST PUSH1 0x40 MLOAD PUSH2 0x27C SWAP2 SWAP1 PUSH2 0x1032 JUMP JUMPDEST PUSH1 0x40 MLOAD DUP1 SWAP2 SUB SWAP1 RETURN JUMPDEST CALLVALUE DUP1 ISZERO PUSH2 0x291 JUMPI PUSH1 0x0 DUP1 REVERT JUMPDEST POP PUSH2 0x29A PUSH2 0x76E JUMP JUMPDEST STOP JUMPDEST CALLVALUE DUP1 ISZERO PUSH2 0x2A8 JUMPI PUSH1 0x0 DUP1 REVERT JUMPDEST POP PUSH2 0x2C3 PUSH1 0x4 DUP1 CALLDATASIZE SUB DUP2 ADD SWAP1 PUSH2 0x2BE SWAP2 SWAP1 PUSH2 0xCE0 JUMP JUMPDEST PUSH2 0x79A JUMP JUMPDEST PUSH1 0x40 MLOAD PUSH2 0x2D0 SWAP2 SWAP1 PUSH2 0x1010 JUMP JUMPDEST PUSH1 0x40 MLOAD DUP1 SWAP2 SUB SWAP1 RETURN JUMPDEST CALLVALUE DUP1 ISZERO PUSH2 0x2E5 JUMPI PUSH1 0x0 DUP1 REVERT JUMPDEST POP PUSH2 0x2EE PUSH2 0x904 JUMP JUMPDEST PUSH1 0x40 MLOAD PUSH2 0x2FB SWAP2 SWAP1 PUSH2 0xF7B JUMP JUMPDEST PUSH1 0x40 MLOAD DUP1 SWAP2 SUB SWAP1 RETURN JUMPDEST CALLVALUE DUP1 ISZERO PUSH2 0x310 JUMPI PUSH1 0x0 DUP1 REVERT JUMPDEST POP PUSH2 0x319 PUSH2 0x97D JUMP JUMPDEST STOP JUMPDEST CALLVALUE DUP1 ISZERO PUSH2 0x327 JUMPI PUSH1 0x0 DUP1 REVERT JUMPDEST POP PUSH2 0x342 PUSH1 0x4 DUP1 CALLDATASIZE SUB DUP2 ADD SWAP1 PUSH2 0x33D SWAP2 SWAP1 PUSH2 0xD69 JUMP JUMPDEST PUSH2 0x9A9 JUMP JUMPDEST PUSH1 0x40 MLOAD PUSH2 0x34F SWAP2 SWAP1 PUSH2 0x1032 JUMP JUMPDEST PUSH1 0x40 MLOAD DUP1 SWAP2 SUB SWAP1 RETURN JUMPDEST CALLVALUE DUP1 ISZERO PUSH2 0x364 JUMPI PUSH1 0x0 DUP1 REVERT JUMPDEST POP PUSH2 0x36D PUSH2 0x9C4 JUMP JUMPDEST PUSH1 0x40 MLOAD PUSH2 0x37A SWAP2 SWAP1 PUSH2 0xFB8 JUMP JUMPDEST PUSH1 0x40 MLOAD DUP1 SWAP2 SUB SWAP1 RETURN JUMPDEST CALLVALUE DUP1 ISZERO PUSH2 0x38F JUMPI PUSH1 0x0 DUP1 REVERT JUMPDEST POP PUSH2 0x398 PUSH2 0x9CA JUMP JUMPDEST PUSH1 0x40 MLOAD PUSH2 0x3A5 SWAP2 SWAP1 PUSH2 0xFF5 JUMP JUMPDEST PUSH1 0x40 MLOAD DUP1 SWAP2 SUB SWAP1 RETURN JUMPDEST CALLVALUE DUP1 ISZERO PUSH2 0x3BA JUMPI PUSH1 0x0 DUP1 REVERT JUMPDEST POP PUSH2 0x3C3 PUSH2 0x9DB JUMP JUMPDEST PUSH1 0x40 MLOAD PUSH2 0x3D0 SWAP2 SWAP1 PUSH2 0xFD3 JUMP JUMPDEST PUSH1 0x40 MLOAD DUP1 SWAP2 SUB SWAP1 RETURN JUMPDEST PUSH1 0x0 PUSH1 0x13 DUP1 SLOAD PUSH2 0x3E8 SWAP1 PUSH2 0x1243 JUMP JUMPDEST SWAP1 POP SWAP1 POP SWAP1 JUMP JUMPDEST PUSH1 0x0 DUP1 PUSH1 0x0 PUSH2 0x100 EXP DUP2 SLOAD DUP2 PUSH1 0xFF MUL NOT AND SWAP1 DUP4 PUSH1 0x2 DUP2 GT ISZERO PUSH2 0x414 JUMPI PUSH2 0x413 PUSH2 0x12D5 JUMP JUMPDEST JUMPDEST MUL OR SWAP1 SSTORE POP JUMP JUMPDEST PUSH1 0x12 SLOAD DUP2 JUMP JUMPDEST PUSH1 0x15 PUSH1 0x20 MSTORE DUP1 PUSH1 0x0 MSTORE PUSH1 0x40 PUSH1 0x0 KECCAK256 PUSH1 0x0 SWAP2 POP SWAP1 POP DUP1 PUSH1 0x0 ADD SLOAD SWAP1 POP DUP2 JUMP JUMPDEST PUSH1 0x0 PUSH1 0x15 PUSH1 0x0 CALLER PUSH20 0xFFFFFFFFFFFFFFFFFFFFFFFFFFFFFFFFFFFFFFFF AND PUSH20 0xFFFFFFFFFFFFFFFFFFFFFFFFFFFFFFFFFFFFFFFF AND DUP2 MSTORE PUSH1 0x20 ADD SWAP1 DUP2 MSTORE PUSH1 0x20 ADD PUSH1 0x0 KECCAK256 PUSH1 0x0 ADD SLOAD SWAP1 POP PUSH1 0x1 PUSH1 0x15 PUSH1 0x0 CALLER PUSH20 0xFFFFFFFFFFFFFFFFFFFFFFFFFFFFFFFFFFFFFFFF AND PUSH20 0xFFFFFFFFFFFFFFFFFFFFFFFFFFFFFFFFFFFFFFFF AND DUP2 MSTORE PUSH1 0x20 ADD SWAP1 DUP2 MSTORE PUSH1 0x20 ADD PUSH1 0x0 KECCAK256 PUSH1 0x0 ADD PUSH1 0x0 DUP3 DUP3 SLOAD PUSH2 0x4D9 SWAP2 SWAP1 PUSH2 0x1114 JUMP JUMPDEST SWAP3 POP POP DUP2 SWAP1 SSTORE POP PUSH1 0x0 PUSH1 0x40 MLOAD DUP1 PUSH1 0x80 ADD PUSH1 0x40 MSTORE DUP1 CALLVALUE DUP2 MSTORE PUSH1 0x20 ADD TIMESTAMP DUP2 MSTORE PUSH1 0x20 ADD CALLER PUSH20 0xFFFFFFFFFFFFFFFFFFFFFFFFFFFFFFFFFFFFFFFF AND DUP2 MSTORE PUSH1 0x20 ADD DUP5 DUP2 MSTORE POP SWAP1 POP DUP1 PUSH1 0x15 PUSH1 0x0 CALLER PUSH20 0xFFFFFFFFFFFFFFFFFFFFFFFFFFFFFFFFFFFFFFFF AND PUSH20 0xFFFFFFFFFFFFFFFFFFFFFFFFFFFFFFFFFFFFFFFF AND DUP2 MSTORE PUSH1 0x20 ADD SWAP1 DUP2 MSTORE PUSH1 0x20 ADD PUSH1 0x0 KECCAK256 PUSH1 0x1 ADD PUSH1 0x0 DUP5 DUP2 MSTORE PUSH1 0x20 ADD SWAP1 DUP2 MSTORE PUSH1 0x20 ADD PUSH1 0x0 KECCAK256 PUSH1 0x0 DUP3 ADD MLOAD DUP2 PUSH1 0x0 ADD SSTORE PUSH1 0x20 DUP3 ADD MLOAD DUP2 PUSH1 0x1 ADD SSTORE PUSH1 0x40 DUP3 ADD MLOAD DUP2 PUSH1 0x2 ADD PUSH1 0x0 PUSH2 0x100 EXP DUP2 SLOAD DUP2 PUSH20 0xFFFFFFFFFFFFFFFFFFFFFFFFFFFFFFFFFFFFFFFF MUL NOT AND SWAP1 DUP4 PUSH20 0xFFFFFFFFFFFFFFFFFFFFFFFFFFFFFFFFFFFFFFFF AND MUL OR SWAP1 SSTORE POP PUSH1 0x60 DUP3 ADD MLOAD DUP2 PUSH1 0x3 ADD SWAP1 DUP1 MLOAD SWAP1 PUSH1 0x20 ADD SWAP1 PUSH2 0x5E6 SWAP3 SWAP2 SWAP1 PUSH2 0xA69 JUMP JUMPDEST POP SWAP1 POP POP POP POP POP JUMP JUMPDEST PUSH1 0x64 PUSH1 0x1 PUSH1 0x0 PUSH1 0xA DUP2 LT PUSH2 0x606 JUMPI PUSH2 0x605 PUSH2 0x1333 JUMP JUMPDEST JUMPDEST ADD DUP2 SWAP1 SSTORE POP PUSH1 0xC8 PUSH1 0x1 PUSH1 0x5 PUSH1 0xA DUP2 LT PUSH2 0x622 JUMPI PUSH2 0x621 PUSH2 0x1333 JUMP JUMPDEST JUMPDEST ADD DUP2 SWAP1 SSTORE POP PUSH1 0x40 MLOAD DUP1 PUSH1 0x40 ADD PUSH1 0x40 MSTORE DUP1 PUSH1 0x40 MLOAD DUP1 PUSH1 0x60 ADD PUSH1 0x40 MSTORE DUP1 PUSH1 0x1 PUSH1 0xFF AND DUP2 MSTORE PUSH1 0x20 ADD PUSH1 0x2 PUSH1 0xFF AND DUP2 MSTORE PUSH1 0x20 ADD PUSH1 0x3 PUSH1 0xFF AND DUP2 MSTORE POP DUP2 MSTORE PUSH1 0x20 ADD PUSH1 0x40 MLOAD DUP1 PUSH1 0x60 ADD PUSH1 0x40 MSTORE DUP1 PUSH1 0x4 PUSH1 0xFF AND DUP2 MSTORE PUSH1 0x20 ADD PUSH1 0x5 PUSH1 0xFF AND DUP2 MSTORE PUSH1 0x20 ADD PUSH1 0x6 PUSH1 0xFF AND DUP2 MSTORE POP DUP2 MSTORE POP PUSH1 0xB SWAP1 PUSH1 0x2 PUSH2 0x698 SWAP3 SWAP2 SWAP1 PUSH2 0xAEF JUMP JUMPDEST POP PUSH1 0x11 PUSH1 0xA SWAP1 DUP1 PUSH1 0x1 DUP2 SLOAD ADD DUP1 DUP3 SSTORE DUP1 SWAP2 POP POP PUSH1 0x1 SWAP1 SUB SWAP1 PUSH1 0x0 MSTORE PUSH1 0x20 PUSH1 0x0 KECCAK256 ADD PUSH1 0x0 SWAP1 SWAP2 SWAP1 SWAP2 SWAP1 SWAP2 POP SSTORE PUSH1 0x11 PUSH1 0x1E SWAP1 DUP1 PUSH1 0x1 DUP2 SLOAD ADD DUP1 DUP3 SSTORE DUP1 SWAP2 POP POP PUSH1 0x1 SWAP1 SUB SWAP1 PUSH1 0x0 MSTORE PUSH1 0x20 PUSH1 0x0 KECCAK256 ADD PUSH1 0x0 SWAP1 SWAP2 SWAP1 SWAP2 SWAP1 SWAP2 POP SSTORE PUSH1 0x11 DUP1 SLOAD SWAP1 POP PUSH1 0x12 DUP2 SWAP1 SSTORE POP JUMP JUMPDEST PUSH1 0xB DUP3 PUSH1 0x2 DUP2 LT PUSH2 0x70B JUMPI PUSH1 0x0 DUP1 REVERT JUMPDEST PUSH1 0x3 MUL ADD DUP2 PUSH1 0x3 DUP2 LT PUSH2 0x71D JUMPI PUSH1 0x0 DUP1 REVERT JUMPDEST ADD PUSH1 0x0 SWAP2 POP SWAP2 POP POP SLOAD DUP2 JUMP JUMPDEST PUSH1 0x0 PUSH1 0x14 SLOAD PUSH1 0x0 PUSH1 0x20 DUP2 LT PUSH2 0x741 JUMPI PUSH2 0x740 PUSH2 0x1333 JUMP JUMPDEST JUMPDEST BYTE PUSH1 0xF8 SHL SWAP1 POP SWAP1 JUMP JUMPDEST PUSH1 0x11 DUP2 DUP2 SLOAD DUP2 LT PUSH2 0x75A JUMPI PUSH1 0x0 DUP1 REVERT JUMPDEST SWAP1 PUSH1 0x0 MSTORE PUSH1 0x20 PUSH1 0x0 KECCAK256 ADD PUSH1 0x0 SWAP2 POP SWAP1 POP SLOAD DUP2 JUMP JUMPDEST PUSH1 0x2 PUSH1 0x0 DUP1 PUSH2 0x100 EXP DUP2 SLOAD DUP2 PUSH1 0xFF MUL NOT AND SWAP1 DUP4 PUSH1 0x2 DUP2 GT ISZERO PUSH2 0x793 JUMPI PUSH2 0x792 PUSH2 0x12D5 JUMP JUMPDEST JUMPDEST MUL OR SWAP1 SSTORE POP JUMP JUMPDEST PUSH2 0x7A2 PUSH2 0xB40 JUMP JUMPDEST PUSH1 0x15 PUSH1 0x0 DUP5 PUSH20 0xFFFFFFFFFFFFFFFFFFFFFFFFFFFFFFFFFFFFFFFF AND PUSH20 0xFFFFFFFFFFFFFFFFFFFFFFFFFFFFFFFFFFFFFFFF AND DUP2 MSTORE PUSH1 0x20 ADD SWAP1 DUP2 MSTORE PUSH1 0x20 ADD PUSH1 0x0 KECCAK256 PUSH1 0x1 ADD PUSH1 0x0 DUP4 DUP2 MSTORE PUSH1 0x20 ADD SWAP1 DUP2 MSTORE PUSH1 0x20 ADD PUSH1 0x0 KECCAK256 PUSH1 0x40 MLOAD DUP1 PUSH1 0x80 ADD PUSH1 0x40 MSTORE SWAP1 DUP2 PUSH1 0x0 DUP3 ADD SLOAD DUP2 MSTORE PUSH1 0x20 ADD PUSH1 0x1 DUP3 ADD SLOAD DUP2 MSTORE PUSH1 0x20 ADD PUSH1 0x2 DUP3 ADD PUSH1 0x0 SWAP1 SLOAD SWAP1 PUSH2 0x100 EXP SWAP1 DIV PUSH20 0xFFFFFFFFFFFFFFFFFFFFFFFFFFFFFFFFFFFFFFFF AND PUSH20 0xFFFFFFFFFFFFFFFFFFFFFFFFFFFFFFFFFFFFFFFF AND PUSH20 0xFFFFFFFFFFFFFFFFFFFFFFFFFFFFFFFFFFFFFFFF AND DUP2 MSTORE PUSH1 0x20 ADD PUSH1 0x3 DUP3 ADD DUP1 SLOAD PUSH2 0x87A SWAP1 PUSH2 0x1243 JUMP JUMPDEST DUP1 PUSH1 0x1F ADD PUSH1 0x20 DUP1 SWAP2 DIV MUL PUSH1 0x20 ADD PUSH1 0x40 MLOAD SWAP1 DUP2 ADD PUSH1 0x40 MSTORE DUP1 SWAP3 SWAP2 SWAP1 DUP2 DUP2 MSTORE PUSH1 0x20 ADD DUP3 DUP1 SLOAD PUSH2 0x8A6 SWAP1 PUSH2 0x1243 JUMP JUMPDEST DUP1 ISZERO PUSH2 0x8F3 JUMPI DUP1 PUSH1 0x1F LT PUSH2 0x8C8 JUMPI PUSH2 0x100 DUP1 DUP4 SLOAD DIV MUL DUP4 MSTORE SWAP2 PUSH1 0x20 ADD SWAP2 PUSH2 0x8F3 JUMP JUMPDEST DUP3 ADD SWAP2 SWAP1 PUSH1 0x0 MSTORE PUSH1 0x20 PUSH1 0x0 KECCAK256 SWAP1 JUMPDEST DUP2 SLOAD DUP2 MSTORE SWAP1 PUSH1 0x1 ADD SWAP1 PUSH1 0x20 ADD DUP1 DUP4 GT PUSH2 0x8D6 JUMPI DUP3 SWAP1 SUB PUSH1 0x1F AND DUP3 ADD SWAP2 JUMPDEST POP POP POP POP POP DUP2 MSTORE POP POP SWAP1 POP SWAP3 SWAP2 POP POP JUMP JUMPDEST PUSH1 0x60 PUSH1 0x0 PUSH1 0xA PUSH8 0xFFFFFFFFFFFFFFFF DUP2 GT ISZERO PUSH2 0x923 JUMPI PUSH2 0x922 PUSH2 0x1362 JUMP JUMPDEST JUMPDEST PUSH1 0x40 MLOAD SWAP1 DUP1 DUP3 MSTORE DUP1 PUSH1 0x20 MUL PUSH1 0x20 ADD DUP3 ADD PUSH1 0x40 MSTORE DUP1 ISZERO PUSH2 0x951 JUMPI DUP2 PUSH1 0x20 ADD PUSH1 0x20 DUP3 MUL DUP1 CALLDATASIZE DUP4 CALLDATACOPY DUP1 DUP3 ADD SWAP2 POP POP SWAP1 POP JUMPDEST POP SWAP1 POP PUSH1 0x1 DUP2 PUSH1 0x0 DUP2 MLOAD DUP2 LT PUSH2 0x96A JUMPI PUSH2 0x969 PUSH2 0x1333 JUMP JUMPDEST JUMPDEST PUSH1 0x20 MUL PUSH1 0x20 ADD ADD DUP2 DUP2 MSTORE POP POP DUP1 SWAP2 POP POP SWAP1 JUMP JUMPDEST PUSH1 0x1 PUSH1 0x0 DUP1 PUSH2 0x100 EXP DUP2 SLOAD DUP2 PUSH1 0xFF MUL NOT AND SWAP1 DUP4 PUSH1 0x2 DUP2 GT ISZERO PUSH2 0x9A2 JUMPI PUSH2 0x9A1 PUSH2 0x12D5 JUMP JUMPDEST JUMPDEST MUL OR SWAP1 SSTORE POP JUMP JUMPDEST PUSH1 0x1 DUP2 PUSH1 0xA DUP2 LT PUSH2 0x9B9 JUMPI PUSH1 0x0 DUP1 REVERT JUMPDEST ADD PUSH1 0x0 SWAP2 POP SWAP1 POP SLOAD DUP2 JUMP JUMPDEST PUSH1 0x14 SLOAD DUP2 JUMP JUMPDEST PUSH1 0x0 DUP1 SLOAD SWAP1 PUSH2 0x100 EXP SWAP1 DIV PUSH1 0xFF AND DUP2 JUMP JUMPDEST PUSH1 0x13 DUP1 SLOAD PUSH2 0x9E8 SWAP1 PUSH2 0x1243 JUMP JUMPDEST DUP1 PUSH1 0x1F ADD PUSH1 0x20 DUP1 SWAP2 DIV MUL PUSH1 0x20 ADD PUSH1 0x40 MLOAD SWAP1 DUP2 ADD PUSH1 0x40 MSTORE DUP1 SWAP3 SWAP2 SWAP1 DUP2 DUP2 MSTORE PUSH1 0x20 ADD DUP3 DUP1 SLOAD PUSH2 0xA14 SWAP1 PUSH2 0x1243 JUMP JUMPDEST DUP1 ISZERO PUSH2 0xA61 JUMPI DUP1 PUSH1 0x1F LT PUSH2 0xA36 JUMPI PUSH2 0x100 DUP1 DUP4 SLOAD DIV MUL DUP4 MSTORE SWAP2 PUSH1 0x20 ADD SWAP2 PUSH2 0xA61 JUMP JUMPDEST DUP3 ADD SWAP2 SWAP1 PUSH1 0x0 MSTORE PUSH1 0x20 PUSH1 0x0 KECCAK256 SWAP1 JUMPDEST DUP2 SLOAD DUP2 MSTORE SWAP1 PUSH1 0x1 ADD SWAP1 PUSH1 0x20 ADD DUP1 DUP4 GT PUSH2 0xA44 JUMPI DUP3 SWAP1 SUB PUSH1 0x1F AND DUP3 ADD SWAP2 JUMPDEST POP POP POP POP POP DUP2 JUMP JUMPDEST DUP3 DUP1 SLOAD PUSH2 0xA75 SWAP1 PUSH2 0x1243 JUMP JUMPDEST SWAP1 PUSH1 0x0 MSTORE PUSH1 0x20 PUSH1 0x0 KECCAK256 SWAP1 PUSH1 0x1F ADD PUSH1 0x20 SWAP1 DIV DUP2 ADD SWAP3 DUP3 PUSH2 0xA97 JUMPI PUSH1 0x0 DUP6 SSTORE PUSH2 0xADE JUMP JUMPDEST DUP3 PUSH1 0x1F LT PUSH2 0xAB0 JUMPI DUP1 MLOAD PUSH1 0xFF NOT AND DUP4 DUP1 ADD OR DUP6 SSTORE PUSH2 0xADE JUMP JUMPDEST DUP3 DUP1 ADD PUSH1 0x1 ADD DUP6 SSTORE DUP3 ISZERO PUSH2 0xADE JUMPI SWAP2 DUP3 ADD JUMPDEST DUP3 DUP2 GT ISZERO PUSH2 0xADD JUMPI DUP3 MLOAD DUP3 SSTORE SWAP2 PUSH1 0x20 ADD SWAP2 SWAP1 PUSH1 0x1 ADD SWAP1 PUSH2 0xAC2 JUMP JUMPDEST JUMPDEST POP SWAP1 POP PUSH2 0xAEB SWAP2 SWAP1 PUSH2 0xB7E JUMP JUMPDEST POP SWAP1 JUMP JUMPDEST DUP3 PUSH1 0x2 PUSH1 0x3 MUL DUP2 ADD SWAP3 DUP3 ISZERO PUSH2 0xB2F JUMPI SWAP2 PUSH1 0x20 MUL DUP3 ADD JUMPDEST DUP3 DUP2 GT ISZERO PUSH2 0xB2E JUMPI DUP3 MLOAD DUP3 SWAP1 PUSH1 0x3 PUSH2 0xB1E SWAP3 SWAP2 SWAP1 PUSH2 0xB9B JUMP JUMPDEST POP SWAP2 PUSH1 0x20 ADD SWAP2 SWAP1 PUSH1 0x3 ADD SWAP1 PUSH2 0xB05 JUMP JUMPDEST JUMPDEST POP SWAP1 POP PUSH2 0xB3C SWAP2 SWAP1 PUSH2 0xBE0 JUMP JUMPDEST POP SWAP1 JUMP JUMPDEST PUSH1 0x40 MLOAD DUP1 PUSH1 0x80 ADD PUSH1 0x40 MSTORE DUP1 PUSH1 0x0 DUP2 MSTORE PUSH1 0x20 ADD PUSH1 0x0 DUP2 MSTORE PUSH1 0x20 ADD PUSH1 0x0 PUSH20 0xFFFFFFFFFFFFFFFFFFFFFFFFFFFFFFFFFFFFFFFF AND DUP2 MSTORE PUSH1 0x20 ADD PUSH1 0x60 DUP2 MSTORE POP SWAP1 JUMP JUMPDEST JUMPDEST DUP1 DUP3 GT ISZERO PUSH2 0xB97 JUMPI PUSH1 0x0 DUP2 PUSH1 0x0 SWAP1 SSTORE POP PUSH1 0x1 ADD PUSH2 0xB7F JUMP JUMPDEST POP SWAP1 JUMP JUMPDEST DUP3 PUSH1 0x3 DUP2 ADD SWAP3 DUP3 ISZERO PUSH2 0xBCF JUMPI SWAP2 PUSH1 0x20 MUL DUP3 ADD JUMPDEST DUP3 DUP2 GT ISZERO PUSH2 0xBCE JUMPI DUP3 MLOAD DUP3 SWAP1 PUSH1 0xFF AND SWAP1 SSTORE SWAP2 PUSH1 0x20 ADD SWAP2 SWAP1 PUSH1 0x1 ADD SWAP1 PUSH2 0xBAE JUMP JUMPDEST JUMPDEST POP SWAP1 POP PUSH2 0xBDC SWAP2 SWAP1 PUSH2 0xB7E JUMP JUMPDEST POP SWAP1 JUMP JUMPDEST JUMPDEST DUP1 DUP3 GT ISZERO PUSH2 0xC00 JUMPI PUSH1 0x0 DUP2 DUP2 PUSH2 0xBF7 SWAP2 SWAP1 PUSH2 0xC04 JUMP JUMPDEST POP PUSH1 0x3 ADD PUSH2 0xBE1 JUMP JUMPDEST POP SWAP1 JUMP JUMPDEST POP PUSH1 0x0 DUP2 SSTORE PUSH1 0x1 ADD PUSH1 0x0 DUP2 SSTORE PUSH1 0x1 ADD PUSH1 0x0 SWAP1 SSTORE JUMP JUMPDEST PUSH1 0x0 PUSH2 0xC2C PUSH2 0xC27 DUP5 PUSH2 0x1072 JUMP JUMPDEST PUSH2 0x104D JUMP JUMPDEST SWAP1 POP DUP3 DUP2 MSTORE PUSH1 0x20 DUP2 ADD DUP5 DUP5 DUP5 ADD GT ISZERO PUSH2 0xC48 JUMPI PUSH2 0xC47 PUSH2 0x1396 JUMP JUMPDEST JUMPDEST PUSH2 0xC53 DUP5 DUP3 DUP6 PUSH2 0x1201 JUMP JUMPDEST POP SWAP4 SWAP3 POP POP POP JUMP JUMPDEST PUSH1 0x0 DUP2 CALLDATALOAD SWAP1 POP PUSH2 0xC6A DUP2 PUSH2 0x13CA JUMP JUMPDEST SWAP3 SWAP2 POP POP JUMP JUMPDEST PUSH1 0x0 DUP3 PUSH1 0x1F DUP4 ADD SLT PUSH2 0xC85 JUMPI PUSH2 0xC84 PUSH2 0x1391 JUMP JUMPDEST JUMPDEST DUP2 CALLDATALOAD PUSH2 0xC95 DUP5 DUP3 PUSH1 0x20 DUP7 ADD PUSH2 0xC19 JUMP JUMPDEST SWAP2 POP POP SWAP3 SWAP2 POP POP JUMP JUMPDEST PUSH1 0x0 DUP2 CALLDATALOAD SWAP1 POP PUSH2 0xCAD DUP2 PUSH2 0x13E1 JUMP JUMPDEST SWAP3 SWAP2 POP POP JUMP JUMPDEST PUSH1 0x0 PUSH1 0x20 DUP3 DUP5 SUB SLT ISZERO PUSH2 0xCC9 JUMPI PUSH2 0xCC8 PUSH2 0x13A0 JUMP JUMPDEST JUMPDEST PUSH1 0x0 PUSH2 0xCD7 DUP5 DUP3 DUP6 ADD PUSH2 0xC5B JUMP JUMPDEST SWAP2 POP POP SWAP3 SWAP2 POP POP JUMP JUMPDEST PUSH1 0x0 DUP1 PUSH1 0x40 DUP4 DUP6 SUB SLT ISZERO PUSH2 0xCF7 JUMPI PUSH2 0xCF6 PUSH2 0x13A0 JUMP JUMPDEST JUMPDEST PUSH1 0x0 PUSH2 0xD05 DUP6 DUP3 DUP7 ADD PUSH2 0xC5B JUMP JUMPDEST SWAP3 POP POP PUSH1 0x20 PUSH2 0xD16 DUP6 DUP3 DUP7 ADD PUSH2 0xC9E JUMP JUMPDEST SWAP2 POP POP SWAP3 POP SWAP3 SWAP1 POP JUMP JUMPDEST PUSH1 0x0 PUSH1 0x20 DUP3 DUP5 SUB SLT ISZERO PUSH2 0xD36 JUMPI PUSH2 0xD35 PUSH2 0x13A0 JUMP JUMPDEST JUMPDEST PUSH1 0x0 DUP3 ADD CALLDATALOAD PUSH8 0xFFFFFFFFFFFFFFFF DUP2 GT ISZERO PUSH2 0xD54 JUMPI PUSH2 0xD53 PUSH2 0x139B JUMP JUMPDEST JUMPDEST PUSH2 0xD60 DUP5 DUP3 DUP6 ADD PUSH2 0xC70 JUMP JUMPDEST SWAP2 POP POP SWAP3 SWAP2 POP POP JUMP JUMPDEST PUSH1 0x0 PUSH1 0x20 DUP3 DUP5 SUB SLT ISZERO PUSH2 0xD7F JUMPI PUSH2 0xD7E PUSH2 0x13A0 JUMP JUMPDEST JUMPDEST PUSH1 0x0 PUSH2 0xD8D DUP5 DUP3 DUP6 ADD PUSH2 0xC9E JUMP JUMPDEST SWAP2 POP POP SWAP3 SWAP2 POP POP JUMP JUMPDEST PUSH1 0x0 DUP1 PUSH1 0x40 DUP4 DUP6 SUB SLT ISZERO PUSH2 0xDAD JUMPI PUSH2 0xDAC PUSH2 0x13A0 JUMP JUMPDEST JUMPDEST PUSH1 0x0 PUSH2 0xDBB DUP6 DUP3 DUP7 ADD PUSH2 0xC9E JUMP JUMPDEST SWAP3 POP POP PUSH1 0x20 PUSH2 0xDCC DUP6 DUP3 DUP7 ADD PUSH2 0xC9E JUMP JUMPDEST SWAP2 POP POP SWAP3 POP SWAP3 SWAP1 POP JUMP JUMPDEST PUSH1 0x0 PUSH2 0xDE2 DUP4 DUP4 PUSH2 0xF5D JUMP JUMPDEST PUSH1 0x20 DUP4 ADD SWAP1 POP SWAP3 SWAP2 POP POP JUMP JUMPDEST PUSH2 0xDF7 DUP2 PUSH2 0x116A JUMP JUMPDEST DUP3 MSTORE POP POP JUMP JUMPDEST PUSH1 0x0 PUSH2 0xE08 DUP3 PUSH2 0x10B3 JUMP JUMPDEST PUSH2 0xE12 DUP2 DUP6 PUSH2 0x10E1 JUMP JUMPDEST SWAP4 POP PUSH2 0xE1D DUP4 PUSH2 0x10A3 JUMP JUMPDEST DUP1 PUSH1 0x0 JUMPDEST DUP4 DUP2 LT ISZERO PUSH2 0xE4E JUMPI DUP2 MLOAD PUSH2 0xE35 DUP9 DUP3 PUSH2 0xDD6 JUMP JUMPDEST SWAP8 POP PUSH2 0xE40 DUP4 PUSH2 0x10D4 JUMP JUMPDEST SWAP3 POP POP PUSH1 0x1 DUP2 ADD SWAP1 POP PUSH2 0xE21 JUMP JUMPDEST POP DUP6 SWAP4 POP POP POP POP SWAP3 SWAP2 POP POP JUMP JUMPDEST PUSH2 0xE64 DUP2 PUSH2 0x117C JUMP JUMPDEST DUP3 MSTORE POP POP JUMP JUMPDEST PUSH2 0xE73 DUP2 PUSH2 0x11A8 JUMP JUMPDEST DUP3 MSTORE POP POP JUMP JUMPDEST PUSH1 0x0 PUSH2 0xE84 DUP3 PUSH2 0x10BE JUMP JUMPDEST PUSH2 0xE8E DUP2 DUP6 PUSH2 0x10F2 JUMP JUMPDEST SWAP4 POP PUSH2 0xE9E DUP2 DUP6 PUSH1 0x20 DUP7 ADD PUSH2 0x1210 JUMP JUMPDEST PUSH2 0xEA7 DUP2 PUSH2 0x13A5 JUMP JUMPDEST DUP5 ADD SWAP2 POP POP SWAP3 SWAP2 POP POP JUMP JUMPDEST PUSH2 0xEBB DUP2 PUSH2 0x11EF JUMP JUMPDEST DUP3 MSTORE POP POP JUMP JUMPDEST PUSH1 0x0 PUSH2 0xECC DUP3 PUSH2 0x10C9 JUMP JUMPDEST PUSH2 0xED6 DUP2 DUP6 PUSH2 0x1103 JUMP JUMPDEST SWAP4 POP PUSH2 0xEE6 DUP2 DUP6 PUSH1 0x20 DUP7 ADD PUSH2 0x1210 JUMP JUMPDEST PUSH2 0xEEF DUP2 PUSH2 0x13A5 JUMP JUMPDEST DUP5 ADD SWAP2 POP POP SWAP3 SWAP2 POP POP JUMP JUMPDEST PUSH1 0x0 PUSH1 0x80 DUP4 ADD PUSH1 0x0 DUP4 ADD MLOAD PUSH2 0xF12 PUSH1 0x0 DUP7 ADD DUP3 PUSH2 0xF5D JUMP JUMPDEST POP PUSH1 0x20 DUP4 ADD MLOAD PUSH2 0xF25 PUSH1 0x20 DUP7 ADD DUP3 PUSH2 0xF5D JUMP JUMPDEST POP PUSH1 0x40 DUP4 ADD MLOAD PUSH2 0xF38 PUSH1 0x40 DUP7 ADD DUP3 PUSH2 0xDEE JUMP JUMPDEST POP PUSH1 0x60 DUP4 ADD MLOAD DUP5 DUP3 SUB PUSH1 0x60 DUP7 ADD MSTORE PUSH2 0xF50 DUP3 DUP3 PUSH2 0xEC1 JUMP JUMPDEST SWAP2 POP POP DUP1 SWAP2 POP POP SWAP3 SWAP2 POP POP JUMP JUMPDEST PUSH2 0xF66 DUP2 PUSH2 0x11E5 JUMP JUMPDEST DUP3 MSTORE POP POP JUMP JUMPDEST PUSH2 0xF75 DUP2 PUSH2 0x11E5 JUMP JUMPDEST DUP3 MSTORE POP POP JUMP JUMPDEST PUSH1 0x0 PUSH1 0x20 DUP3 ADD SWAP1 POP DUP2 DUP2 SUB PUSH1 0x0 DUP4 ADD MSTORE PUSH2 0xF95 DUP2 DUP5 PUSH2 0xDFD JUMP JUMPDEST SWAP1 POP SWAP3 SWAP2 POP POP JUMP JUMPDEST PUSH1 0x0 PUSH1 0x20 DUP3 ADD SWAP1 POP PUSH2 0xFB2 PUSH1 0x0 DUP4 ADD DUP5 PUSH2 0xE5B JUMP JUMPDEST SWAP3 SWAP2 POP POP JUMP JUMPDEST PUSH1 0x0 PUSH1 0x20 DUP3 ADD SWAP1 POP PUSH2 0xFCD PUSH1 0x0 DUP4 ADD DUP5 PUSH2 0xE6A JUMP JUMPDEST SWAP3 SWAP2 POP POP JUMP JUMPDEST PUSH1 0x0 PUSH1 0x20 DUP3 ADD SWAP1 POP DUP2 DUP2 SUB PUSH1 0x0 DUP4 ADD MSTORE PUSH2 0xFED DUP2 DUP5 PUSH2 0xE79 JUMP JUMPDEST SWAP1 POP SWAP3 SWAP2 POP POP JUMP JUMPDEST PUSH1 0x0 PUSH1 0x20 DUP3 ADD SWAP1 POP PUSH2 0x100A PUSH1 0x0 DUP4 ADD DUP5 PUSH2 0xEB2 JUMP JUMPDEST SWAP3 SWAP2 POP POP JUMP JUMPDEST PUSH1 0x0 PUSH1 0x20 DUP3 ADD SWAP1 POP DUP2 DUP2 SUB PUSH1 0x0 DUP4 ADD MSTORE PUSH2 0x102A DUP2 DUP5 PUSH2 0xEFA JUMP JUMPDEST SWAP1 POP SWAP3 SWAP2 POP POP JUMP JUMPDEST PUSH1 0x0 PUSH1 0x20 DUP3 ADD SWAP1 POP PUSH2 0x1047 PUSH1 0x0 DUP4 ADD DUP5 PUSH2 0xF6C JUMP JUMPDEST SWAP3 SWAP2 POP POP JUMP JUMPDEST PUSH1 0x0 PUSH2 0x1057 PUSH2 0x1068 JUMP JUMPDEST SWAP1 POP PUSH2 0x1063 DUP3 DUP3 PUSH2 0x1275 JUMP JUMPDEST SWAP2 SWAP1 POP JUMP JUMPDEST PUSH1 0x0 PUSH1 0x40 MLOAD SWAP1 POP SWAP1 JUMP JUMPDEST PUSH1 0x0 PUSH8 0xFFFFFFFFFFFFFFFF DUP3 GT ISZERO PUSH2 0x108D JUMPI PUSH2 0x108C PUSH2 0x1362 JUMP JUMPDEST JUMPDEST PUSH2 0x1096 DUP3 PUSH2 0x13A5 JUMP JUMPDEST SWAP1 POP PUSH1 0x20 DUP2 ADD SWAP1 POP SWAP2 SWAP1 POP JUMP JUMPDEST PUSH1 0x0 DUP2 SWAP1 POP PUSH1 0x20 DUP3 ADD SWAP1 POP SWAP2 SWAP1 POP JUMP JUMPDEST PUSH1 0x0 DUP2 MLOAD SWAP1 POP SWAP2 SWAP1 POP JUMP JUMPDEST PUSH1 0x0 DUP2 MLOAD SWAP1 POP SWAP2 SWAP1 POP JUMP JUMPDEST PUSH1 0x0 DUP2 MLOAD SWAP1 POP SWAP2 SWAP1 POP JUMP JUMPDEST PUSH1 0x0 PUSH1 0x20 DUP3 ADD SWAP1 POP SWAP2 SWAP1 POP JUMP JUMPDEST PUSH1 0x0 DUP3 DUP3 MSTORE PUSH1 0x20 DUP3 ADD SWAP1 POP SWAP3 SWAP2 POP POP JUMP JUMPDEST PUSH1 0x0 DUP3 DUP3 MSTORE PUSH1 0x20 DUP3 ADD SWAP1 POP SWAP3 SWAP2 POP POP JUMP JUMPDEST PUSH1 0x0 DUP3 DUP3 MSTORE PUSH1 0x20 DUP3 ADD SWAP1 POP SWAP3 SWAP2 POP POP JUMP JUMPDEST PUSH1 0x0 PUSH2 0x111F DUP3 PUSH2 0x11E5 JUMP JUMPDEST SWAP2 POP PUSH2 0x112A DUP4 PUSH2 0x11E5 JUMP JUMPDEST SWAP3 POP DUP3 PUSH32 0xFFFFFFFFFFFFFFFFFFFFFFFFFFFFFFFFFFFFFFFFFFFFFFFFFFFFFFFFFFFFFFFF SUB DUP3 GT ISZERO PUSH2 0x115F JUMPI PUSH2 0x115E PUSH2 0x12A6 JUMP JUMPDEST JUMPDEST DUP3 DUP3 ADD SWAP1 POP SWAP3 SWAP2 POP POP JUMP JUMPDEST PUSH1 0x0 PUSH2 0x1175 DUP3 PUSH2 0x11C5 JUMP JUMPDEST SWAP1 POP SWAP2 SWAP1 POP JUMP JUMPDEST PUSH1 0x0 PUSH32 0xFF00000000000000000000000000000000000000000000000000000000000000 DUP3 AND SWAP1 POP SWAP2 SWAP1 POP JUMP JUMPDEST PUSH1 0x0 DUP2 SWAP1 POP SWAP2 SWAP1 POP JUMP JUMPDEST PUSH1 0x0 DUP2 SWAP1 POP PUSH2 0x11C0 DUP3 PUSH2 0x13B6 JUMP JUMPDEST SWAP2 SWAP1 POP JUMP JUMPDEST PUSH1 0x0 PUSH20 0xFFFFFFFFFFFFFFFFFFFFFFFFFFFFFFFFFFFFFFFF DUP3 AND SWAP1 POP SWAP2 SWAP1 POP JUMP JUMPDEST PUSH1 0x0 DUP2 SWAP1 POP SWAP2 SWAP1 POP JUMP JUMPDEST PUSH1 0x0 PUSH2 0x11FA DUP3 PUSH2 0x11B2 JUMP JUMPDEST SWAP1 POP SWAP2 SWAP1 POP JUMP JUMPDEST DUP3 DUP2 DUP4 CALLDATACOPY PUSH1 0x0 DUP4 DUP4 ADD MSTORE POP POP POP JUMP JUMPDEST PUSH1 0x0 JUMPDEST DUP4 DUP2 LT ISZERO PUSH2 0x122E JUMPI DUP1 DUP3 ADD MLOAD DUP2 DUP5 ADD MSTORE PUSH1 0x20 DUP2 ADD SWAP1 POP PUSH2 0x1213 JUMP JUMPDEST DUP4 DUP2 GT ISZERO PUSH2 0x123D JUMPI PUSH1 0x0 DUP5 DUP5 ADD MSTORE JUMPDEST POP POP POP POP JUMP JUMPDEST PUSH1 0x0 PUSH1 0x2 DUP3 DIV SWAP1 POP PUSH1 0x1 DUP3 AND DUP1 PUSH2 0x125B JUMPI PUSH1 0x7F DUP3 AND SWAP2 POP JUMPDEST PUSH1 0x20 DUP3 LT DUP2 EQ ISZERO PUSH2 0x126F JUMPI PUSH2 0x126E PUSH2 0x1304 JUMP JUMPDEST JUMPDEST POP SWAP2 SWAP1 POP JUMP JUMPDEST PUSH2 0x127E DUP3 PUSH2 0x13A5 JUMP JUMPDEST DUP2 ADD DUP2 DUP2 LT PUSH8 0xFFFFFFFFFFFFFFFF DUP3 GT OR ISZERO PUSH2 0x129D JUMPI PUSH2 0x129C PUSH2 0x1362 JUMP JUMPDEST JUMPDEST DUP1 PUSH1 0x40 MSTORE POP POP POP JUMP JUMPDEST PUSH32 0x4E487B7100000000000000000000000000000000000000000000000000000000 PUSH1 0x0 MSTORE PUSH1 0x11 PUSH1 0x4 MSTORE PUSH1 0x24 PUSH1 0x0 REVERT JUMPDEST PUSH32 0x4E487B7100000000000000000000000000000000000000000000000000000000 PUSH1 0x0 MSTORE PUSH1 0x21 PUSH1 0x4 MSTORE PUSH1 0x24 PUSH1 0x0 REVERT JUMPDEST PUSH32 0x4E487B7100000000000000000000000000000000000000000000000000000000 PUSH1 0x0 MSTORE PUSH1 0x22 PUSH1 0x4 MSTORE PUSH1 0x24 PUSH1 0x0 REVERT JUMPDEST PUSH32 0x4E487B7100000000000000000000000000000000000000000000000000000000 PUSH1 0x0 MSTORE PUSH1 0x32 PUSH1 0x4 MSTORE PUSH1 0x24 PUSH1 0x0 REVERT JUMPDEST PUSH32 0x4E487B7100000000000000000000000000000000000000000000000000000000 PUSH1 0x0 MSTORE PUSH1 0x41 PUSH1 0x4 MSTORE PUSH1 0x24 PUSH1 0x0 REVERT JUMPDEST PUSH1 0x0 DUP1 REVERT JUMPDEST PUSH1 0x0 DUP1 REVERT JUMPDEST PUSH1 0x0 DUP1 REVERT JUMPDEST PUSH1 0x0 DUP1 REVERT JUMPDEST PUSH1 0x0 PUSH1 0x1F NOT PUSH1 0x1F DUP4 ADD AND SWAP1 POP SWAP2 SWAP1 POP JUMP JUMPDEST PUSH1 0x3 DUP2 LT PUSH2 0x13C7 JUMPI PUSH2 0x13C6 PUSH2 0x12D5 JUMP JUMPDEST JUMPDEST POP JUMP JUMPDEST PUSH2 0x13D3 DUP2 PUSH2 0x116A JUMP JUMPDEST DUP2 EQ PUSH2 0x13DE JUMPI PUSH1 0x0 DUP1 REVERT JUMPDEST POP JUMP JUMPDEST PUSH2 0x13EA DUP2 PUSH2 0x11E5 JUMP JUMPDEST DUP2 EQ PUSH2 0x13F5 JUMPI PUSH1 0x0 DUP1 REVERT JUMPDEST POP JUMP INVALID LOG2 PUSH5 0x6970667358 0x22 SLT KECCAK256 SHL 0x29 0xB8 EQ 0xD6 0x26 TIMESTAMP DIV 0xC2 BYTE 0xC5 SELFBALANCE MUL 0xAF LOG1 0xE2 EXTCODECOPY MSTORE PUSH22 0x68C16F43B4F55EF2BF969FEEB564736F6C6343000807 STOP CALLER "
				},
				"gasEstimates": {
					"creation": {
						"codeDepositCost": "1033200",
						"executionCost": "infinite",
						"totalCost": "infinite"
					},
					"external": {
						"arr(uint256,uint256)": "infinite",
						"balances(address)": "2918",
						"currentStatus()": "2645",
						"delivered()": "24453",
						"dynamic(uint256)": "infinite",
						"dynamicVar()": "infinite",
						"getByte()": "2567",
						"getBytesLength()": "2597",
						"getPayment(address,uint256)": "infinite",
						"items(uint256)": "infinite",
						"length()": "2497",
						"myVar()": "2495",
						"pay()": "24477",
						"pay(string)": "infinite",
						"pushArr()": "infinite",
						"received()": "24476",
						"sampleMemory()": "infinite"
					}
				},
				"methodIdentifiers": {
					"arr(uint256,uint256)": "45d0695f",
					"balances(address)": "27e235e3",
					"currentStatus()": "ef8a9235",
					"delivered()": "bbdfbfba",
					"dynamic(uint256)": "691a82eb",
					"dynamicVar()": "f3fd5c4c",
					"getByte()": "60585358",
					"getBytesLength()": "07da3eae",
					"getPayment(address,uint256)": "977a767c",
					"items(uint256)": "bfb231d2",
					"length()": "1f7b6d32",
					"myVar()": "c6b91540",
					"pay()": "1b9265b8",
					"pay(string)": "2b66d72e",
					"pushArr()": "41af56ee",
					"received()": "83a6deb5",
					"sampleMemory()": "a34343c9"
				}
			},
			"storageLayout": {
				"storage": [
					{
						"astId": 8,
						"contract": "contracts/Arr.sol:Arr",
						"label": "currentStatus",
						"offset": 0,
						"slot": "0",
						"type": "t_enum(Status)5"
					},
					{
						"astId": 43,
						"contract": "contracts/Arr.sol:Arr",
						"label": "items",
						"offset": 0,
						"slot": "1",
						"type": "t_array(t_uint256)10_storage"
					},
					{
						"astId": 49,
						"contract": "contracts/Arr.sol:Arr",
						"label": "arr",
						"offset": 0,
						"slot": "11",
						"type": "t_array(t_array(t_uint256)3_storage)2_storage"
					},
					{
						"astId": 52,
						"contract": "contracts/Arr.sol:Arr",
						"label": "dynamic",
						"offset": 0,
						"slot": "17",
						"type": "t_array(t_uint256)dyn_storage"
					},
					{
						"astId": 54,
						"contract": "contracts/Arr.sol:Arr",
						"label": "length",
						"offset": 0,
						"slot": "18",
						"type": "t_uint256"
					},
					{
						"astId": 128,
						"contract": "contracts/Arr.sol:Arr",
						"label": "dynamicVar",
						"offset": 0,
						"slot": "19",
						"type": "t_bytes_storage"
					},
					{
						"astId": 131,
						"contract": "contracts/Arr.sol:Arr",
						"label": "myVar",
						"offset": 0,
						"slot": "20",
						"type": "t_bytes32"
					},
					{
						"astId": 172,
						"contract": "contracts/Arr.sol:Arr",
						"label": "balances",
						"offset": 0,
						"slot": "21",
						"type": "t_mapping(t_address,t_struct(Balance)167_storage)"
					}
				],
				"types": {
					"t_address": {
						"encoding": "inplace",
						"label": "address",
						"numberOfBytes": "20"
					},
					"t_array(t_array(t_uint256)3_storage)2_storage": {
						"base": "t_array(t_uint256)3_storage",
						"encoding": "inplace",
						"label": "uint256[3][2]",
						"numberOfBytes": "192"
					},
					"t_array(t_uint256)10_storage": {
						"base": "t_uint256",
						"encoding": "inplace",
						"label": "uint256[10]",
						"numberOfBytes": "320"
					},
					"t_array(t_uint256)3_storage": {
						"base": "t_uint256",
						"encoding": "inplace",
						"label": "uint256[3]",
						"numberOfBytes": "96"
					},
					"t_array(t_uint256)dyn_storage": {
						"base": "t_uint256",
						"encoding": "dynamic_array",
						"label": "uint256[]",
						"numberOfBytes": "32"
					},
					"t_bytes32": {
						"encoding": "inplace",
						"label": "bytes32",
						"numberOfBytes": "32"
					},
					"t_bytes_storage": {
						"encoding": "bytes",
						"label": "bytes",
						"numberOfBytes": "32"
					},
					"t_enum(Status)5": {
						"encoding": "inplace",
						"label": "enum Arr.Status",
						"numberOfBytes": "1"
					},
					"t_mapping(t_address,t_struct(Balance)167_storage)": {
						"encoding": "mapping",
						"key": "t_address",
						"label": "mapping(address => struct Arr.Balance)",
						"numberOfBytes": "32",
						"value": "t_struct(Balance)167_storage"
					},
					"t_mapping(t_uint256,t_struct(Payment)159_storage)": {
						"encoding": "mapping",
						"key": "t_uint256",
						"label": "mapping(uint256 => struct Arr.Payment)",
						"numberOfBytes": "32",
						"value": "t_struct(Payment)159_storage"
					},
					"t_string_storage": {
						"encoding": "bytes",
						"label": "string",
						"numberOfBytes": "32"
					},
					"t_struct(Balance)167_storage": {
						"encoding": "inplace",
						"label": "struct Arr.Balance",
						"members": [
							{
								"astId": 161,
								"contract": "contracts/Arr.sol:Arr",
								"label": "total",
								"offset": 0,
								"slot": "0",
								"type": "t_uint256"
							},
							{
								"astId": 166,
								"contract": "contracts/Arr.sol:Arr",
								"label": "payments",
								"offset": 0,
								"slot": "1",
								"type": "t_mapping(t_uint256,t_struct(Payment)159_storage)"
							}
						],
						"numberOfBytes": "64"
					},
					"t_struct(Payment)159_storage": {
						"encoding": "inplace",
						"label": "struct Arr.Payment",
						"members": [
							{
								"astId": 152,
								"contract": "contracts/Arr.sol:Arr",
								"label": "amount",
								"offset": 0,
								"slot": "0",
								"type": "t_uint256"
							},
							{
								"astId": 154,
								"contract": "contracts/Arr.sol:Arr",
								"label": "timestamp",
								"offset": 0,
								"slot": "1",
								"type": "t_uint256"
							},
							{
								"astId": 156,
								"contract": "contracts/Arr.sol:Arr",
								"label": "from",
								"offset": 0,
								"slot": "2",
								"type": "t_address"
							},
							{
								"astId": 158,
								"contract": "contracts/Arr.sol:Arr",
								"label": "message",
								"offset": 0,
								"slot": "3",
								"type": "t_string_storage"
							}
						],
						"numberOfBytes": "128"
					},
					"t_uint256": {
						"encoding": "inplace",
						"label": "uint256",
						"numberOfBytes": "32"
					}
				}
			},
			"userdoc": {
				"kind": "user",
				"methods": {},
				"version": 1
			}
		}
	}
}