{
	"contracts/Ballot.sol": {
		"Ballot": {
			"abi": [
				{
					"inputs": [],
					"name": "get",
					"outputs": [
						{
							"internalType": "uint256[]",
							"name": "",
							"type": "uint256[]"
						}
					],
					"stateMutability": "view",
					"type": "function"
				},
				{
					"inputs": [
						{
							"internalType": "uint256",
							"name": "candidateIdx",
							"type": "uint256"
						}
					],
					"name": "vote",
					"outputs": [],
					"stateMutability": "nonpayable",
					"type": "function"
				},
				{
					"inputs": [
						{
							"internalType": "address",
							"name": "",
							"type": "address"
						}
					],
					"name": "voters",
					"outputs": [
						{
							"internalType": "bool",
							"name": "",
							"type": "bool"
						}
					],
					"stateMutability": "view",
					"type": "function"
				},
				{
					"inputs": [],
					"name": "winningCandidate",
					"outputs": [
						{
							"internalType": "uint256",
							"name": "_winningCandidate",
							"type": "uint256"
						}
					],
					"stateMutability": "view",
					"type": "function"
				}
			],
			"devdoc": {
				"kind": "dev",
				"methods": {},
				"version": 1
			},
			"evm": {
				"assembly": "    /* \"contracts/Ballot.sol\":70:767  contract Ballot {... */\n  mstore(0x40, 0x80)\n  callvalue\n  dup1\n  iszero\n  tag_1\n  jumpi\n  0x00\n  dup1\n  revert\ntag_1:\n  pop\n  dataSize(sub_0)\n  dup1\n  dataOffset(sub_0)\n  0x00\n  codecopy\n  0x00\n  return\nstop\n\nsub_0: assembly {\n        /* \"contracts/Ballot.sol\":70:767  contract Ballot {... */\n      mstore(0x40, 0x80)\n      callvalue\n      dup1\n      iszero\n      tag_1\n      jumpi\n      0x00\n      dup1\n      revert\n    tag_1:\n      pop\n      jumpi(tag_2, lt(calldatasize, 0x04))\n      shr(0xe0, calldataload(0x00))\n      dup1\n      0x0121b93f\n      eq\n      tag_3\n      jumpi\n      dup1\n      0x6d4ce63c\n      eq\n      tag_4\n      jumpi\n      dup1\n      0xa3ec138d\n      eq\n      tag_5\n      jumpi\n      dup1\n      0xd28178d7\n      eq\n      tag_6\n      jumpi\n    tag_2:\n      0x00\n      dup1\n      revert\n        /* \"contracts/Ballot.sol\":164:356  function vote(uint candidateIdx) public {... */\n    tag_3:\n      tag_7\n      0x04\n      dup1\n      calldatasize\n      sub\n      dup2\n      add\n      swap1\n      tag_8\n      swap2\n      swap1\n      tag_9\n      jump\t// in\n    tag_8:\n      tag_10\n      jump\t// in\n    tag_7:\n      stop\n        /* \"contracts/Ballot.sol\":680:765  function get() public view returns (uint[] memory) {... */\n    tag_4:\n      tag_11\n      tag_12\n      jump\t// in\n    tag_11:\n      mload(0x40)\n      tag_13\n      swap2\n      swap1\n      tag_14\n      jump\t// in\n    tag_13:\n      mload(0x40)\n      dup1\n      swap2\n      sub\n      swap1\n      return\n        /* \"contracts/Ballot.sol\":115:153  mapping(address => bool) public voters */\n    tag_5:\n      tag_15\n      0x04\n      dup1\n      calldatasize\n      sub\n      dup2\n      add\n      swap1\n      tag_16\n      swap2\n      swap1\n      tag_17\n      jump\t// in\n    tag_16:\n      tag_18\n      jump\t// in\n    tag_15:\n      mload(0x40)\n      tag_19\n      swap2\n      swap1\n      tag_20\n      jump\t// in\n    tag_19:\n      mload(0x40)\n      dup1\n      swap2\n      sub\n      swap1\n      return\n        /* \"contracts/Ballot.sol\":362:674  function winningCandidate() public view returns (uint _winningCandidate) {... */\n    tag_6:\n      tag_21\n      tag_22\n      jump\t// in\n    tag_21:\n      mload(0x40)\n      tag_23\n      swap2\n      swap1\n      tag_24\n      jump\t// in\n    tag_23:\n      mload(0x40)\n      dup1\n      swap2\n      sub\n      swap1\n      return\n        /* \"contracts/Ballot.sol\":164:356  function vote(uint candidateIdx) public {... */\n    tag_10:\n        /* \"contracts/Ballot.sol\":223:229  voters */\n      0x01\n        /* \"contracts/Ballot.sol\":223:241  voters[msg.sender] */\n      0x00\n        /* \"contracts/Ballot.sol\":230:240  msg.sender */\n      caller\n        /* \"contracts/Ballot.sol\":223:241  voters[msg.sender] */\n      0xffffffffffffffffffffffffffffffffffffffff\n      and\n      0xffffffffffffffffffffffffffffffffffffffff\n      and\n      dup2\n      mstore\n      0x20\n      add\n      swap1\n      dup2\n      mstore\n      0x20\n      add\n      0x00\n      keccak256\n      0x00\n      swap1\n      sload\n      swap1\n      0x0100\n      exp\n      swap1\n      div\n      0xff\n      and\n        /* \"contracts/Ballot.sol\":222:241  !voters[msg.sender] */\n      iszero\n        /* \"contracts/Ballot.sol\":222:277  !voters[msg.sender] && candidateIdx < candidates.length */\n      dup1\n      iszero\n      tag_26\n      jumpi\n      pop\n        /* \"contracts/Ballot.sol\":260:270  candidates */\n      0x00\n        /* \"contracts/Ballot.sol\":260:277  candidates.length */\n      dup1\n      sload\n      swap1\n      pop\n        /* \"contracts/Ballot.sol\":245:257  candidateIdx */\n      dup2\n        /* \"contracts/Ballot.sol\":245:277  candidateIdx < candidates.length */\n      lt\n        /* \"contracts/Ballot.sol\":222:277  !voters[msg.sender] && candidateIdx < candidates.length */\n    tag_26:\n        /* \"contracts/Ballot.sol\":214:278  require(!voters[msg.sender] && candidateIdx < candidates.length) */\n      tag_27\n      jumpi\n      0x00\n      dup1\n      revert\n    tag_27:\n        /* \"contracts/Ballot.sol\":309:313  true */\n      0x01\n        /* \"contracts/Ballot.sol\":288:294  voters */\n      dup1\n        /* \"contracts/Ballot.sol\":288:306  voters[msg.sender] */\n      0x00\n        /* \"contracts/Ballot.sol\":295:305  msg.sender */\n      caller\n        /* \"contracts/Ballot.sol\":288:306  voters[msg.sender] */\n      0xffffffffffffffffffffffffffffffffffffffff\n      and\n      0xffffffffffffffffffffffffffffffffffffffff\n      and\n      dup2\n      mstore\n      0x20\n      add\n      swap1\n      dup2\n      mstore\n      0x20\n      add\n      0x00\n      keccak256\n      0x00\n        /* \"contracts/Ballot.sol\":288:313  voters[msg.sender] = true */\n      0x0100\n      exp\n      dup2\n      sload\n      dup2\n      0xff\n      mul\n      not\n      and\n      swap1\n      dup4\n      iszero\n      iszero\n      mul\n      or\n      swap1\n      sstore\n      pop\n        /* \"contracts/Ballot.sol\":323:333  candidates */\n      0x00\n        /* \"contracts/Ballot.sol\":334:346  candidateIdx */\n      dup2\n        /* \"contracts/Ballot.sol\":323:347  candidates[candidateIdx] */\n      dup2\n      sload\n      dup2\n      lt\n      tag_28\n      jumpi\n      tag_29\n      tag_30\n      jump\t// in\n    tag_29:\n    tag_28:\n      swap1\n      0x00\n      mstore\n      keccak256(0x00, 0x20)\n      add\n      0x00\n        /* \"contracts/Ballot.sol\":323:349  candidates[candidateIdx]++ */\n      dup2\n      sload\n      dup1\n      swap3\n      swap2\n      swap1\n      tag_32\n      swap1\n      tag_33\n      jump\t// in\n    tag_32:\n      swap2\n      swap1\n      pop\n      sstore\n      pop\n        /* \"contracts/Ballot.sol\":164:356  function vote(uint candidateIdx) public {... */\n      pop\n      jump\t// out\n        /* \"contracts/Ballot.sol\":680:765  function get() public view returns (uint[] memory) {... */\n    tag_12:\n        /* \"contracts/Ballot.sol\":716:729  uint[] memory */\n      0x60\n        /* \"contracts/Ballot.sol\":748:758  candidates */\n      0x00\n        /* \"contracts/Ballot.sol\":741:758  return candidates */\n      dup1\n      sload\n      dup1\n      0x20\n      mul\n      0x20\n      add\n      mload(0x40)\n      swap1\n      dup2\n      add\n      0x40\n      mstore\n      dup1\n      swap3\n      swap2\n      swap1\n      dup2\n      dup2\n      mstore\n      0x20\n      add\n      dup3\n      dup1\n      sload\n      dup1\n      iszero\n      tag_35\n      jumpi\n      0x20\n      mul\n      dup3\n      add\n      swap2\n      swap1\n      0x00\n      mstore\n      keccak256(0x00, 0x20)\n      swap1\n    tag_36:\n      dup2\n      sload\n      dup2\n      mstore\n      0x20\n      add\n      swap1\n      0x01\n      add\n      swap1\n      dup1\n      dup4\n      gt\n      tag_36\n      jumpi\n    tag_35:\n      pop\n      pop\n      pop\n      pop\n      pop\n      swap1\n      pop\n        /* \"contracts/Ballot.sol\":680:765  function get() public view returns (uint[] memory) {... */\n      swap1\n      jump\t// out\n        /* \"contracts/Ballot.sol\":115:153  mapping(address => bool) public voters */\n    tag_18:\n      mstore(0x20, 0x01)\n      dup1\n      0x00\n      mstore\n      keccak256(0x00, 0x40)\n      0x00\n      swap2\n      pop\n      sload\n      swap1\n      0x0100\n      exp\n      swap1\n      div\n      0xff\n      and\n      dup2\n      jump\t// out\n        /* \"contracts/Ballot.sol\":362:674  function winningCandidate() public view returns (uint _winningCandidate) {... */\n    tag_22:\n        /* \"contracts/Ballot.sol\":411:433  uint _winningCandidate */\n      0x00\n        /* \"contracts/Ballot.sol\":445:455  uint count */\n      dup1\n        /* \"contracts/Ballot.sol\":458:459  0 */\n      0x00\n        /* \"contracts/Ballot.sol\":445:459  uint count = 0 */\n      swap1\n      pop\n        /* \"contracts/Ballot.sol\":473:481  uint idx */\n      0x00\n        /* \"contracts/Ballot.sol\":469:668  for(uint idx = 0; idx < candidates.length; idx++) {... */\n    tag_38:\n        /* \"contracts/Ballot.sol\":493:503  candidates */\n      0x00\n        /* \"contracts/Ballot.sol\":493:510  candidates.length */\n      dup1\n      sload\n      swap1\n      pop\n        /* \"contracts/Ballot.sol\":487:490  idx */\n      dup2\n        /* \"contracts/Ballot.sol\":487:510  idx < candidates.length */\n      lt\n        /* \"contracts/Ballot.sol\":469:668  for(uint idx = 0; idx < candidates.length; idx++) {... */\n      iszero\n      tag_39\n      jumpi\n        /* \"contracts/Ballot.sol\":554:559  count */\n      dup2\n        /* \"contracts/Ballot.sol\":536:546  candidates */\n      0x00\n        /* \"contracts/Ballot.sol\":547:550  idx */\n      dup3\n        /* \"contracts/Ballot.sol\":536:551  candidates[idx] */\n      dup2\n      sload\n      dup2\n      lt\n      tag_41\n      jumpi\n      tag_42\n      tag_30\n      jump\t// in\n    tag_42:\n    tag_41:\n      swap1\n      0x00\n      mstore\n      keccak256(0x00, 0x20)\n      add\n      sload\n        /* \"contracts/Ballot.sol\":536:559  candidates[idx] > count */\n      gt\n        /* \"contracts/Ballot.sol\":533:658  if(candidates[idx] > count) {... */\n      iszero\n      tag_44\n      jumpi\n        /* \"contracts/Ballot.sol\":587:597  candidates */\n      0x00\n        /* \"contracts/Ballot.sol\":598:601  idx */\n      dup2\n        /* \"contracts/Ballot.sol\":587:602  candidates[idx] */\n      dup2\n      sload\n      dup2\n      lt\n      tag_45\n      jumpi\n      tag_46\n      tag_30\n      jump\t// in\n    tag_46:\n    tag_45:\n      swap1\n      0x00\n      mstore\n      keccak256(0x00, 0x20)\n      add\n      sload\n        /* \"contracts/Ballot.sol\":579:602  count = candidates[idx] */\n      swap2\n      pop\n        /* \"contracts/Ballot.sol\":640:643  idx */\n      dup1\n        /* \"contracts/Ballot.sol\":620:643  _winningCandidate = idx */\n      swap3\n      pop\n        /* \"contracts/Ballot.sol\":533:658  if(candidates[idx] > count) {... */\n    tag_44:\n        /* \"contracts/Ballot.sol\":512:517  idx++ */\n      dup1\n      dup1\n      tag_48\n      swap1\n      tag_33\n      jump\t// in\n    tag_48:\n      swap2\n      pop\n      pop\n        /* \"contracts/Ballot.sol\":469:668  for(uint idx = 0; idx < candidates.length; idx++) {... */\n      jump(tag_38)\n    tag_39:\n      pop\n        /* \"contracts/Ballot.sol\":435:674  {... */\n      pop\n        /* \"contracts/Ballot.sol\":362:674  function winningCandidate() public view returns (uint _winningCandidate) {... */\n      swap1\n      jump\t// out\n        /* \"#utility.yul\":7:146   */\n    tag_50:\n        /* \"#utility.yul\":53:58   */\n      0x00\n        /* \"#utility.yul\":91:97   */\n      dup2\n        /* \"#utility.yul\":78:98   */\n      calldataload\n        /* \"#utility.yul\":69:98   */\n      swap1\n      pop\n        /* \"#utility.yul\":107:140   */\n      tag_52\n        /* \"#utility.yul\":134:139   */\n      dup2\n        /* \"#utility.yul\":107:140   */\n      tag_53\n      jump\t// in\n    tag_52:\n        /* \"#utility.yul\":7:146   */\n      swap3\n      swap2\n      pop\n      pop\n      jump\t// out\n        /* \"#utility.yul\":152:291   */\n    tag_54:\n        /* \"#utility.yul\":198:203   */\n      0x00\n        /* \"#utility.yul\":236:242   */\n      dup2\n        /* \"#utility.yul\":223:243   */\n      calldataload\n        /* \"#utility.yul\":214:243   */\n      swap1\n      pop\n        /* \"#utility.yul\":252:285   */\n      tag_56\n        /* \"#utility.yul\":279:284   */\n      dup2\n        /* \"#utility.yul\":252:285   */\n      tag_57\n      jump\t// in\n    tag_56:\n        /* \"#utility.yul\":152:291   */\n      swap3\n      swap2\n      pop\n      pop\n      jump\t// out\n        /* \"#utility.yul\":297:626   */\n    tag_17:\n        /* \"#utility.yul\":356:362   */\n      0x00\n        /* \"#utility.yul\":405:407   */\n      0x20\n        /* \"#utility.yul\":393:402   */\n      dup3\n        /* \"#utility.yul\":384:391   */\n      dup5\n        /* \"#utility.yul\":380:403   */\n      sub\n        /* \"#utility.yul\":376:408   */\n      slt\n        /* \"#utility.yul\":373:492   */\n      iszero\n      tag_59\n      jumpi\n        /* \"#utility.yul\":411:490   */\n      tag_60\n      tag_61\n      jump\t// in\n    tag_60:\n        /* \"#utility.yul\":373:492   */\n    tag_59:\n        /* \"#utility.yul\":531:532   */\n      0x00\n        /* \"#utility.yul\":556:609   */\n      tag_62\n        /* \"#utility.yul\":601:608   */\n      dup5\n        /* \"#utility.yul\":592:598   */\n      dup3\n        /* \"#utility.yul\":581:590   */\n      dup6\n        /* \"#utility.yul\":577:599   */\n      add\n        /* \"#utility.yul\":556:609   */\n      tag_50\n      jump\t// in\n    tag_62:\n        /* \"#utility.yul\":546:609   */\n      swap2\n      pop\n        /* \"#utility.yul\":502:619   */\n      pop\n        /* \"#utility.yul\":297:626   */\n      swap3\n      swap2\n      pop\n      pop\n      jump\t// out\n        /* \"#utility.yul\":632:961   */\n    tag_9:\n        /* \"#utility.yul\":691:697   */\n      0x00\n        /* \"#utility.yul\":740:742   */\n      0x20\n        /* \"#utility.yul\":728:737   */\n      dup3\n        /* \"#utility.yul\":719:726   */\n      dup5\n        /* \"#utility.yul\":715:738   */\n      sub\n        /* \"#utility.yul\":711:743   */\n      slt\n        /* \"#utility.yul\":708:827   */\n      iszero\n      tag_64\n      jumpi\n        /* \"#utility.yul\":746:825   */\n      tag_65\n      tag_61\n      jump\t// in\n    tag_65:\n        /* \"#utility.yul\":708:827   */\n    tag_64:\n        /* \"#utility.yul\":866:867   */\n      0x00\n        /* \"#utility.yul\":891:944   */\n      tag_66\n        /* \"#utility.yul\":936:943   */\n      dup5\n        /* \"#utility.yul\":927:933   */\n      dup3\n        /* \"#utility.yul\":916:925   */\n      dup6\n        /* \"#utility.yul\":912:934   */\n      add\n        /* \"#utility.yul\":891:944   */\n      tag_54\n      jump\t// in\n    tag_66:\n        /* \"#utility.yul\":881:944   */\n      swap2\n      pop\n        /* \"#utility.yul\":837:954   */\n      pop\n        /* \"#utility.yul\":632:961   */\n      swap3\n      swap2\n      pop\n      pop\n      jump\t// out\n        /* \"#utility.yul\":967:1146   */\n    tag_67:\n        /* \"#utility.yul\":1036:1046   */\n      0x00\n        /* \"#utility.yul\":1057:1103   */\n      tag_69\n        /* \"#utility.yul\":1099:1102   */\n      dup4\n        /* \"#utility.yul\":1091:1097   */\n      dup4\n        /* \"#utility.yul\":1057:1103   */\n      tag_70\n      jump\t// in\n    tag_69:\n        /* \"#utility.yul\":1135:1139   */\n      0x20\n        /* \"#utility.yul\":1130:1133   */\n      dup4\n        /* \"#utility.yul\":1126:1140   */\n      add\n        /* \"#utility.yul\":1112:1140   */\n      swap1\n      pop\n        /* \"#utility.yul\":967:1146   */\n      swap3\n      swap2\n      pop\n      pop\n      jump\t// out\n        /* \"#utility.yul\":1182:1914   */\n    tag_71:\n        /* \"#utility.yul\":1301:1304   */\n      0x00\n        /* \"#utility.yul\":1330:1384   */\n      tag_73\n        /* \"#utility.yul\":1378:1383   */\n      dup3\n        /* \"#utility.yul\":1330:1384   */\n      tag_74\n      jump\t// in\n    tag_73:\n        /* \"#utility.yul\":1400:1486   */\n      tag_75\n        /* \"#utility.yul\":1479:1485   */\n      dup2\n        /* \"#utility.yul\":1474:1477   */\n      dup6\n        /* \"#utility.yul\":1400:1486   */\n      tag_76\n      jump\t// in\n    tag_75:\n        /* \"#utility.yul\":1393:1486   */\n      swap4\n      pop\n        /* \"#utility.yul\":1510:1566   */\n      tag_77\n        /* \"#utility.yul\":1560:1565   */\n      dup4\n        /* \"#utility.yul\":1510:1566   */\n      tag_78\n      jump\t// in\n    tag_77:\n        /* \"#utility.yul\":1589:1596   */\n      dup1\n        /* \"#utility.yul\":1620:1621   */\n      0x00\n        /* \"#utility.yul\":1605:1889   */\n    tag_79:\n        /* \"#utility.yul\":1630:1636   */\n      dup4\n        /* \"#utility.yul\":1627:1628   */\n      dup2\n        /* \"#utility.yul\":1624:1637   */\n      lt\n        /* \"#utility.yul\":1605:1889   */\n      iszero\n      tag_81\n      jumpi\n        /* \"#utility.yul\":1706:1712   */\n      dup2\n        /* \"#utility.yul\":1700:1713   */\n      mload\n        /* \"#utility.yul\":1733:1796   */\n      tag_82\n        /* \"#utility.yul\":1792:1795   */\n      dup9\n        /* \"#utility.yul\":1777:1790   */\n      dup3\n        /* \"#utility.yul\":1733:1796   */\n      tag_67\n      jump\t// in\n    tag_82:\n        /* \"#utility.yul\":1726:1796   */\n      swap8\n      pop\n        /* \"#utility.yul\":1819:1879   */\n      tag_83\n        /* \"#utility.yul\":1872:1878   */\n      dup4\n        /* \"#utility.yul\":1819:1879   */\n      tag_84\n      jump\t// in\n    tag_83:\n        /* \"#utility.yul\":1809:1879   */\n      swap3\n      pop\n        /* \"#utility.yul\":1665:1889   */\n      pop\n        /* \"#utility.yul\":1652:1653   */\n      0x01\n        /* \"#utility.yul\":1649:1650   */\n      dup2\n        /* \"#utility.yul\":1645:1654   */\n      add\n        /* \"#utility.yul\":1640:1654   */\n      swap1\n      pop\n        /* \"#utility.yul\":1605:1889   */\n      jump(tag_79)\n    tag_81:\n        /* \"#utility.yul\":1609:1623   */\n      pop\n        /* \"#utility.yul\":1905:1908   */\n      dup6\n        /* \"#utility.yul\":1898:1908   */\n      swap4\n      pop\n        /* \"#utility.yul\":1306:1914   */\n      pop\n      pop\n      pop\n        /* \"#utility.yul\":1182:1914   */\n      swap3\n      swap2\n      pop\n      pop\n      jump\t// out\n        /* \"#utility.yul\":1920:2029   */\n    tag_85:\n        /* \"#utility.yul\":2001:2022   */\n      tag_87\n        /* \"#utility.yul\":2016:2021   */\n      dup2\n        /* \"#utility.yul\":2001:2022   */\n      tag_88\n      jump\t// in\n    tag_87:\n        /* \"#utility.yul\":1996:1999   */\n      dup3\n        /* \"#utility.yul\":1989:2023   */\n      mstore\n        /* \"#utility.yul\":1920:2029   */\n      pop\n      pop\n      jump\t// out\n        /* \"#utility.yul\":2035:2143   */\n    tag_70:\n        /* \"#utility.yul\":2112:2136   */\n      tag_90\n        /* \"#utility.yul\":2130:2135   */\n      dup2\n        /* \"#utility.yul\":2112:2136   */\n      tag_91\n      jump\t// in\n    tag_90:\n        /* \"#utility.yul\":2107:2110   */\n      dup3\n        /* \"#utility.yul\":2100:2137   */\n      mstore\n        /* \"#utility.yul\":2035:2143   */\n      pop\n      pop\n      jump\t// out\n        /* \"#utility.yul\":2149:2267   */\n    tag_92:\n        /* \"#utility.yul\":2236:2260   */\n      tag_94\n        /* \"#utility.yul\":2254:2259   */\n      dup2\n        /* \"#utility.yul\":2236:2260   */\n      tag_91\n      jump\t// in\n    tag_94:\n        /* \"#utility.yul\":2231:2234   */\n      dup3\n        /* \"#utility.yul\":2224:2261   */\n      mstore\n        /* \"#utility.yul\":2149:2267   */\n      pop\n      pop\n      jump\t// out\n        /* \"#utility.yul\":2273:2646   */\n    tag_14:\n        /* \"#utility.yul\":2416:2420   */\n      0x00\n        /* \"#utility.yul\":2454:2456   */\n      0x20\n        /* \"#utility.yul\":2443:2452   */\n      dup3\n        /* \"#utility.yul\":2439:2457   */\n      add\n        /* \"#utility.yul\":2431:2457   */\n      swap1\n      pop\n        /* \"#utility.yul\":2503:2512   */\n      dup2\n        /* \"#utility.yul\":2497:2501   */\n      dup2\n        /* \"#utility.yul\":2493:2513   */\n      sub\n        /* \"#utility.yul\":2489:2490   */\n      0x00\n        /* \"#utility.yul\":2478:2487   */\n      dup4\n        /* \"#utility.yul\":2474:2491   */\n      add\n        /* \"#utility.yul\":2467:2514   */\n      mstore\n        /* \"#utility.yul\":2531:2639   */\n      tag_96\n        /* \"#utility.yul\":2634:2638   */\n      dup2\n        /* \"#utility.yul\":2625:2631   */\n      dup5\n        /* \"#utility.yul\":2531:2639   */\n      tag_71\n      jump\t// in\n    tag_96:\n        /* \"#utility.yul\":2523:2639   */\n      swap1\n      pop\n        /* \"#utility.yul\":2273:2646   */\n      swap3\n      swap2\n      pop\n      pop\n      jump\t// out\n        /* \"#utility.yul\":2652:2862   */\n    tag_20:\n        /* \"#utility.yul\":2739:2743   */\n      0x00\n        /* \"#utility.yul\":2777:2779   */\n      0x20\n        /* \"#utility.yul\":2766:2775   */\n      dup3\n        /* \"#utility.yul\":2762:2780   */\n      add\n        /* \"#utility.yul\":2754:2780   */\n      swap1\n      pop\n        /* \"#utility.yul\":2790:2855   */\n      tag_98\n        /* \"#utility.yul\":2852:2853   */\n      0x00\n        /* \"#utility.yul\":2841:2850   */\n      dup4\n        /* \"#utility.yul\":2837:2854   */\n      add\n        /* \"#utility.yul\":2828:2834   */\n      dup5\n        /* \"#utility.yul\":2790:2855   */\n      tag_85\n      jump\t// in\n    tag_98:\n        /* \"#utility.yul\":2652:2862   */\n      swap3\n      swap2\n      pop\n      pop\n      jump\t// out\n        /* \"#utility.yul\":2868:3090   */\n    tag_24:\n        /* \"#utility.yul\":2961:2965   */\n      0x00\n        /* \"#utility.yul\":2999:3001   */\n      0x20\n        /* \"#utility.yul\":2988:2997   */\n      dup3\n        /* \"#utility.yul\":2984:3002   */\n      add\n        /* \"#utility.yul\":2976:3002   */\n      swap1\n      pop\n        /* \"#utility.yul\":3012:3083   */\n      tag_100\n        /* \"#utility.yul\":3080:3081   */\n      0x00\n        /* \"#utility.yul\":3069:3078   */\n      dup4\n        /* \"#utility.yul\":3065:3082   */\n      add\n        /* \"#utility.yul\":3056:3062   */\n      dup5\n        /* \"#utility.yul\":3012:3083   */\n      tag_92\n      jump\t// in\n    tag_100:\n        /* \"#utility.yul\":2868:3090   */\n      swap3\n      swap2\n      pop\n      pop\n      jump\t// out\n        /* \"#utility.yul\":3177:3309   */\n    tag_78:\n        /* \"#utility.yul\":3244:3248   */\n      0x00\n        /* \"#utility.yul\":3267:3270   */\n      dup2\n        /* \"#utility.yul\":3259:3270   */\n      swap1\n      pop\n        /* \"#utility.yul\":3297:3301   */\n      0x20\n        /* \"#utility.yul\":3292:3295   */\n      dup3\n        /* \"#utility.yul\":3288:3302   */\n      add\n        /* \"#utility.yul\":3280:3302   */\n      swap1\n      pop\n        /* \"#utility.yul\":3177:3309   */\n      swap2\n      swap1\n      pop\n      jump\t// out\n        /* \"#utility.yul\":3315:3429   */\n    tag_74:\n        /* \"#utility.yul\":3382:3388   */\n      0x00\n        /* \"#utility.yul\":3416:3421   */\n      dup2\n        /* \"#utility.yul\":3410:3422   */\n      mload\n        /* \"#utility.yul\":3400:3422   */\n      swap1\n      pop\n        /* \"#utility.yul\":3315:3429   */\n      swap2\n      swap1\n      pop\n      jump\t// out\n        /* \"#utility.yul\":3435:3548   */\n    tag_84:\n        /* \"#utility.yul\":3505:3509   */\n      0x00\n        /* \"#utility.yul\":3537:3541   */\n      0x20\n        /* \"#utility.yul\":3532:3535   */\n      dup3\n        /* \"#utility.yul\":3528:3542   */\n      add\n        /* \"#utility.yul\":3520:3542   */\n      swap1\n      pop\n        /* \"#utility.yul\":3435:3548   */\n      swap2\n      swap1\n      pop\n      jump\t// out\n        /* \"#utility.yul\":3554:3738   */\n    tag_76:\n        /* \"#utility.yul\":3653:3664   */\n      0x00\n        /* \"#utility.yul\":3687:3693   */\n      dup3\n        /* \"#utility.yul\":3682:3685   */\n      dup3\n        /* \"#utility.yul\":3675:3694   */\n      mstore\n        /* \"#utility.yul\":3727:3731   */\n      0x20\n        /* \"#utility.yul\":3722:3725   */\n      dup3\n        /* \"#utility.yul\":3718:3732   */\n      add\n        /* \"#utility.yul\":3703:3732   */\n      swap1\n      pop\n        /* \"#utility.yul\":3554:3738   */\n      swap3\n      swap2\n      pop\n      pop\n      jump\t// out\n        /* \"#utility.yul\":3744:3840   */\n    tag_107:\n        /* \"#utility.yul\":3781:3788   */\n      0x00\n        /* \"#utility.yul\":3810:3834   */\n      tag_109\n        /* \"#utility.yul\":3828:3833   */\n      dup3\n        /* \"#utility.yul\":3810:3834   */\n      tag_110\n      jump\t// in\n    tag_109:\n        /* \"#utility.yul\":3799:3834   */\n      swap1\n      pop\n        /* \"#utility.yul\":3744:3840   */\n      swap2\n      swap1\n      pop\n      jump\t// out\n        /* \"#utility.yul\":3846:3936   */\n    tag_88:\n        /* \"#utility.yul\":3880:3887   */\n      0x00\n        /* \"#utility.yul\":3923:3928   */\n      dup2\n        /* \"#utility.yul\":3916:3929   */\n      iszero\n        /* \"#utility.yul\":3909:3930   */\n      iszero\n        /* \"#utility.yul\":3898:3930   */\n      swap1\n      pop\n        /* \"#utility.yul\":3846:3936   */\n      swap2\n      swap1\n      pop\n      jump\t// out\n        /* \"#utility.yul\":3942:4068   */\n    tag_110:\n        /* \"#utility.yul\":3979:3986   */\n      0x00\n        /* \"#utility.yul\":4019:4061   */\n      0xffffffffffffffffffffffffffffffffffffffff\n        /* \"#utility.yul\":4012:4017   */\n      dup3\n        /* \"#utility.yul\":4008:4062   */\n      and\n        /* \"#utility.yul\":3997:4062   */\n      swap1\n      pop\n        /* \"#utility.yul\":3942:4068   */\n      swap2\n      swap1\n      pop\n      jump\t// out\n        /* \"#utility.yul\":4074:4151   */\n    tag_91:\n        /* \"#utility.yul\":4111:4118   */\n      0x00\n        /* \"#utility.yul\":4140:4145   */\n      dup2\n        /* \"#utility.yul\":4129:4145   */\n      swap1\n      pop\n        /* \"#utility.yul\":4074:4151   */\n      swap2\n      swap1\n      pop\n      jump\t// out\n        /* \"#utility.yul\":4157:4390   */\n    tag_33:\n        /* \"#utility.yul\":4196:4199   */\n      0x00\n        /* \"#utility.yul\":4219:4243   */\n      tag_115\n        /* \"#utility.yul\":4237:4242   */\n      dup3\n        /* \"#utility.yul\":4219:4243   */\n      tag_91\n      jump\t// in\n    tag_115:\n        /* \"#utility.yul\":4210:4243   */\n      swap2\n      pop\n        /* \"#utility.yul\":4265:4331   */\n      0xffffffffffffffffffffffffffffffffffffffffffffffffffffffffffffffff\n        /* \"#utility.yul\":4258:4263   */\n      dup3\n        /* \"#utility.yul\":4255:4332   */\n      eq\n        /* \"#utility.yul\":4252:4355   */\n      iszero\n      tag_116\n      jumpi\n        /* \"#utility.yul\":4335:4353   */\n      tag_117\n      tag_118\n      jump\t// in\n    tag_117:\n        /* \"#utility.yul\":4252:4355   */\n    tag_116:\n        /* \"#utility.yul\":4382:4383   */\n      0x01\n        /* \"#utility.yul\":4375:4380   */\n      dup3\n        /* \"#utility.yul\":4371:4384   */\n      add\n        /* \"#utility.yul\":4364:4384   */\n      swap1\n      pop\n        /* \"#utility.yul\":4157:4390   */\n      swap2\n      swap1\n      pop\n      jump\t// out\n        /* \"#utility.yul\":4396:4576   */\n    tag_118:\n        /* \"#utility.yul\":4444:4521   */\n      0x4e487b7100000000000000000000000000000000000000000000000000000000\n        /* \"#utility.yul\":4441:4442   */\n      0x00\n        /* \"#utility.yul\":4434:4522   */\n      mstore\n        /* \"#utility.yul\":4541:4545   */\n      0x11\n        /* \"#utility.yul\":4538:4539   */\n      0x04\n        /* \"#utility.yul\":4531:4546   */\n      mstore\n        /* \"#utility.yul\":4565:4569   */\n      0x24\n        /* \"#utility.yul\":4562:4563   */\n      0x00\n        /* \"#utility.yul\":4555:4570   */\n      revert\n        /* \"#utility.yul\":4582:4762   */\n    tag_30:\n        /* \"#utility.yul\":4630:4707   */\n      0x4e487b7100000000000000000000000000000000000000000000000000000000\n        /* \"#utility.yul\":4627:4628   */\n      0x00\n        /* \"#utility.yul\":4620:4708   */\n      mstore\n        /* \"#utility.yul\":4727:4731   */\n      0x32\n        /* \"#utility.yul\":4724:4725   */\n      0x04\n        /* \"#utility.yul\":4717:4732   */\n      mstore\n        /* \"#utility.yul\":4751:4755   */\n      0x24\n        /* \"#utility.yul\":4748:4749   */\n      0x00\n        /* \"#utility.yul\":4741:4756   */\n      revert\n        /* \"#utility.yul\":4891:5008   */\n    tag_61:\n        /* \"#utility.yul\":5000:5001   */\n      0x00\n        /* \"#utility.yul\":4997:4998   */\n      dup1\n        /* \"#utility.yul\":4990:5002   */\n      revert\n        /* \"#utility.yul\":5014:5136   */\n    tag_53:\n        /* \"#utility.yul\":5087:5111   */\n      tag_125\n        /* \"#utility.yul\":5105:5110   */\n      dup2\n        /* \"#utility.yul\":5087:5111   */\n      tag_107\n      jump\t// in\n    tag_125:\n        /* \"#utility.yul\":5080:5085   */\n      dup2\n        /* \"#utility.yul\":5077:5112   */\n      eq\n        /* \"#utility.yul\":5067:5130   */\n      tag_126\n      jumpi\n        /* \"#utility.yul\":5126:5127   */\n      0x00\n        /* \"#utility.yul\":5123:5124   */\n      dup1\n        /* \"#utility.yul\":5116:5128   */\n      revert\n        /* \"#utility.yul\":5067:5130   */\n    tag_126:\n        /* \"#utility.yul\":5014:5136   */\n      pop\n      jump\t// out\n        /* \"#utility.yul\":5142:5264   */\n    tag_57:\n        /* \"#utility.yul\":5215:5239   */\n      tag_128\n        /* \"#utility.yul\":5233:5238   */\n      dup2\n        /* \"#utility.yul\":5215:5239   */\n      tag_91\n      jump\t// in\n    tag_128:\n        /* \"#utility.yul\":5208:5213   */\n      dup2\n        /* \"#utility.yul\":5205:5240   */\n      eq\n        /* \"#utility.yul\":5195:5258   */\n      tag_129\n      jumpi\n        /* \"#utility.yul\":5254:5255   */\n      0x00\n        /* \"#utility.yul\":5251:5252   */\n      dup1\n        /* \"#utility.yul\":5244:5256   */\n      revert\n        /* \"#utility.yul\":5195:5258   */\n    tag_129:\n        /* \"#utility.yul\":5142:5264   */\n      pop\n      jump\t// out\n\n    auxdata: 0xa26469706673582212209a764c325f11b294f62cc6e1630c991636e99a6fb2b5fe7ebee3c191880acd2464736f6c63430008070033\n}\n",
				"bytecode": {
					"linkReferences": {},
					"object": "608060405234801561001057600080fd5b506105d0806100206000396000f3fe608060405234801561001057600080fd5b506004361061004c5760003560e01c80630121b93f146100515780636d4ce63c1461006d578063a3ec138d1461008b578063d28178d7146100bb575b600080fd5b61006b60048036038101906100669190610317565b6100d9565b005b6100756101ce565b60405161008291906103e7565b60405180910390f35b6100a560048036038101906100a091906102ea565b610226565b6040516100b29190610409565b60405180910390f35b6100c3610246565b6040516100d09190610424565b60405180910390f35b600160003373ffffffffffffffffffffffffffffffffffffffff1673ffffffffffffffffffffffffffffffffffffffff16815260200190815260200160002060009054906101000a900460ff16158015610137575060008054905081105b61014057600080fd5b60018060003373ffffffffffffffffffffffffffffffffffffffff1673ffffffffffffffffffffffffffffffffffffffff16815260200190815260200160002060006101000a81548160ff021916908315150217905550600081815481106101ab576101aa610538565b5b9060005260206000200160008154809291906101c6906104c0565b919050555050565b6060600080548060200260200160405190810160405280929190818152602001828054801561021c57602002820191906000526020600020905b815481526020019060010190808311610208575b5050505050905090565b60016020528060005260406000206000915054906101000a900460ff1681565b6000806000905060005b6000805490508110156102bb57816000828154811061027257610271610538565b5b906000526020600020015411156102a8576000818154811061029757610296610538565b5b906000526020600020015491508092505b80806102b3906104c0565b915050610250565b505090565b6000813590506102cf8161056c565b92915050565b6000813590506102e481610583565b92915050565b600060208284031215610300576102ff610567565b5b600061030e848285016102c0565b91505092915050565b60006020828403121561032d5761032c610567565b5b600061033b848285016102d5565b91505092915050565b600061035083836103c9565b60208301905092915050565b60006103678261044f565b6103718185610467565b935061037c8361043f565b8060005b838110156103ad5781516103948882610344565b975061039f8361045a565b925050600181019050610380565b5085935050505092915050565b6103c38161048a565b82525050565b6103d2816104b6565b82525050565b6103e1816104b6565b82525050565b60006020820190508181036000830152610401818461035c565b905092915050565b600060208201905061041e60008301846103ba565b92915050565b600060208201905061043960008301846103d8565b92915050565b6000819050602082019050919050565b600081519050919050565b6000602082019050919050565b600082825260208201905092915050565b600061048382610496565b9050919050565b60008115159050919050565b600073ffffffffffffffffffffffffffffffffffffffff82169050919050565b6000819050919050565b60006104cb826104b6565b91507fffffffffffffffffffffffffffffffffffffffffffffffffffffffffffffffff8214156104fe576104fd610509565b5b600182019050919050565b7f4e487b7100000000000000000000000000000000000000000000000000000000600052601160045260246000fd5b7f4e487b7100000000000000000000000000000000000000000000000000000000600052603260045260246000fd5b600080fd5b61057581610478565b811461058057600080fd5b50565b61058c816104b6565b811461059757600080fd5b5056fea26469706673582212209a764c325f11b294f62cc6e1630c991636e99a6fb2b5fe7ebee3c191880acd2464736f6c63430008070033",
					"opcodes": "PUSH1 0x80 PUSH1 0x40 MSTORE CALLVALUE DUP1 ISZERO PUSH2 0x10 JUMPI PUSH1 0x0 DUP1 REVERT JUMPDEST POP PUSH2 0x5D0 DUP1 PUSH2 0x20 PUSH1 0x0 CODECOPY PUSH1 0x0 RETURN INVALID PUSH1 0x80 PUSH1 0x40 MSTORE CALLVALUE DUP1 ISZERO PUSH2 0x10 JUMPI PUSH1 0x0 DUP1 REVERT JUMPDEST POP PUSH1 0x4 CALLDATASIZE LT PUSH2 0x4C JUMPI PUSH1 0x0 CALLDATALOAD PUSH1 0xE0 SHR DUP1 PUSH4 0x121B93F EQ PUSH2 0x51 JUMPI DUP1 PUSH4 0x6D4CE63C EQ PUSH2 0x6D JUMPI DUP1 PUSH4 0xA3EC138D EQ PUSH2 0x8B JUMPI DUP1 PUSH4 0xD28178D7 EQ PUSH2 0xBB JUMPI JUMPDEST PUSH1 0x0 DUP1 REVERT JUMPDEST PUSH2 0x6B PUSH1 0x4 DUP1 CALLDATASIZE SUB DUP2 ADD SWAP1 PUSH2 0x66 SWAP2 SWAP1 PUSH2 0x317 JUMP JUMPDEST PUSH2 0xD9 JUMP JUMPDEST STOP JUMPDEST PUSH2 0x75 PUSH2 0x1CE JUMP JUMPDEST PUSH1 0x40 MLOAD PUSH2 0x82 SWAP2 SWAP1 PUSH2 0x3E7 JUMP JUMPDEST PUSH1 0x40 MLOAD DUP1 SWAP2 SUB SWAP1 RETURN JUMPDEST PUSH2 0xA5 PUSH1 0x4 DUP1 CALLDATASIZE SUB DUP2 ADD SWAP1 PUSH2 0xA0 SWAP2 SWAP1 PUSH2 0x2EA JUMP JUMPDEST PUSH2 0x226 JUMP JUMPDEST PUSH1 0x40 MLOAD PUSH2 0xB2 SWAP2 SWAP1 PUSH2 0x409 JUMP JUMPDEST PUSH1 0x40 MLOAD DUP1 SWAP2 SUB SWAP1 RETURN JUMPDEST PUSH2 0xC3 PUSH2 0x246 JUMP JUMPDEST PUSH1 0x40 MLOAD PUSH2 0xD0 SWAP2 SWAP1 PUSH2 0x424 JUMP JUMPDEST PUSH1 0x40 MLOAD DUP1 SWAP2 SUB SWAP1 RETURN JUMPDEST PUSH1 0x1 PUSH1 0x0 CALLER PUSH20 0xFFFFFFFFFFFFFFFFFFFFFFFFFFFFFFFFFFFFFFFF AND PUSH20 0xFFFFFFFFFFFFFFFFFFFFFFFFFFFFFFFFFFFFFFFF AND DUP2 MSTORE PUSH1 0x20 ADD SWAP1 DUP2 MSTORE PUSH1 0x20 ADD PUSH1 0x0 KECCAK256 PUSH1 0x0 SWAP1 SLOAD SWAP1 PUSH2 0x100 EXP SWAP1 DIV PUSH1 0xFF AND ISZERO DUP1 ISZERO PUSH2 0x137 JUMPI POP PUSH1 0x0 DUP1 SLOAD SWAP1 POP DUP2 LT JUMPDEST PUSH2 0x140 JUMPI PUSH1 0x0 DUP1 REVERT JUMPDEST PUSH1 0x1 DUP1 PUSH1 0x0 CALLER PUSH20 0xFFFFFFFFFFFFFFFFFFFFFFFFFFFFFFFFFFFFFFFF AND PUSH20 0xFFFFFFFFFFFFFFFFFFFFFFFFFFFFFFFFFFFFFFFF AND DUP2 MSTORE PUSH1 0x20 ADD SWAP1 DUP2 MSTORE PUSH1 0x20 ADD PUSH1 0x0 KECCAK256 PUSH1 0x0 PUSH2 0x100 EXP DUP2 SLOAD DUP2 PUSH1 0xFF MUL NOT AND SWAP1 DUP4 ISZERO ISZERO MUL OR SWAP1 SSTORE POP PUSH1 0x0 DUP2 DUP2 SLOAD DUP2 LT PUSH2 0x1AB JUMPI PUSH2 0x1AA PUSH2 0x538 JUMP JUMPDEST JUMPDEST SWAP1 PUSH1 0x0 MSTORE PUSH1 0x20 PUSH1 0x0 KECCAK256 ADD PUSH1 0x0 DUP2 SLOAD DUP1 SWAP3 SWAP2 SWAP1 PUSH2 0x1C6 SWAP1 PUSH2 0x4C0 JUMP JUMPDEST SWAP2 SWAP1 POP SSTORE POP POP JUMP JUMPDEST PUSH1 0x60 PUSH1 0x0 DUP1 SLOAD DUP1 PUSH1 0x20 MUL PUSH1 0x20 ADD PUSH1 0x40 MLOAD SWAP1 DUP2 ADD PUSH1 0x40 MSTORE DUP1 SWAP3 SWAP2 SWAP1 DUP2 DUP2 MSTORE PUSH1 0x20 ADD DUP3 DUP1 SLOAD DUP1 ISZERO PUSH2 0x21C JUMPI PUSH1 0x20 MUL DUP3 ADD SWAP2 SWAP1 PUSH1 0x0 MSTORE PUSH1 0x20 PUSH1 0x0 KECCAK256 SWAP1 JUMPDEST DUP2 SLOAD DUP2 MSTORE PUSH1 0x20 ADD SWAP1 PUSH1 0x1 ADD SWAP1 DUP1 DUP4 GT PUSH2 0x208 JUMPI JUMPDEST POP POP POP POP POP SWAP1 POP SWAP1 JUMP JUMPDEST PUSH1 0x1 PUSH1 0x20 MSTORE DUP1 PUSH1 0x0 MSTORE PUSH1 0x40 PUSH1 0x0 KECCAK256 PUSH1 0x0 SWAP2 POP SLOAD SWAP1 PUSH2 0x100 EXP SWAP1 DIV PUSH1 0xFF AND DUP2 JUMP JUMPDEST PUSH1 0x0 DUP1 PUSH1 0x0 SWAP1 POP PUSH1 0x0 JUMPDEST PUSH1 0x0 DUP1 SLOAD SWAP1 POP DUP2 LT ISZERO PUSH2 0x2BB JUMPI DUP2 PUSH1 0x0 DUP3 DUP2 SLOAD DUP2 LT PUSH2 0x272 JUMPI PUSH2 0x271 PUSH2 0x538 JUMP JUMPDEST JUMPDEST SWAP1 PUSH1 0x0 MSTORE PUSH1 0x20 PUSH1 0x0 KECCAK256 ADD SLOAD GT ISZERO PUSH2 0x2A8 JUMPI PUSH1 0x0 DUP2 DUP2 SLOAD DUP2 LT PUSH2 0x297 JUMPI PUSH2 0x296 PUSH2 0x538 JUMP JUMPDEST JUMPDEST SWAP1 PUSH1 0x0 MSTORE PUSH1 0x20 PUSH1 0x0 KECCAK256 ADD SLOAD SWAP2 POP DUP1 SWAP3 POP JUMPDEST DUP1 DUP1 PUSH2 0x2B3 SWAP1 PUSH2 0x4C0 JUMP JUMPDEST SWAP2 POP POP PUSH2 0x250 JUMP JUMPDEST POP POP SWAP1 JUMP JUMPDEST PUSH1 0x0 DUP2 CALLDATALOAD SWAP1 POP PUSH2 0x2CF DUP2 PUSH2 0x56C JUMP JUMPDEST SWAP3 SWAP2 POP POP JUMP JUMPDEST PUSH1 0x0 DUP2 CALLDATALOAD SWAP1 POP PUSH2 0x2E4 DUP2 PUSH2 0x583 JUMP JUMPDEST SWAP3 SWAP2 POP POP JUMP JUMPDEST PUSH1 0x0 PUSH1 0x20 DUP3 DUP5 SUB SLT ISZERO PUSH2 0x300 JUMPI PUSH2 0x2FF PUSH2 0x567 JUMP JUMPDEST JUMPDEST PUSH1 0x0 PUSH2 0x30E DUP5 DUP3 DUP6 ADD PUSH2 0x2C0 JUMP JUMPDEST SWAP2 POP POP SWAP3 SWAP2 POP POP JUMP JUMPDEST PUSH1 0x0 PUSH1 0x20 DUP3 DUP5 SUB SLT ISZERO PUSH2 0x32D JUMPI PUSH2 0x32C PUSH2 0x567 JUMP JUMPDEST JUMPDEST PUSH1 0x0 PUSH2 0x33B DUP5 DUP3 DUP6 ADD PUSH2 0x2D5 JUMP JUMPDEST SWAP2 POP POP SWAP3 SWAP2 POP POP JUMP JUMPDEST PUSH1 0x0 PUSH2 0x350 DUP4 DUP4 PUSH2 0x3C9 JUMP JUMPDEST PUSH1 0x20 DUP4 ADD SWAP1 POP SWAP3 SWAP2 POP POP JUMP JUMPDEST PUSH1 0x0 PUSH2 0x367 DUP3 PUSH2 0x44F JUMP JUMPDEST PUSH2 0x371 DUP2 DUP6 PUSH2 0x467 JUMP JUMPDEST SWAP4 POP PUSH2 0x37C DUP4 PUSH2 0x43F JUMP JUMPDEST DUP1 PUSH1 0x0 JUMPDEST DUP4 DUP2 LT ISZERO PUSH2 0x3AD JUMPI DUP2 MLOAD PUSH2 0x394 DUP9 DUP3 PUSH2 0x344 JUMP JUMPDEST SWAP8 POP PUSH2 0x39F DUP4 PUSH2 0x45A JUMP JUMPDEST SWAP3 POP POP PUSH1 0x1 DUP2 ADD SWAP1 POP PUSH2 0x380 JUMP JUMPDEST POP DUP6 SWAP4 POP POP POP POP SWAP3 SWAP2 POP POP JUMP JUMPDEST PUSH2 0x3C3 DUP2 PUSH2 0x48A JUMP JUMPDEST DUP3 MSTORE POP POP JUMP JUMPDEST PUSH2 0x3D2 DUP2 PUSH2 0x4B6 JUMP JUMPDEST DUP3 MSTORE POP POP JUMP JUMPDEST PUSH2 0x3E1 DUP2 PUSH2 0x4B6 JUMP JUMPDEST DUP3 MSTORE POP POP JUMP JUMPDEST PUSH1 0x0 PUSH1 0x20 DUP3 ADD SWAP1 POP DUP2 DUP2 SUB PUSH1 0x0 DUP4 ADD MSTORE PUSH2 0x401 DUP2 DUP5 PUSH2 0x35C JUMP JUMPDEST SWAP1 POP SWAP3 SWAP2 POP POP JUMP JUMPDEST PUSH1 0x0 PUSH1 0x20 DUP3 ADD SWAP1 POP PUSH2 0x41E PUSH1 0x0 DUP4 ADD DUP5 PUSH2 0x3BA JUMP JUMPDEST SWAP3 SWAP2 POP POP JUMP JUMPDEST PUSH1 0x0 PUSH1 0x20 DUP3 ADD SWAP1 POP PUSH2 0x439 PUSH1 0x0 DUP4 ADD DUP5 PUSH2 0x3D8 JUMP JUMPDEST SWAP3 SWAP2 POP POP JUMP JUMPDEST PUSH1 0x0 DUP2 SWAP1 POP PUSH1 0x20 DUP3 ADD SWAP1 POP SWAP2 SWAP1 POP JUMP JUMPDEST PUSH1 0x0 DUP2 MLOAD SWAP1 POP SWAP2 SWAP1 POP JUMP JUMPDEST PUSH1 0x0 PUSH1 0x20 DUP3 ADD SWAP1 POP SWAP2 SWAP1 POP JUMP JUMPDEST PUSH1 0x0 DUP3 DUP3 MSTORE PUSH1 0x20 DUP3 ADD SWAP1 POP SWAP3 SWAP2 POP POP JUMP JUMPDEST PUSH1 0x0 PUSH2 0x483 DUP3 PUSH2 0x496 JUMP JUMPDEST SWAP1 POP SWAP2 SWAP1 POP JUMP JUMPDEST PUSH1 0x0 DUP2 ISZERO ISZERO SWAP1 POP SWAP2 SWAP1 POP JUMP JUMPDEST PUSH1 0x0 PUSH20 0xFFFFFFFFFFFFFFFFFFFFFFFFFFFFFFFFFFFFFFFF DUP3 AND SWAP1 POP SWAP2 SWAP1 POP JUMP JUMPDEST PUSH1 0x0 DUP2 SWAP1 POP SWAP2 SWAP1 POP JUMP JUMPDEST PUSH1 0x0 PUSH2 0x4CB DUP3 PUSH2 0x4B6 JUMP JUMPDEST SWAP2 POP PUSH32 0xFFFFFFFFFFFFFFFFFFFFFFFFFFFFFFFFFFFFFFFFFFFFFFFFFFFFFFFFFFFFFFFF DUP3 EQ ISZERO PUSH2 0x4FE JUMPI PUSH2 0x4FD PUSH2 0x509 JUMP JUMPDEST JUMPDEST PUSH1 0x1 DUP3 ADD SWAP1 POP SWAP2 SWAP1 POP JUMP JUMPDEST PUSH32 0x4E487B7100000000000000000000000000000000000000000000000000000000 PUSH1 0x0 MSTORE PUSH1 0x11 PUSH1 0x4 MSTORE PUSH1 0x24 PUSH1 0x0 REVERT JUMPDEST PUSH32 0x4E487B7100000000000000000000000000000000000000000000000000000000 PUSH1 0x0 MSTORE PUSH1 0x32 PUSH1 0x4 MSTORE PUSH1 0x24 PUSH1 0x0 REVERT JUMPDEST PUSH1 0x0 DUP1 REVERT JUMPDEST PUSH2 0x575 DUP2 PUSH2 0x478 JUMP JUMPDEST DUP2 EQ PUSH2 0x580 JUMPI PUSH1 0x0 DUP1 REVERT JUMPDEST POP JUMP JUMPDEST PUSH2 0x58C DUP2 PUSH2 0x4B6 JUMP JUMPDEST DUP2 EQ PUSH2 0x597 JUMPI PUSH1 0x0 DUP1 REVERT JUMPDEST POP JUMP INVALID LOG2 PUSH5 0x6970667358 0x22 SLT KECCAK256 SWAP11 PUSH23 0x4C325F11B294F62CC6E1630C991636E99A6FB2B5FE7EBE 0xE3 0xC1 SWAP2 DUP9 EXP 0xCD 0x24 PUSH5 0x736F6C6343 STOP ADDMOD SMOD STOP CALLER "
				},
				"gasEstimates": {
					"creation": {
						"codeDepositCost": "297600",
						"executionCost": "337",
						"totalCost": "297937"
					},
					"external": {
						"get()": "infinite",
						"vote(uint256)": "infinite",
						"voters(address)": "2867",
						"winningCandidate()": "infinite"
					}
				},
				"methodIdentifiers": {
					"get()": "6d4ce63c",
					"vote(uint256)": "0121b93f",
					"voters(address)": "a3ec138d",
					"winningCandidate()": "d28178d7"
				}
			},
			"storageLayout": {
				"storage": [
					{
						"astId": 4,
						"contract": "contracts/Ballot.sol:Ballot",
						"label": "candidates",
						"offset": 0,
						"slot": "0",
						"type": "t_array(t_uint256)dyn_storage"
					},
					{
						"astId": 8,
						"contract": "contracts/Ballot.sol:Ballot",
						"label": "voters",
						"offset": 0,
						"slot": "1",
						"type": "t_mapping(t_address,t_bool)"
					}
				],
				"types": {
					"t_address": {
						"encoding": "inplace",
						"label": "address",
						"numberOfBytes": "20"
					},
					"t_array(t_uint256)dyn_storage": {
						"base": "t_uint256",
						"encoding": "dynamic_array",
						"label": "uint256[]",
						"numberOfBytes": "32"
					},
					"t_bool": {
						"encoding": "inplace",
						"label": "bool",
						"numberOfBytes": "1"
					},
					"t_mapping(t_address,t_bool)": {
						"encoding": "mapping",
						"key": "t_address",
						"label": "mapping(address => bool)",
						"numberOfBytes": "32",
						"value": "t_bool"
					},
					"t_uint256": {
						"encoding": "inplace",
						"label": "uint256",
						"numberOfBytes": "32"
					}
				}
			},
			"userdoc": {
				"kind": "user",
				"methods": {},
				"version": 1
			}
		}
	}
}