{
	"data": {
		"bytecode": {
			"linkReferences": {},
			"object": "608060405260fe6000806101000a81548160ff021916908360ff16021790555060056003556002600460006101000a81548160ff021916908360ff1602179055507ffffffffffffffffffffffffffffffffffffffffffffffffffffffffffffffffb6005557fffffffffffffffffffffffffffffffffffffffffffffffffffffffffffffffff600660006101000a81548160ff021916908360000b60ff1602179055503480156100ae57600080fd5b50610742806100be6000396000f3fe608060405234801561001057600080fd5b50600436106100935760003560e01c80636ac5db19116100665780636ac5db19146100fc5780636e92c39e1461011a578063a9bf563314610138578063d09de08a14610154578063f88979451461015e57610093565b806301725a0b1461009857806306540f7e146100a25780632cb777a6146100c05780633fa4f245146100de575b600080fd5b6100a061017c565b005b6100aa610193565b6040516100b79190610321565b60405180910390f35b6100c8610199565b6040516100d591906102eb565b60405180910390f35b6100e661019f565b6040516100f3919061033c565b60405180910390f35b6101046101b0565b6040516101119190610321565b60405180910390f35b6101226101b6565b60405161012f9190610306565b60405180910390f35b610152600480360381019061014d9190610282565b6101c9565b005b61015c610234565b005b610166610267565b6040516101739190610321565b60405180910390f35b600060ff1660018190555060ff8016600281905550565b60035481565b60055481565b60008054906101000a900460ff1681565b60025481565b600660009054906101000a900460000b81565b6000602a90506001816101dc9190610357565b506001816101ea91906105a9565b506002816101f8919061054f565b5060028161020691906103ad565b506003816102149190610431565b50600381610222919061060b565b5060055461022f9061063c565b505050565b60008081819054906101000a900460ff168092919060010191906101000a81548160ff021916908360ff16021790555050565b60015481565b60008135905061027c816106f5565b92915050565b600060208284031215610298576102976106e3565b5b60006102a68482850161026d565b91505092915050565b6102b8816105dd565b82525050565b6102c7816105e7565b82525050565b6102d6816105f4565b82525050565b6102e5816105fe565b82525050565b600060208201905061030060008301846102af565b92915050565b600060208201905061031b60008301846102be565b92915050565b600060208201905061033660008301846102cd565b92915050565b600060208201905061035160008301846102dc565b92915050565b6000610362826105f4565b915061036d836105f4565b9250827fffffffffffffffffffffffffffffffffffffffffffffffffffffffffffffffff038211156103a2576103a1610685565b5b828201905092915050565b60006103b8826105f4565b91506103c3836105f4565b9250826103d3576103d26106b4565b5b828204905092915050565b6000808291508390505b60018511156104285780860481111561040457610403610685565b5b60018516156104135780820291505b8081029050610421856106e8565b94506103e8565b94509492505050565b600061043c826105f4565b9150610447836105fe565b92506104747fffffffffffffffffffffffffffffffffffffffffffffffffffffffffffffffff848461047c565b905092915050565b60008261048c5760019050610548565b8161049a5760009050610548565b81600181146104b057600281146104ba576104e9565b6001915050610548565b60ff8411156104cc576104cb610685565b5b8360020a9150848211156104e3576104e2610685565b5b50610548565b5060208310610133831016604e8410600b841016171561051e5782820a90508381111561051957610518610685565b5b610548565b61052b84848460016103de565b9250905081840481111561054257610541610685565b5b81810290505b9392505050565b600061055a826105f4565b9150610565836105f4565b9250817fffffffffffffffffffffffffffffffffffffffffffffffffffffffffffffffff048311821515161561059e5761059d610685565b5b828202905092915050565b60006105b4826105f4565b91506105bf836105f4565b9250828210156105d2576105d1610685565b5b828203905092915050565b6000819050919050565b60008160000b9050919050565b6000819050919050565b600060ff82169050919050565b6000610616826105f4565b9150610621836105f4565b925082610631576106306106b4565b5b828206905092915050565b6000610647826105dd565b91507f800000000000000000000000000000000000000000000000000000000000000082141561067a57610679610685565b5b816000039050919050565b7f4e487b7100000000000000000000000000000000000000000000000000000000600052601160045260246000fd5b7f4e487b7100000000000000000000000000000000000000000000000000000000600052601260045260246000fd5b600080fd5b60008160011c9050919050565b6106fe816105f4565b811461070957600080fd5b5056fea2646970667358221220b6e656b76469d67d47ef9fe542b97eb48254b6b76725cdc86a61b1ebe005396464736f6c63430008070033",
			"opcodes": "PUSH1 0x80 PUSH1 0x40 MSTORE PUSH1 0xFE PUSH1 0x0 DUP1 PUSH2 0x100 EXP DUP2 SLOAD DUP2 PUSH1 0xFF MUL NOT AND SWAP1 DUP4 PUSH1 0xFF AND MUL OR SWAP1 SSTORE POP PUSH1 0x5 PUSH1 0x3 SSTORE PUSH1 0x2 PUSH1 0x4 PUSH1 0x0 PUSH2 0x100 EXP DUP2 SLOAD DUP2 PUSH1 0xFF MUL NOT AND SWAP1 DUP4 PUSH1 0xFF AND MUL OR SWAP1 SSTORE POP PUSH32 0xFFFFFFFFFFFFFFFFFFFFFFFFFFFFFFFFFFFFFFFFFFFFFFFFFFFFFFFFFFFFFFFB PUSH1 0x5 SSTORE PUSH32 0xFFFFFFFFFFFFFFFFFFFFFFFFFFFFFFFFFFFFFFFFFFFFFFFFFFFFFFFFFFFFFFFF PUSH1 0x6 PUSH1 0x0 PUSH2 0x100 EXP DUP2 SLOAD DUP2 PUSH1 0xFF MUL NOT AND SWAP1 DUP4 PUSH1 0x0 SIGNEXTEND PUSH1 0xFF AND MUL OR SWAP1 SSTORE POP CALLVALUE DUP1 ISZERO PUSH2 0xAE JUMPI PUSH1 0x0 DUP1 REVERT JUMPDEST POP PUSH2 0x742 DUP1 PUSH2 0xBE PUSH1 0x0 CODECOPY PUSH1 0x0 RETURN INVALID PUSH1 0x80 PUSH1 0x40 MSTORE CALLVALUE DUP1 ISZERO PUSH2 0x10 JUMPI PUSH1 0x0 DUP1 REVERT JUMPDEST POP PUSH1 0x4 CALLDATASIZE LT PUSH2 0x93 JUMPI PUSH1 0x0 CALLDATALOAD PUSH1 0xE0 SHR DUP1 PUSH4 0x6AC5DB19 GT PUSH2 0x66 JUMPI DUP1 PUSH4 0x6AC5DB19 EQ PUSH2 0xFC JUMPI DUP1 PUSH4 0x6E92C39E EQ PUSH2 0x11A JUMPI DUP1 PUSH4 0xA9BF5633 EQ PUSH2 0x138 JUMPI DUP1 PUSH4 0xD09DE08A EQ PUSH2 0x154 JUMPI DUP1 PUSH4 0xF8897945 EQ PUSH2 0x15E JUMPI PUSH2 0x93 JUMP JUMPDEST DUP1 PUSH4 0x1725A0B EQ PUSH2 0x98 JUMPI DUP1 PUSH4 0x6540F7E EQ PUSH2 0xA2 JUMPI DUP1 PUSH4 0x2CB777A6 EQ PUSH2 0xC0 JUMPI DUP1 PUSH4 0x3FA4F245 EQ PUSH2 0xDE JUMPI JUMPDEST PUSH1 0x0 DUP1 REVERT JUMPDEST PUSH2 0xA0 PUSH2 0x17C JUMP JUMPDEST STOP JUMPDEST PUSH2 0xAA PUSH2 0x193 JUMP JUMPDEST PUSH1 0x40 MLOAD PUSH2 0xB7 SWAP2 SWAP1 PUSH2 0x321 JUMP JUMPDEST PUSH1 0x40 MLOAD DUP1 SWAP2 SUB SWAP1 RETURN JUMPDEST PUSH2 0xC8 PUSH2 0x199 JUMP JUMPDEST PUSH1 0x40 MLOAD PUSH2 0xD5 SWAP2 SWAP1 PUSH2 0x2EB JUMP JUMPDEST PUSH1 0x40 MLOAD DUP1 SWAP2 SUB SWAP1 RETURN JUMPDEST PUSH2 0xE6 PUSH2 0x19F JUMP JUMPDEST PUSH1 0x40 MLOAD PUSH2 0xF3 SWAP2 SWAP1 PUSH2 0x33C JUMP JUMPDEST PUSH1 0x40 MLOAD DUP1 SWAP2 SUB SWAP1 RETURN JUMPDEST PUSH2 0x104 PUSH2 0x1B0 JUMP JUMPDEST PUSH1 0x40 MLOAD PUSH2 0x111 SWAP2 SWAP1 PUSH2 0x321 JUMP JUMPDEST PUSH1 0x40 MLOAD DUP1 SWAP2 SUB SWAP1 RETURN JUMPDEST PUSH2 0x122 PUSH2 0x1B6 JUMP JUMPDEST PUSH1 0x40 MLOAD PUSH2 0x12F SWAP2 SWAP1 PUSH2 0x306 JUMP JUMPDEST PUSH1 0x40 MLOAD DUP1 SWAP2 SUB SWAP1 RETURN JUMPDEST PUSH2 0x152 PUSH1 0x4 DUP1 CALLDATASIZE SUB DUP2 ADD SWAP1 PUSH2 0x14D SWAP2 SWAP1 PUSH2 0x282 JUMP JUMPDEST PUSH2 0x1C9 JUMP JUMPDEST STOP JUMPDEST PUSH2 0x15C PUSH2 0x234 JUMP JUMPDEST STOP JUMPDEST PUSH2 0x166 PUSH2 0x267 JUMP JUMPDEST PUSH1 0x40 MLOAD PUSH2 0x173 SWAP2 SWAP1 PUSH2 0x321 JUMP JUMPDEST PUSH1 0x40 MLOAD DUP1 SWAP2 SUB SWAP1 RETURN JUMPDEST PUSH1 0x0 PUSH1 0xFF AND PUSH1 0x1 DUP2 SWAP1 SSTORE POP PUSH1 0xFF DUP1 AND PUSH1 0x2 DUP2 SWAP1 SSTORE POP JUMP JUMPDEST PUSH1 0x3 SLOAD DUP2 JUMP JUMPDEST PUSH1 0x5 SLOAD DUP2 JUMP JUMPDEST PUSH1 0x0 DUP1 SLOAD SWAP1 PUSH2 0x100 EXP SWAP1 DIV PUSH1 0xFF AND DUP2 JUMP JUMPDEST PUSH1 0x2 SLOAD DUP2 JUMP JUMPDEST PUSH1 0x6 PUSH1 0x0 SWAP1 SLOAD SWAP1 PUSH2 0x100 EXP SWAP1 DIV PUSH1 0x0 SIGNEXTEND DUP2 JUMP JUMPDEST PUSH1 0x0 PUSH1 0x2A SWAP1 POP PUSH1 0x1 DUP2 PUSH2 0x1DC SWAP2 SWAP1 PUSH2 0x357 JUMP JUMPDEST POP PUSH1 0x1 DUP2 PUSH2 0x1EA SWAP2 SWAP1 PUSH2 0x5A9 JUMP JUMPDEST POP PUSH1 0x2 DUP2 PUSH2 0x1F8 SWAP2 SWAP1 PUSH2 0x54F JUMP JUMPDEST POP PUSH1 0x2 DUP2 PUSH2 0x206 SWAP2 SWAP1 PUSH2 0x3AD JUMP JUMPDEST POP PUSH1 0x3 DUP2 PUSH2 0x214 SWAP2 SWAP1 PUSH2 0x431 JUMP JUMPDEST POP PUSH1 0x3 DUP2 PUSH2 0x222 SWAP2 SWAP1 PUSH2 0x60B JUMP JUMPDEST POP PUSH1 0x5 SLOAD PUSH2 0x22F SWAP1 PUSH2 0x63C JUMP JUMPDEST POP POP POP JUMP JUMPDEST PUSH1 0x0 DUP1 DUP2 DUP2 SWAP1 SLOAD SWAP1 PUSH2 0x100 EXP SWAP1 DIV PUSH1 0xFF AND DUP1 SWAP3 SWAP2 SWAP1 PUSH1 0x1 ADD SWAP2 SWAP1 PUSH2 0x100 EXP DUP2 SLOAD DUP2 PUSH1 0xFF MUL NOT AND SWAP1 DUP4 PUSH1 0xFF AND MUL OR SWAP1 SSTORE POP POP JUMP JUMPDEST PUSH1 0x1 SLOAD DUP2 JUMP JUMPDEST PUSH1 0x0 DUP2 CALLDATALOAD SWAP1 POP PUSH2 0x27C DUP2 PUSH2 0x6F5 JUMP JUMPDEST SWAP3 SWAP2 POP POP JUMP JUMPDEST PUSH1 0x0 PUSH1 0x20 DUP3 DUP5 SUB SLT ISZERO PUSH2 0x298 JUMPI PUSH2 0x297 PUSH2 0x6E3 JUMP JUMPDEST JUMPDEST PUSH1 0x0 PUSH2 0x2A6 DUP5 DUP3 DUP6 ADD PUSH2 0x26D JUMP JUMPDEST SWAP2 POP POP SWAP3 SWAP2 POP POP JUMP JUMPDEST PUSH2 0x2B8 DUP2 PUSH2 0x5DD JUMP JUMPDEST DUP3 MSTORE POP POP JUMP JUMPDEST PUSH2 0x2C7 DUP2 PUSH2 0x5E7 JUMP JUMPDEST DUP3 MSTORE POP POP JUMP JUMPDEST PUSH2 0x2D6 DUP2 PUSH2 0x5F4 JUMP JUMPDEST DUP3 MSTORE POP POP JUMP JUMPDEST PUSH2 0x2E5 DUP2 PUSH2 0x5FE JUMP JUMPDEST DUP3 MSTORE POP POP JUMP JUMPDEST PUSH1 0x0 PUSH1 0x20 DUP3 ADD SWAP1 POP PUSH2 0x300 PUSH1 0x0 DUP4 ADD DUP5 PUSH2 0x2AF JUMP JUMPDEST SWAP3 SWAP2 POP POP JUMP JUMPDEST PUSH1 0x0 PUSH1 0x20 DUP3 ADD SWAP1 POP PUSH2 0x31B PUSH1 0x0 DUP4 ADD DUP5 PUSH2 0x2BE JUMP JUMPDEST SWAP3 SWAP2 POP POP JUMP JUMPDEST PUSH1 0x0 PUSH1 0x20 DUP3 ADD SWAP1 POP PUSH2 0x336 PUSH1 0x0 DUP4 ADD DUP5 PUSH2 0x2CD JUMP JUMPDEST SWAP3 SWAP2 POP POP JUMP JUMPDEST PUSH1 0x0 PUSH1 0x20 DUP3 ADD SWAP1 POP PUSH2 0x351 PUSH1 0x0 DUP4 ADD DUP5 PUSH2 0x2DC JUMP JUMPDEST SWAP3 SWAP2 POP POP JUMP JUMPDEST PUSH1 0x0 PUSH2 0x362 DUP3 PUSH2 0x5F4 JUMP JUMPDEST SWAP2 POP PUSH2 0x36D DUP4 PUSH2 0x5F4 JUMP JUMPDEST SWAP3 POP DUP3 PUSH32 0xFFFFFFFFFFFFFFFFFFFFFFFFFFFFFFFFFFFFFFFFFFFFFFFFFFFFFFFFFFFFFFFF SUB DUP3 GT ISZERO PUSH2 0x3A2 JUMPI PUSH2 0x3A1 PUSH2 0x685 JUMP JUMPDEST JUMPDEST DUP3 DUP3 ADD SWAP1 POP SWAP3 SWAP2 POP POP JUMP JUMPDEST PUSH1 0x0 PUSH2 0x3B8 DUP3 PUSH2 0x5F4 JUMP JUMPDEST SWAP2 POP PUSH2 0x3C3 DUP4 PUSH2 0x5F4 JUMP JUMPDEST SWAP3 POP DUP3 PUSH2 0x3D3 JUMPI PUSH2 0x3D2 PUSH2 0x6B4 JUMP JUMPDEST JUMPDEST DUP3 DUP3 DIV SWAP1 POP SWAP3 SWAP2 POP POP JUMP JUMPDEST PUSH1 0x0 DUP1 DUP3 SWAP2 POP DUP4 SWAP1 POP JUMPDEST PUSH1 0x1 DUP6 GT ISZERO PUSH2 0x428 JUMPI DUP1 DUP7 DIV DUP2 GT ISZERO PUSH2 0x404 JUMPI PUSH2 0x403 PUSH2 0x685 JUMP JUMPDEST JUMPDEST PUSH1 0x1 DUP6 AND ISZERO PUSH2 0x413 JUMPI DUP1 DUP3 MUL SWAP2 POP JUMPDEST DUP1 DUP2 MUL SWAP1 POP PUSH2 0x421 DUP6 PUSH2 0x6E8 JUMP JUMPDEST SWAP5 POP PUSH2 0x3E8 JUMP JUMPDEST SWAP5 POP SWAP5 SWAP3 POP POP POP JUMP JUMPDEST PUSH1 0x0 PUSH2 0x43C DUP3 PUSH2 0x5F4 JUMP JUMPDEST SWAP2 POP PUSH2 0x447 DUP4 PUSH2 0x5FE JUMP JUMPDEST SWAP3 POP PUSH2 0x474 PUSH32 0xFFFFFFFFFFFFFFFFFFFFFFFFFFFFFFFFFFFFFFFFFFFFFFFFFFFFFFFFFFFFFFFF DUP5 DUP5 PUSH2 0x47C JUMP JUMPDEST SWAP1 POP SWAP3 SWAP2 POP POP JUMP JUMPDEST PUSH1 0x0 DUP3 PUSH2 0x48C JUMPI PUSH1 0x1 SWAP1 POP PUSH2 0x548 JUMP JUMPDEST DUP2 PUSH2 0x49A JUMPI PUSH1 0x0 SWAP1 POP PUSH2 0x548 JUMP JUMPDEST DUP2 PUSH1 0x1 DUP2 EQ PUSH2 0x4B0 JUMPI PUSH1 0x2 DUP2 EQ PUSH2 0x4BA JUMPI PUSH2 0x4E9 JUMP JUMPDEST PUSH1 0x1 SWAP2 POP POP PUSH2 0x548 JUMP JUMPDEST PUSH1 0xFF DUP5 GT ISZERO PUSH2 0x4CC JUMPI PUSH2 0x4CB PUSH2 0x685 JUMP JUMPDEST JUMPDEST DUP4 PUSH1 0x2 EXP SWAP2 POP DUP5 DUP3 GT ISZERO PUSH2 0x4E3 JUMPI PUSH2 0x4E2 PUSH2 0x685 JUMP JUMPDEST JUMPDEST POP PUSH2 0x548 JUMP JUMPDEST POP PUSH1 0x20 DUP4 LT PUSH2 0x133 DUP4 LT AND PUSH1 0x4E DUP5 LT PUSH1 0xB DUP5 LT AND OR ISZERO PUSH2 0x51E JUMPI DUP3 DUP3 EXP SWAP1 POP DUP4 DUP2 GT ISZERO PUSH2 0x519 JUMPI PUSH2 0x518 PUSH2 0x685 JUMP JUMPDEST JUMPDEST PUSH2 0x548 JUMP JUMPDEST PUSH2 0x52B DUP5 DUP5 DUP5 PUSH1 0x1 PUSH2 0x3DE JUMP JUMPDEST SWAP3 POP SWAP1 POP DUP2 DUP5 DIV DUP2 GT ISZERO PUSH2 0x542 JUMPI PUSH2 0x541 PUSH2 0x685 JUMP JUMPDEST JUMPDEST DUP2 DUP2 MUL SWAP1 POP JUMPDEST SWAP4 SWAP3 POP POP POP JUMP JUMPDEST PUSH1 0x0 PUSH2 0x55A DUP3 PUSH2 0x5F4 JUMP JUMPDEST SWAP2 POP PUSH2 0x565 DUP4 PUSH2 0x5F4 JUMP JUMPDEST SWAP3 POP DUP2 PUSH32 0xFFFFFFFFFFFFFFFFFFFFFFFFFFFFFFFFFFFFFFFFFFFFFFFFFFFFFFFFFFFFFFFF DIV DUP4 GT DUP3 ISZERO ISZERO AND ISZERO PUSH2 0x59E JUMPI PUSH2 0x59D PUSH2 0x685 JUMP JUMPDEST JUMPDEST DUP3 DUP3 MUL SWAP1 POP SWAP3 SWAP2 POP POP JUMP JUMPDEST PUSH1 0x0 PUSH2 0x5B4 DUP3 PUSH2 0x5F4 JUMP JUMPDEST SWAP2 POP PUSH2 0x5BF DUP4 PUSH2 0x5F4 JUMP JUMPDEST SWAP3 POP DUP3 DUP3 LT ISZERO PUSH2 0x5D2 JUMPI PUSH2 0x5D1 PUSH2 0x685 JUMP JUMPDEST JUMPDEST DUP3 DUP3 SUB SWAP1 POP SWAP3 SWAP2 POP POP JUMP JUMPDEST PUSH1 0x0 DUP2 SWAP1 POP SWAP2 SWAP1 POP JUMP JUMPDEST PUSH1 0x0 DUP2 PUSH1 0x0 SIGNEXTEND SWAP1 POP SWAP2 SWAP1 POP JUMP JUMPDEST PUSH1 0x0 DUP2 SWAP1 POP SWAP2 SWAP1 POP JUMP JUMPDEST PUSH1 0x0 PUSH1 0xFF DUP3 AND SWAP1 POP SWAP2 SWAP1 POP JUMP JUMPDEST PUSH1 0x0 PUSH2 0x616 DUP3 PUSH2 0x5F4 JUMP JUMPDEST SWAP2 POP PUSH2 0x621 DUP4 PUSH2 0x5F4 JUMP JUMPDEST SWAP3 POP DUP3 PUSH2 0x631 JUMPI PUSH2 0x630 PUSH2 0x6B4 JUMP JUMPDEST JUMPDEST DUP3 DUP3 MOD SWAP1 POP SWAP3 SWAP2 POP POP JUMP JUMPDEST PUSH1 0x0 PUSH2 0x647 DUP3 PUSH2 0x5DD JUMP JUMPDEST SWAP2 POP PUSH32 0x8000000000000000000000000000000000000000000000000000000000000000 DUP3 EQ ISZERO PUSH2 0x67A JUMPI PUSH2 0x679 PUSH2 0x685 JUMP JUMPDEST JUMPDEST DUP2 PUSH1 0x0 SUB SWAP1 POP SWAP2 SWAP1 POP JUMP JUMPDEST PUSH32 0x4E487B7100000000000000000000000000000000000000000000000000000000 PUSH1 0x0 MSTORE PUSH1 0x11 PUSH1 0x4 MSTORE PUSH1 0x24 PUSH1 0x0 REVERT JUMPDEST PUSH32 0x4E487B7100000000000000000000000000000000000000000000000000000000 PUSH1 0x0 MSTORE PUSH1 0x12 PUSH1 0x4 MSTORE PUSH1 0x24 PUSH1 0x0 REVERT JUMPDEST PUSH1 0x0 DUP1 REVERT JUMPDEST PUSH1 0x0 DUP2 PUSH1 0x1 SHR SWAP1 POP SWAP2 SWAP1 POP JUMP JUMPDEST PUSH2 0x6FE DUP2 PUSH2 0x5F4 JUMP JUMPDEST DUP2 EQ PUSH2 0x709 JUMPI PUSH1 0x0 DUP1 REVERT JUMPDEST POP JUMP INVALID LOG2 PUSH5 0x6970667358 0x22 SLT KECCAK256 0xB6 0xE6 JUMP 0xB7 PUSH5 0x69D67D47EF SWAP16 0xE5 TIMESTAMP 0xB9 PUSH31 0xB48254B6B76725CDC86A61B1EBE005396464736F6C63430008070033000000 "
		},
		"gasEstimates": {
			"creation": {
				"codeDepositCost": "371600",
				"executionCost": "117432",
				"totalCost": "489032"
			},
			"external": {
				"demo()": "27285",
				"increment()": "26639",
				"max()": "2429",
				"min()": "2517",
				"myFunc(uint256)": "infinite",
				"myInt()": "2474",
				"myInt8()": "2497",
				"myUint()": "2452",
				"value()": "2535"
			}
		},
		"methodIdentifiers": {
			"demo()": "01725a0b",
			"increment()": "d09de08a",
			"max()": "6ac5db19",
			"min()": "f8897945",
			"myFunc(uint256)": "a9bf5633",
			"myInt()": "2cb777a6",
			"myInt8()": "6e92c39e",
			"myUint()": "06540f7e",
			"value()": "3fa4f245"
		}
	},
	"abi": [
		{
			"inputs": [],
			"name": "demo",
			"outputs": [],
			"stateMutability": "nonpayable",
			"type": "function"
		},
		{
			"inputs": [],
			"name": "increment",
			"outputs": [],
			"stateMutability": "nonpayable",
			"type": "function"
		},
		{
			"inputs": [],
			"name": "max",
			"outputs": [
				{
					"internalType": "uint256",
					"name": "",
					"type": "uint256"
				}
			],
			"stateMutability": "view",
			"type": "function"
		},
		{
			"inputs": [],
			"name": "min",
			"outputs": [
				{
					"internalType": "uint256",
					"name": "",
					"type": "uint256"
				}
			],
			"stateMutability": "view",
			"type": "function"
		},
		{
			"inputs": [
				{
					"internalType": "uint256",
					"name": "_input",
					"type": "uint256"
				}
			],
			"name": "myFunc",
			"outputs": [],
			"stateMutability": "nonpayable",
			"type": "function"
		},
		{
			"inputs": [],
			"name": "myInt",
			"outputs": [
				{
					"internalType": "int256",
					"name": "",
					"type": "int256"
				}
			],
			"stateMutability": "view",
			"type": "function"
		},
		{
			"inputs": [],
			"name": "myInt8",
			"outputs": [
				{
					"internalType": "int8",
					"name": "",
					"type": "int8"
				}
			],
			"stateMutability": "view",
			"type": "function"
		},
		{
			"inputs": [],
			"name": "myUint",
			"outputs": [
				{
					"internalType": "uint256",
					"name": "",
					"type": "uint256"
				}
			],
			"stateMutability": "view",
			"type": "function"
		},
		{
			"inputs": [],
			"name": "value",
			"outputs": [
				{
					"internalType": "uint8",
					"name": "",
					"type": "uint8"
				}
			],
			"stateMutability": "view",
			"type": "function"
		}
	]
}